{
	"Solidity/contracts/Project - Smart Wallet/SmartContractWallet.sol": {
		"SmartContractWallet": {
			"abi": [
				{
					"inputs": [],
					"stateMutability": "nonpayable",
					"type": "constructor"
				},
				{
					"inputs": [
						{
							"internalType": "address",
							"name": "",
							"type": "address"
						}
					],
					"name": "allowance",
					"outputs": [
						{
							"internalType": "uint256",
							"name": "",
							"type": "uint256"
						}
					],
					"stateMutability": "view",
					"type": "function"
				},
				{
					"inputs": [],
					"name": "confirmationsFromGuardiansForReset",
					"outputs": [
						{
							"internalType": "uint256",
							"name": "",
							"type": "uint256"
						}
					],
					"stateMutability": "view",
					"type": "function"
				},
				{
					"inputs": [
						{
							"internalType": "address",
							"name": "_from",
							"type": "address"
						}
					],
					"name": "denySending",
					"outputs": [],
					"stateMutability": "nonpayable",
					"type": "function"
				},
				{
					"inputs": [
						{
							"internalType": "address",
							"name": "",
							"type": "address"
						}
					],
					"name": "guardian",
					"outputs": [
						{
							"internalType": "bool",
							"name": "",
							"type": "bool"
						}
					],
					"stateMutability": "view",
					"type": "function"
				},
				{
					"inputs": [
						{
							"internalType": "address",
							"name": "",
							"type": "address"
						}
					],
					"name": "isAllowedToSend",
					"outputs": [
						{
							"internalType": "bool",
							"name": "",
							"type": "bool"
						}
					],
					"stateMutability": "view",
					"type": "function"
				},
				{
					"inputs": [],
					"name": "owner",
					"outputs": [
						{
							"internalType": "address payable",
							"name": "",
							"type": "address"
						}
					],
					"stateMutability": "view",
					"type": "function"
				},
				{
					"inputs": [
						{
							"internalType": "address payable",
							"name": "newOwner",
							"type": "address"
						}
					],
					"name": "proposeNewOwner",
					"outputs": [],
					"stateMutability": "nonpayable",
					"type": "function"
				},
				{
					"inputs": [
						{
							"internalType": "address",
							"name": "_from",
							"type": "address"
						},
						{
							"internalType": "uint256",
							"name": "_amount",
							"type": "uint256"
						}
					],
					"name": "setAllowance",
					"outputs": [],
					"stateMutability": "nonpayable",
					"type": "function"
				},
				{
					"inputs": [
						{
							"internalType": "address payable",
							"name": "_to",
							"type": "address"
						},
						{
							"internalType": "uint256",
							"name": "_amount",
							"type": "uint256"
						},
						{
							"internalType": "bytes",
							"name": "payload",
							"type": "bytes"
						}
					],
					"name": "transfer",
					"outputs": [
						{
							"internalType": "bytes",
							"name": "",
							"type": "bytes"
						}
					],
					"stateMutability": "nonpayable",
					"type": "function"
				},
				{
					"stateMutability": "payable",
					"type": "receive"
				}
			],
			"devdoc": {
				"kind": "dev",
				"methods": {},
				"version": 1
			},
			"evm": {
				"assembly": "    /* \"Solidity/contracts/Project - Smart Wallet/SmartContractWallet.sol\":237:2287  contract SmartContractWallet {... */\n  mstore(0x40, 0x80)\n    /* \"Solidity/contracts/Project - Smart Wallet/SmartContractWallet.sol\":594:654  constructor() {... */\n  callvalue\n  dup1\n  iszero\n  tag_1\n  jumpi\n  revert(0x00, 0x00)\ntag_1:\n  pop\n    /* \"Solidity/contracts/Project - Smart Wallet/SmartContractWallet.sol\":635:645  msg.sender */\n  caller\n    /* \"Solidity/contracts/Project - Smart Wallet/SmartContractWallet.sol\":619:624  owner */\n  0x00\n  0x00\n    /* \"Solidity/contracts/Project - Smart Wallet/SmartContractWallet.sol\":619:646  owner = payable(msg.sender) */\n  0x0100\n  exp\n  dup2\n  sload\n  dup2\n  0xffffffffffffffffffffffffffffffffffffffff\n  mul\n  not\n  and\n  swap1\n  dup4\n  0xffffffffffffffffffffffffffffffffffffffff\n  and\n  mul\n  or\n  swap1\n  sstore\n  pop\n    /* \"Solidity/contracts/Project - Smart Wallet/SmartContractWallet.sol\":237:2287  contract SmartContractWallet {... */\n  dataSize(sub_0)\n  dup1\n  dataOffset(sub_0)\n  0x00\n  codecopy\n  0x00\n  return\nstop\n\nsub_0: assembly {\n        /* \"Solidity/contracts/Project - Smart Wallet/SmartContractWallet.sol\":237:2287  contract SmartContractWallet {... */\n      mstore(0x40, 0x80)\n      jumpi(tag_1, lt(calldatasize, 0x04))\n      shr(0xe0, calldataload(0x00))\n      dup1\n      0x83012be1\n      gt\n      tag_12\n      jumpi\n      dup1\n      0x83012be1\n      eq\n      tag_7\n      jumpi\n      dup1\n      0x8da5cb5b\n      eq\n      tag_8\n      jumpi\n      dup1\n      0xb1f8100d\n      eq\n      tag_9\n      jumpi\n      dup1\n      0xbe45fd62\n      eq\n      tag_10\n      jumpi\n      dup1\n      0xf29e2236\n      eq\n      tag_11\n      jumpi\n      jump(tag_2)\n    tag_12:\n      dup1\n      0x0bc605ad\n      eq\n      tag_3\n      jumpi\n      dup1\n      0x310ec4a7\n      eq\n      tag_4\n      jumpi\n      dup1\n      0x3e5beab9\n      eq\n      tag_5\n      jumpi\n      dup1\n      0x7673de53\n      eq\n      tag_6\n      jumpi\n      jump(tag_2)\n    tag_1:\n      jumpi(tag_2, calldatasize)\n      stop\n    tag_2:\n      revert(0x00, 0x00)\n        /* \"Solidity/contracts/Project - Smart Wallet/SmartContractWallet.sol\":360:407  mapping(address => bool) public isAllowedToSend */\n    tag_3:\n      callvalue\n      dup1\n      iszero\n      tag_15\n      jumpi\n      revert(0x00, 0x00)\n    tag_15:\n      pop\n      tag_16\n      0x04\n      dup1\n      calldatasize\n      sub\n      dup2\n      add\n      swap1\n      tag_17\n      swap2\n      swap1\n      tag_18\n      jump\t// in\n    tag_17:\n      tag_19\n      jump\t// in\n    tag_16:\n      mload(0x40)\n      tag_20\n      swap2\n      swap1\n      tag_21\n      jump\t// in\n    tag_20:\n      mload(0x40)\n      dup1\n      swap2\n      sub\n      swap1\n      return\n        /* \"Solidity/contracts/Project - Smart Wallet/SmartContractWallet.sol\":1128:1346  function setAllowance(address _from, uint _amount) public {... */\n    tag_4:\n      callvalue\n      dup1\n      iszero\n      tag_22\n      jumpi\n      revert(0x00, 0x00)\n    tag_22:\n      pop\n      tag_23\n      0x04\n      dup1\n      calldatasize\n      sub\n      dup2\n      add\n      swap1\n      tag_24\n      swap2\n      swap1\n      tag_25\n      jump\t// in\n    tag_24:\n      tag_26\n      jump\t// in\n    tag_23:\n      stop\n        /* \"Solidity/contracts/Project - Smart Wallet/SmartContractWallet.sol\":312:353  mapping(address => uint) public allowance */\n    tag_5:\n      callvalue\n      dup1\n      iszero\n      tag_27\n      jumpi\n      revert(0x00, 0x00)\n    tag_27:\n      pop\n      tag_28\n      0x04\n      dup1\n      calldatasize\n      sub\n      dup2\n      add\n      swap1\n      tag_29\n      swap2\n      swap1\n      tag_18\n      jump\t// in\n    tag_29:\n      tag_30\n      jump\t// in\n    tag_28:\n      mload(0x40)\n      tag_31\n      swap2\n      swap1\n      tag_32\n      jump\t// in\n    tag_31:\n      mload(0x40)\n      dup1\n      swap2\n      sub\n      swap1\n      return\n        /* \"Solidity/contracts/Project - Smart Wallet/SmartContractWallet.sol\":1354:1521  function denySending(address _from) public {... */\n    tag_6:\n      callvalue\n      dup1\n      iszero\n      tag_33\n      jumpi\n      revert(0x00, 0x00)\n    tag_33:\n      pop\n      tag_34\n      0x04\n      dup1\n      calldatasize\n      sub\n      dup2\n      add\n      swap1\n      tag_35\n      swap2\n      swap1\n      tag_18\n      jump\t// in\n    tag_35:\n      tag_36\n      jump\t// in\n    tag_34:\n      stop\n        /* \"Solidity/contracts/Project - Smart Wallet/SmartContractWallet.sol\":526:585  uint public constant confirmationsFromGuardiansForReset = 3 */\n    tag_7:\n      callvalue\n      dup1\n      iszero\n      tag_37\n      jumpi\n      revert(0x00, 0x00)\n    tag_37:\n      pop\n      tag_38\n      tag_39\n      jump\t// in\n    tag_38:\n      mload(0x40)\n      tag_40\n      swap2\n      swap1\n      tag_32\n      jump\t// in\n    tag_40:\n      mload(0x40)\n      dup1\n      swap2\n      sub\n      swap1\n      return\n        /* \"Solidity/contracts/Project - Smart Wallet/SmartContractWallet.sol\":275:303  address payable public owner */\n    tag_8:\n      callvalue\n      dup1\n      iszero\n      tag_41\n      jumpi\n      revert(0x00, 0x00)\n    tag_41:\n      pop\n      tag_42\n      tag_43\n      jump\t// in\n    tag_42:\n      mload(0x40)\n      tag_44\n      swap2\n      swap1\n      tag_45\n      jump\t// in\n    tag_44:\n      mload(0x40)\n      dup1\n      swap2\n      sub\n      swap1\n      return\n        /* \"Solidity/contracts/Project - Smart Wallet/SmartContractWallet.sol\":662:1120  function proposeNewOwner(address payable newOwner) public {... */\n    tag_9:\n      callvalue\n      dup1\n      iszero\n      tag_46\n      jumpi\n      revert(0x00, 0x00)\n    tag_46:\n      pop\n      tag_47\n      0x04\n      dup1\n      calldatasize\n      sub\n      dup2\n      add\n      swap1\n      tag_48\n      swap2\n      swap1\n      tag_49\n      jump\t// in\n    tag_48:\n      tag_50\n      jump\t// in\n    tag_47:\n      stop\n        /* \"Solidity/contracts/Project - Smart Wallet/SmartContractWallet.sol\":1529:2247  function transfer(address payable _to, uint _amount, bytes memory payload) public returns (bytes memory) {... */\n    tag_10:\n      callvalue\n      dup1\n      iszero\n      tag_51\n      jumpi\n      revert(0x00, 0x00)\n    tag_51:\n      pop\n      tag_52\n      0x04\n      dup1\n      calldatasize\n      sub\n      dup2\n      add\n      swap1\n      tag_53\n      swap2\n      swap1\n      tag_54\n      jump\t// in\n    tag_53:\n      tag_55\n      jump\t// in\n    tag_52:\n      mload(0x40)\n      tag_56\n      swap2\n      swap1\n      tag_57\n      jump\t// in\n    tag_56:\n      mload(0x40)\n      dup1\n      swap2\n      sub\n      swap1\n      return\n        /* \"Solidity/contracts/Project - Smart Wallet/SmartContractWallet.sol\":416:456  mapping(address => bool) public guardian */\n    tag_11:\n      callvalue\n      dup1\n      iszero\n      tag_58\n      jumpi\n      revert(0x00, 0x00)\n    tag_58:\n      pop\n      tag_59\n      0x04\n      dup1\n      calldatasize\n      sub\n      dup2\n      add\n      swap1\n      tag_60\n      swap2\n      swap1\n      tag_18\n      jump\t// in\n    tag_60:\n      tag_61\n      jump\t// in\n    tag_59:\n      mload(0x40)\n      tag_62\n      swap2\n      swap1\n      tag_21\n      jump\t// in\n    tag_62:\n      mload(0x40)\n      dup1\n      swap2\n      sub\n      swap1\n      return\n        /* \"Solidity/contracts/Project - Smart Wallet/SmartContractWallet.sol\":360:407  mapping(address => bool) public isAllowedToSend */\n    tag_19:\n      mstore(0x20, 0x02)\n      dup1\n      0x00\n      mstore\n      keccak256(0x00, 0x40)\n      0x00\n      swap2\n      pop\n      sload\n      swap1\n      0x0100\n      exp\n      swap1\n      div\n      0xff\n      and\n      dup2\n      jump\t// out\n        /* \"Solidity/contracts/Project - Smart Wallet/SmartContractWallet.sol\":1128:1346  function setAllowance(address _from, uint _amount) public {... */\n    tag_26:\n        /* \"Solidity/contracts/Project - Smart Wallet/SmartContractWallet.sol\":1219:1224  owner */\n      0x00\n      0x00\n      swap1\n      sload\n      swap1\n      0x0100\n      exp\n      swap1\n      div\n      0xffffffffffffffffffffffffffffffffffffffff\n      and\n        /* \"Solidity/contracts/Project - Smart Wallet/SmartContractWallet.sol\":1205:1224  msg.sender == owner */\n      0xffffffffffffffffffffffffffffffffffffffff\n      and\n        /* \"Solidity/contracts/Project - Smart Wallet/SmartContractWallet.sol\":1205:1215  msg.sender */\n      caller\n        /* \"Solidity/contracts/Project - Smart Wallet/SmartContractWallet.sol\":1205:1224  msg.sender == owner */\n      0xffffffffffffffffffffffffffffffffffffffff\n      and\n      eq\n        /* \"Solidity/contracts/Project - Smart Wallet/SmartContractWallet.sol\":1197:1261  require(msg.sender == owner, \"You are not the owner, aborting!\") */\n      tag_64\n      jumpi\n      mload(0x40)\n      0x08c379a000000000000000000000000000000000000000000000000000000000\n      dup2\n      mstore\n      0x04\n      add\n      tag_65\n      swap1\n      tag_66\n      jump\t// in\n    tag_65:\n      mload(0x40)\n      dup1\n      swap2\n      sub\n      swap1\n      revert\n    tag_64:\n        /* \"Solidity/contracts/Project - Smart Wallet/SmartContractWallet.sol\":1291:1298  _amount */\n      dup1\n        /* \"Solidity/contracts/Project - Smart Wallet/SmartContractWallet.sol\":1272:1281  allowance */\n      0x01\n        /* \"Solidity/contracts/Project - Smart Wallet/SmartContractWallet.sol\":1272:1288  allowance[_from] */\n      0x00\n        /* \"Solidity/contracts/Project - Smart Wallet/SmartContractWallet.sol\":1282:1287  _from */\n      dup5\n        /* \"Solidity/contracts/Project - Smart Wallet/SmartContractWallet.sol\":1272:1288  allowance[_from] */\n      0xffffffffffffffffffffffffffffffffffffffff\n      and\n      0xffffffffffffffffffffffffffffffffffffffff\n      and\n      dup2\n      mstore\n      0x20\n      add\n      swap1\n      dup2\n      mstore\n      0x20\n      add\n      0x00\n      keccak256\n        /* \"Solidity/contracts/Project - Smart Wallet/SmartContractWallet.sol\":1272:1298  allowance[_from] = _amount */\n      dup2\n      swap1\n      sstore\n      pop\n        /* \"Solidity/contracts/Project - Smart Wallet/SmartContractWallet.sol\":1334:1338  true */\n      0x01\n        /* \"Solidity/contracts/Project - Smart Wallet/SmartContractWallet.sol\":1309:1324  isAllowedToSend */\n      0x02\n        /* \"Solidity/contracts/Project - Smart Wallet/SmartContractWallet.sol\":1309:1331  isAllowedToSend[_from] */\n      0x00\n        /* \"Solidity/contracts/Project - Smart Wallet/SmartContractWallet.sol\":1325:1330  _from */\n      dup5\n        /* \"Solidity/contracts/Project - Smart Wallet/SmartContractWallet.sol\":1309:1331  isAllowedToSend[_from] */\n      0xffffffffffffffffffffffffffffffffffffffff\n      and\n      0xffffffffffffffffffffffffffffffffffffffff\n      and\n      dup2\n      mstore\n      0x20\n      add\n      swap1\n      dup2\n      mstore\n      0x20\n      add\n      0x00\n      keccak256\n      0x00\n        /* \"Solidity/contracts/Project - Smart Wallet/SmartContractWallet.sol\":1309:1338  isAllowedToSend[_from] = true */\n      0x0100\n      exp\n      dup2\n      sload\n      dup2\n      0xff\n      mul\n      not\n      and\n      swap1\n      dup4\n      iszero\n      iszero\n      mul\n      or\n      swap1\n      sstore\n      pop\n        /* \"Solidity/contracts/Project - Smart Wallet/SmartContractWallet.sol\":1128:1346  function setAllowance(address _from, uint _amount) public {... */\n      pop\n      pop\n      jump\t// out\n        /* \"Solidity/contracts/Project - Smart Wallet/SmartContractWallet.sol\":312:353  mapping(address => uint) public allowance */\n    tag_30:\n      mstore(0x20, 0x01)\n      dup1\n      0x00\n      mstore\n      keccak256(0x00, 0x40)\n      0x00\n      swap2\n      pop\n      swap1\n      pop\n      sload\n      dup2\n      jump\t// out\n        /* \"Solidity/contracts/Project - Smart Wallet/SmartContractWallet.sol\":1354:1521  function denySending(address _from) public {... */\n    tag_36:\n        /* \"Solidity/contracts/Project - Smart Wallet/SmartContractWallet.sol\":1430:1435  owner */\n      0x00\n      0x00\n      swap1\n      sload\n      swap1\n      0x0100\n      exp\n      swap1\n      div\n      0xffffffffffffffffffffffffffffffffffffffff\n      and\n        /* \"Solidity/contracts/Project - Smart Wallet/SmartContractWallet.sol\":1416:1435  msg.sender == owner */\n      0xffffffffffffffffffffffffffffffffffffffff\n      and\n        /* \"Solidity/contracts/Project - Smart Wallet/SmartContractWallet.sol\":1416:1426  msg.sender */\n      caller\n        /* \"Solidity/contracts/Project - Smart Wallet/SmartContractWallet.sol\":1416:1435  msg.sender == owner */\n      0xffffffffffffffffffffffffffffffffffffffff\n      and\n      eq\n        /* \"Solidity/contracts/Project - Smart Wallet/SmartContractWallet.sol\":1408:1472  require(msg.sender == owner, \"You are not the owner, aborting!\") */\n      tag_68\n      jumpi\n      mload(0x40)\n      0x08c379a000000000000000000000000000000000000000000000000000000000\n      dup2\n      mstore\n      0x04\n      add\n      tag_69\n      swap1\n      tag_66\n      jump\t// in\n    tag_69:\n      mload(0x40)\n      dup1\n      swap2\n      sub\n      swap1\n      revert\n    tag_68:\n        /* \"Solidity/contracts/Project - Smart Wallet/SmartContractWallet.sol\":1508:1513  false */\n      0x00\n        /* \"Solidity/contracts/Project - Smart Wallet/SmartContractWallet.sol\":1483:1498  isAllowedToSend */\n      0x02\n        /* \"Solidity/contracts/Project - Smart Wallet/SmartContractWallet.sol\":1483:1505  isAllowedToSend[_from] */\n      0x00\n        /* \"Solidity/contracts/Project - Smart Wallet/SmartContractWallet.sol\":1499:1504  _from */\n      dup4\n        /* \"Solidity/contracts/Project - Smart Wallet/SmartContractWallet.sol\":1483:1505  isAllowedToSend[_from] */\n      0xffffffffffffffffffffffffffffffffffffffff\n      and\n      0xffffffffffffffffffffffffffffffffffffffff\n      and\n      dup2\n      mstore\n      0x20\n      add\n      swap1\n      dup2\n      mstore\n      0x20\n      add\n      0x00\n      keccak256\n      0x00\n        /* \"Solidity/contracts/Project - Smart Wallet/SmartContractWallet.sol\":1483:1513  isAllowedToSend[_from] = false */\n      0x0100\n      exp\n      dup2\n      sload\n      dup2\n      0xff\n      mul\n      not\n      and\n      swap1\n      dup4\n      iszero\n      iszero\n      mul\n      or\n      swap1\n      sstore\n      pop\n        /* \"Solidity/contracts/Project - Smart Wallet/SmartContractWallet.sol\":1354:1521  function denySending(address _from) public {... */\n      pop\n      jump\t// out\n        /* \"Solidity/contracts/Project - Smart Wallet/SmartContractWallet.sol\":526:585  uint public constant confirmationsFromGuardiansForReset = 3 */\n    tag_39:\n        /* \"Solidity/contracts/Project - Smart Wallet/SmartContractWallet.sol\":584:585  3 */\n      0x03\n        /* \"Solidity/contracts/Project - Smart Wallet/SmartContractWallet.sol\":526:585  uint public constant confirmationsFromGuardiansForReset = 3 */\n      dup2\n      jump\t// out\n        /* \"Solidity/contracts/Project - Smart Wallet/SmartContractWallet.sol\":275:303  address payable public owner */\n    tag_43:\n      0x00\n      0x00\n      swap1\n      sload\n      swap1\n      0x0100\n      exp\n      swap1\n      div\n      0xffffffffffffffffffffffffffffffffffffffff\n      and\n      dup2\n      jump\t// out\n        /* \"Solidity/contracts/Project - Smart Wallet/SmartContractWallet.sol\":662:1120  function proposeNewOwner(address payable newOwner) public {... */\n    tag_50:\n        /* \"Solidity/contracts/Project - Smart Wallet/SmartContractWallet.sol\":739:747  guardian */\n      0x03\n        /* \"Solidity/contracts/Project - Smart Wallet/SmartContractWallet.sol\":739:759  guardian[msg.sender] */\n      0x00\n        /* \"Solidity/contracts/Project - Smart Wallet/SmartContractWallet.sol\":748:758  msg.sender */\n      caller\n        /* \"Solidity/contracts/Project - Smart Wallet/SmartContractWallet.sol\":739:759  guardian[msg.sender] */\n      0xffffffffffffffffffffffffffffffffffffffff\n      and\n      0xffffffffffffffffffffffffffffffffffffffff\n      and\n      dup2\n      mstore\n      0x20\n      add\n      swap1\n      dup2\n      mstore\n      0x20\n      add\n      0x00\n      keccak256\n      0x00\n      swap1\n      sload\n      swap1\n      0x0100\n      exp\n      swap1\n      div\n      0xff\n      and\n        /* \"Solidity/contracts/Project - Smart Wallet/SmartContractWallet.sol\":731:793  require(guardian[msg.sender], \"You are no guardian, aborting\") */\n      tag_71\n      jumpi\n      mload(0x40)\n      0x08c379a000000000000000000000000000000000000000000000000000000000\n      dup2\n      mstore\n      0x04\n      add\n      tag_72\n      swap1\n      tag_73\n      jump\t// in\n    tag_72:\n      mload(0x40)\n      dup1\n      swap2\n      sub\n      swap1\n      revert\n    tag_71:\n        /* \"Solidity/contracts/Project - Smart Wallet/SmartContractWallet.sol\":820:828  newOwner */\n      dup1\n        /* \"Solidity/contracts/Project - Smart Wallet/SmartContractWallet.sol\":807:828  nextOwner != newOwner */\n      0xffffffffffffffffffffffffffffffffffffffff\n      and\n        /* \"Solidity/contracts/Project - Smart Wallet/SmartContractWallet.sol\":807:816  nextOwner */\n      0x04\n      0x00\n      swap1\n      sload\n      swap1\n      0x0100\n      exp\n      swap1\n      div\n      0xffffffffffffffffffffffffffffffffffffffff\n      and\n        /* \"Solidity/contracts/Project - Smart Wallet/SmartContractWallet.sol\":807:828  nextOwner != newOwner */\n      0xffffffffffffffffffffffffffffffffffffffff\n      and\n      eq\n        /* \"Solidity/contracts/Project - Smart Wallet/SmartContractWallet.sol\":804:915  if(nextOwner != newOwner) {... */\n      tag_74\n      jumpi\n        /* \"Solidity/contracts/Project - Smart Wallet/SmartContractWallet.sol\":857:865  newOwner */\n      dup1\n        /* \"Solidity/contracts/Project - Smart Wallet/SmartContractWallet.sol\":845:854  nextOwner */\n      0x04\n      0x00\n        /* \"Solidity/contracts/Project - Smart Wallet/SmartContractWallet.sol\":845:865  nextOwner = newOwner */\n      0x0100\n      exp\n      dup2\n      sload\n      dup2\n      0xffffffffffffffffffffffffffffffffffffffff\n      mul\n      not\n      and\n      swap1\n      dup4\n      0xffffffffffffffffffffffffffffffffffffffff\n      and\n      mul\n      or\n      swap1\n      sstore\n      pop\n        /* \"Solidity/contracts/Project - Smart Wallet/SmartContractWallet.sol\":902:903  0 */\n      0x00\n        /* \"Solidity/contracts/Project - Smart Wallet/SmartContractWallet.sol\":880:899  guardiansResetCount */\n      0x05\n        /* \"Solidity/contracts/Project - Smart Wallet/SmartContractWallet.sol\":880:903  guardiansResetCount = 0 */\n      dup2\n      swap1\n      sstore\n      pop\n        /* \"Solidity/contracts/Project - Smart Wallet/SmartContractWallet.sol\":804:915  if(nextOwner != newOwner) {... */\n    tag_74:\n        /* \"Solidity/contracts/Project - Smart Wallet/SmartContractWallet.sol\":927:946  guardiansResetCount */\n      0x05\n      0x00\n        /* \"Solidity/contracts/Project - Smart Wallet/SmartContractWallet.sol\":927:948  guardiansResetCount++ */\n      dup2\n      sload\n      dup1\n      swap3\n      swap2\n      swap1\n      tag_75\n      swap1\n      tag_76\n      jump\t// in\n    tag_75:\n      swap2\n      swap1\n      pop\n      sstore\n      pop\n        /* \"Solidity/contracts/Project - Smart Wallet/SmartContractWallet.sol\":584:585  3 */\n      0x03\n        /* \"Solidity/contracts/Project - Smart Wallet/SmartContractWallet.sol\":964:983  guardiansResetCount */\n      sload(0x05)\n        /* \"Solidity/contracts/Project - Smart Wallet/SmartContractWallet.sol\":964:1021  guardiansResetCount >= confirmationsFromGuardiansForReset */\n      lt\n        /* \"Solidity/contracts/Project - Smart Wallet/SmartContractWallet.sol\":961:1113  if(guardiansResetCount >= confirmationsFromGuardiansForReset) {... */\n      tag_77\n      jumpi\n        /* \"Solidity/contracts/Project - Smart Wallet/SmartContractWallet.sol\":1046:1055  nextOwner */\n      0x04\n      0x00\n      swap1\n      sload\n      swap1\n      0x0100\n      exp\n      swap1\n      div\n      0xffffffffffffffffffffffffffffffffffffffff\n      and\n        /* \"Solidity/contracts/Project - Smart Wallet/SmartContractWallet.sol\":1038:1043  owner */\n      0x00\n      0x00\n        /* \"Solidity/contracts/Project - Smart Wallet/SmartContractWallet.sol\":1038:1055  owner = nextOwner */\n      0x0100\n      exp\n      dup2\n      sload\n      dup2\n      0xffffffffffffffffffffffffffffffffffffffff\n      mul\n      not\n      and\n      swap1\n      dup4\n      0xffffffffffffffffffffffffffffffffffffffff\n      and\n      mul\n      or\n      swap1\n      sstore\n      pop\n        /* \"Solidity/contracts/Project - Smart Wallet/SmartContractWallet.sol\":1098:1099  0 */\n      0x00\n        /* \"Solidity/contracts/Project - Smart Wallet/SmartContractWallet.sol\":1070:1079  nextOwner */\n      0x04\n      0x00\n        /* \"Solidity/contracts/Project - Smart Wallet/SmartContractWallet.sol\":1070:1101  nextOwner = payable(address(0)) */\n      0x0100\n      exp\n      dup2\n      sload\n      dup2\n      0xffffffffffffffffffffffffffffffffffffffff\n      mul\n      not\n      and\n      swap1\n      dup4\n      0xffffffffffffffffffffffffffffffffffffffff\n      and\n      mul\n      or\n      swap1\n      sstore\n      pop\n        /* \"Solidity/contracts/Project - Smart Wallet/SmartContractWallet.sol\":961:1113  if(guardiansResetCount >= confirmationsFromGuardiansForReset) {... */\n    tag_77:\n        /* \"Solidity/contracts/Project - Smart Wallet/SmartContractWallet.sol\":662:1120  function proposeNewOwner(address payable newOwner) public {... */\n      pop\n      jump\t// out\n        /* \"Solidity/contracts/Project - Smart Wallet/SmartContractWallet.sol\":1529:2247  function transfer(address payable _to, uint _amount, bytes memory payload) public returns (bytes memory) {... */\n    tag_55:\n        /* \"Solidity/contracts/Project - Smart Wallet/SmartContractWallet.sol\":1620:1632  bytes memory */\n      0x60\n        /* \"Solidity/contracts/Project - Smart Wallet/SmartContractWallet.sol\":1664:1685  address(this).balance */\n      selfbalance\n        /* \"Solidity/contracts/Project - Smart Wallet/SmartContractWallet.sol\":1653:1660  _amount */\n      dup4\n        /* \"Solidity/contracts/Project - Smart Wallet/SmartContractWallet.sol\":1653:1685  _amount <= address(this).balance */\n      gt\n      iszero\n        /* \"Solidity/contracts/Project - Smart Wallet/SmartContractWallet.sol\":1645:1739  require(_amount <= address(this).balance, \"Can't send more than the contract owns, aborting.\") */\n      tag_79\n      jumpi\n      mload(0x40)\n      0x08c379a000000000000000000000000000000000000000000000000000000000\n      dup2\n      mstore\n      0x04\n      add\n      tag_80\n      swap1\n      tag_81\n      jump\t// in\n    tag_80:\n      mload(0x40)\n      dup1\n      swap2\n      sub\n      swap1\n      revert\n    tag_79:\n        /* \"Solidity/contracts/Project - Smart Wallet/SmartContractWallet.sol\":1767:1772  owner */\n      0x00\n      0x00\n      swap1\n      sload\n      swap1\n      0x0100\n      exp\n      swap1\n      div\n      0xffffffffffffffffffffffffffffffffffffffff\n      and\n        /* \"Solidity/contracts/Project - Smart Wallet/SmartContractWallet.sol\":1753:1772  msg.sender != owner */\n      0xffffffffffffffffffffffffffffffffffffffff\n      and\n        /* \"Solidity/contracts/Project - Smart Wallet/SmartContractWallet.sol\":1753:1763  msg.sender */\n      caller\n        /* \"Solidity/contracts/Project - Smart Wallet/SmartContractWallet.sol\":1753:1772  msg.sender != owner */\n      0xffffffffffffffffffffffffffffffffffffffff\n      and\n      eq\n        /* \"Solidity/contracts/Project - Smart Wallet/SmartContractWallet.sol\":1750:2065  if(msg.sender != owner) {... */\n      tag_82\n      jumpi\n        /* \"Solidity/contracts/Project - Smart Wallet/SmartContractWallet.sol\":1797:1812  isAllowedToSend */\n      0x02\n        /* \"Solidity/contracts/Project - Smart Wallet/SmartContractWallet.sol\":1797:1824  isAllowedToSend[msg.sender] */\n      0x00\n        /* \"Solidity/contracts/Project - Smart Wallet/SmartContractWallet.sol\":1813:1823  msg.sender */\n      caller\n        /* \"Solidity/contracts/Project - Smart Wallet/SmartContractWallet.sol\":1797:1824  isAllowedToSend[msg.sender] */\n      0xffffffffffffffffffffffffffffffffffffffff\n      and\n      0xffffffffffffffffffffffffffffffffffffffff\n      and\n      dup2\n      mstore\n      0x20\n      add\n      swap1\n      dup2\n      mstore\n      0x20\n      add\n      0x00\n      keccak256\n      0x00\n      swap1\n      sload\n      swap1\n      0x0100\n      exp\n      swap1\n      div\n      0xff\n      and\n        /* \"Solidity/contracts/Project - Smart Wallet/SmartContractWallet.sol\":1789:1883  require(isAllowedToSend[msg.sender], \"You are not allowed to send any transactions, aborting\") */\n      tag_83\n      jumpi\n      mload(0x40)\n      0x08c379a000000000000000000000000000000000000000000000000000000000\n      dup2\n      mstore\n      0x04\n      add\n      tag_84\n      swap1\n      tag_85\n      jump\t// in\n    tag_84:\n      mload(0x40)\n      dup1\n      swap2\n      sub\n      swap1\n      revert\n    tag_83:\n        /* \"Solidity/contracts/Project - Smart Wallet/SmartContractWallet.sol\":1931:1938  _amount */\n      dup3\n        /* \"Solidity/contracts/Project - Smart Wallet/SmartContractWallet.sol\":1906:1915  allowance */\n      0x01\n        /* \"Solidity/contracts/Project - Smart Wallet/SmartContractWallet.sol\":1906:1927  allowance[msg.sender] */\n      0x00\n        /* \"Solidity/contracts/Project - Smart Wallet/SmartContractWallet.sol\":1916:1926  msg.sender */\n      caller\n        /* \"Solidity/contracts/Project - Smart Wallet/SmartContractWallet.sol\":1906:1927  allowance[msg.sender] */\n      0xffffffffffffffffffffffffffffffffffffffff\n      and\n      0xffffffffffffffffffffffffffffffffffffffff\n      and\n      dup2\n      mstore\n      0x20\n      add\n      swap1\n      dup2\n      mstore\n      0x20\n      add\n      0x00\n      keccak256\n      sload\n        /* \"Solidity/contracts/Project - Smart Wallet/SmartContractWallet.sol\":1906:1938  allowance[msg.sender] >= _amount */\n      lt\n      iszero\n        /* \"Solidity/contracts/Project - Smart Wallet/SmartContractWallet.sol\":1898:2004  require(allowance[msg.sender] >= _amount, \"You are trying to send more than you are allowed to, aborting\") */\n      tag_86\n      jumpi\n      mload(0x40)\n      0x08c379a000000000000000000000000000000000000000000000000000000000\n      dup2\n      mstore\n      0x04\n      add\n      tag_87\n      swap1\n      tag_88\n      jump\t// in\n    tag_87:\n      mload(0x40)\n      dup1\n      swap2\n      sub\n      swap1\n      revert\n    tag_86:\n        /* \"Solidity/contracts/Project - Smart Wallet/SmartContractWallet.sol\":2044:2051  _amount */\n      dup3\n        /* \"Solidity/contracts/Project - Smart Wallet/SmartContractWallet.sol\":2019:2028  allowance */\n      0x01\n        /* \"Solidity/contracts/Project - Smart Wallet/SmartContractWallet.sol\":2019:2040  allowance[msg.sender] */\n      0x00\n        /* \"Solidity/contracts/Project - Smart Wallet/SmartContractWallet.sol\":2029:2039  msg.sender */\n      caller\n        /* \"Solidity/contracts/Project - Smart Wallet/SmartContractWallet.sol\":2019:2040  allowance[msg.sender] */\n      0xffffffffffffffffffffffffffffffffffffffff\n      and\n      0xffffffffffffffffffffffffffffffffffffffff\n      and\n      dup2\n      mstore\n      0x20\n      add\n      swap1\n      dup2\n      mstore\n      0x20\n      add\n      0x00\n      keccak256\n      0x00\n        /* \"Solidity/contracts/Project - Smart Wallet/SmartContractWallet.sol\":2019:2051  allowance[msg.sender] -= _amount */\n      dup3\n      dup3\n      sload\n      tag_89\n      swap2\n      swap1\n      tag_90\n      jump\t// in\n    tag_89:\n      swap3\n      pop\n      pop\n      dup2\n      swap1\n      sstore\n      pop\n        /* \"Solidity/contracts/Project - Smart Wallet/SmartContractWallet.sol\":1750:2065  if(msg.sender != owner) {... */\n    tag_82:\n        /* \"Solidity/contracts/Project - Smart Wallet/SmartContractWallet.sol\":2078:2090  bool success */\n      0x00\n        /* \"Solidity/contracts/Project - Smart Wallet/SmartContractWallet.sol\":2092:2115  bytes memory returnData */\n      0x00\n        /* \"Solidity/contracts/Project - Smart Wallet/SmartContractWallet.sol\":2119:2122  _to */\n      dup6\n        /* \"Solidity/contracts/Project - Smart Wallet/SmartContractWallet.sol\":2119:2127  _to.call */\n      0xffffffffffffffffffffffffffffffffffffffff\n      and\n        /* \"Solidity/contracts/Project - Smart Wallet/SmartContractWallet.sol\":2135:2142  _amount */\n      dup6\n        /* \"Solidity/contracts/Project - Smart Wallet/SmartContractWallet.sol\":2144:2151  payload */\n      dup6\n        /* \"Solidity/contracts/Project - Smart Wallet/SmartContractWallet.sol\":2119:2152  _to.call{value: _amount}(payload) */\n      mload(0x40)\n      tag_91\n      swap2\n      swap1\n      tag_92\n      jump\t// in\n    tag_91:\n      0x00\n      mload(0x40)\n      dup1\n      dup4\n      sub\n      dup2\n      dup6\n      dup8\n      gas\n      call\n      swap3\n      pop\n      pop\n      pop\n      returndatasize\n      dup1\n      0x00\n      dup2\n      eq\n      tag_95\n      jumpi\n      mload(0x40)\n      swap2\n      pop\n      and(add(returndatasize, 0x3f), not(0x1f))\n      dup3\n      add\n      0x40\n      mstore\n      returndatasize\n      dup3\n      mstore\n      returndatasize\n      0x00\n      0x20\n      dup5\n      add\n      returndatacopy\n      jump(tag_94)\n    tag_95:\n      0x60\n      swap2\n      pop\n    tag_94:\n      pop\n        /* \"Solidity/contracts/Project - Smart Wallet/SmartContractWallet.sol\":2077:2152  (bool success, bytes memory returnData) = _to.call{value: _amount}(payload) */\n      swap2\n      pop\n      swap2\n      pop\n        /* \"Solidity/contracts/Project - Smart Wallet/SmartContractWallet.sol\":2171:2178  success */\n      dup2\n        /* \"Solidity/contracts/Project - Smart Wallet/SmartContractWallet.sol\":2163:2211  require(success, \"Transaction failed, aborting\") */\n      tag_96\n      jumpi\n      mload(0x40)\n      0x08c379a000000000000000000000000000000000000000000000000000000000\n      dup2\n      mstore\n      0x04\n      add\n      tag_97\n      swap1\n      tag_98\n      jump\t// in\n    tag_97:\n      mload(0x40)\n      dup1\n      swap2\n      sub\n      swap1\n      revert\n    tag_96:\n        /* \"Solidity/contracts/Project - Smart Wallet/SmartContractWallet.sol\":2229:2239  returnData */\n      dup1\n        /* \"Solidity/contracts/Project - Smart Wallet/SmartContractWallet.sol\":2222:2239  return returnData */\n      swap3\n      pop\n      pop\n      pop\n        /* \"Solidity/contracts/Project - Smart Wallet/SmartContractWallet.sol\":1529:2247  function transfer(address payable _to, uint _amount, bytes memory payload) public returns (bytes memory) {... */\n      swap4\n      swap3\n      pop\n      pop\n      pop\n      jump\t// out\n        /* \"Solidity/contracts/Project - Smart Wallet/SmartContractWallet.sol\":416:456  mapping(address => bool) public guardian */\n    tag_61:\n      mstore(0x20, 0x03)\n      dup1\n      0x00\n      mstore\n      keccak256(0x00, 0x40)\n      0x00\n      swap2\n      pop\n      sload\n      swap1\n      0x0100\n      exp\n      swap1\n      div\n      0xff\n      and\n      dup2\n      jump\t// out\n        /* \"#utility.yul\":7:82   */\n    tag_99:\n        /* \"#utility.yul\":40:46   */\n      0x00\n        /* \"#utility.yul\":73:75   */\n      0x40\n        /* \"#utility.yul\":67:76   */\n      mload\n        /* \"#utility.yul\":57:76   */\n      swap1\n      pop\n        /* \"#utility.yul\":7:82   */\n      swap1\n      jump\t// out\n        /* \"#utility.yul\":88:205   */\n    tag_100:\n        /* \"#utility.yul\":197:198   */\n      0x00\n        /* \"#utility.yul\":194:195   */\n      0x00\n        /* \"#utility.yul\":187:199   */\n      revert\n        /* \"#utility.yul\":211:328   */\n    tag_101:\n        /* \"#utility.yul\":320:321   */\n      0x00\n        /* \"#utility.yul\":317:318   */\n      0x00\n        /* \"#utility.yul\":310:322   */\n      revert\n        /* \"#utility.yul\":334:460   */\n    tag_102:\n        /* \"#utility.yul\":371:378   */\n      0x00\n        /* \"#utility.yul\":411:453   */\n      0xffffffffffffffffffffffffffffffffffffffff\n        /* \"#utility.yul\":404:409   */\n      dup3\n        /* \"#utility.yul\":400:454   */\n      and\n        /* \"#utility.yul\":389:454   */\n      swap1\n      pop\n        /* \"#utility.yul\":334:460   */\n      swap2\n      swap1\n      pop\n      jump\t// out\n        /* \"#utility.yul\":466:562   */\n    tag_103:\n        /* \"#utility.yul\":503:510   */\n      0x00\n        /* \"#utility.yul\":532:556   */\n      tag_152\n        /* \"#utility.yul\":550:555   */\n      dup3\n        /* \"#utility.yul\":532:556   */\n      tag_102\n      jump\t// in\n    tag_152:\n        /* \"#utility.yul\":521:556   */\n      swap1\n      pop\n        /* \"#utility.yul\":466:562   */\n      swap2\n      swap1\n      pop\n      jump\t// out\n        /* \"#utility.yul\":568:690   */\n    tag_104:\n        /* \"#utility.yul\":641:665   */\n      tag_154\n        /* \"#utility.yul\":659:664   */\n      dup2\n        /* \"#utility.yul\":641:665   */\n      tag_103\n      jump\t// in\n    tag_154:\n        /* \"#utility.yul\":634:639   */\n      dup2\n        /* \"#utility.yul\":631:666   */\n      eq\n        /* \"#utility.yul\":621:684   */\n      tag_155\n      jumpi\n        /* \"#utility.yul\":680:681   */\n      0x00\n        /* \"#utility.yul\":677:678   */\n      0x00\n        /* \"#utility.yul\":670:682   */\n      revert\n        /* \"#utility.yul\":621:684   */\n    tag_155:\n        /* \"#utility.yul\":568:690   */\n      pop\n      jump\t// out\n        /* \"#utility.yul\":696:835   */\n    tag_105:\n        /* \"#utility.yul\":742:747   */\n      0x00\n        /* \"#utility.yul\":780:786   */\n      dup2\n        /* \"#utility.yul\":767:787   */\n      calldataload\n        /* \"#utility.yul\":758:787   */\n      swap1\n      pop\n        /* \"#utility.yul\":796:829   */\n      tag_157\n        /* \"#utility.yul\":823:828   */\n      dup2\n        /* \"#utility.yul\":796:829   */\n      tag_104\n      jump\t// in\n    tag_157:\n        /* \"#utility.yul\":696:835   */\n      swap3\n      swap2\n      pop\n      pop\n      jump\t// out\n        /* \"#utility.yul\":841:1170   */\n    tag_18:\n        /* \"#utility.yul\":900:906   */\n      0x00\n        /* \"#utility.yul\":949:951   */\n      0x20\n        /* \"#utility.yul\":937:946   */\n      dup3\n        /* \"#utility.yul\":928:935   */\n      dup5\n        /* \"#utility.yul\":924:947   */\n      sub\n        /* \"#utility.yul\":920:952   */\n      slt\n        /* \"#utility.yul\":917:1036   */\n      iszero\n      tag_159\n      jumpi\n        /* \"#utility.yul\":955:1034   */\n      tag_160\n      tag_100\n      jump\t// in\n    tag_160:\n        /* \"#utility.yul\":917:1036   */\n    tag_159:\n        /* \"#utility.yul\":1075:1076   */\n      0x00\n        /* \"#utility.yul\":1100:1153   */\n      tag_161\n        /* \"#utility.yul\":1145:1152   */\n      dup5\n        /* \"#utility.yul\":1136:1142   */\n      dup3\n        /* \"#utility.yul\":1125:1134   */\n      dup6\n        /* \"#utility.yul\":1121:1143   */\n      add\n        /* \"#utility.yul\":1100:1153   */\n      tag_105\n      jump\t// in\n    tag_161:\n        /* \"#utility.yul\":1090:1153   */\n      swap2\n      pop\n        /* \"#utility.yul\":1046:1163   */\n      pop\n        /* \"#utility.yul\":841:1170   */\n      swap3\n      swap2\n      pop\n      pop\n      jump\t// out\n        /* \"#utility.yul\":1176:1266   */\n    tag_106:\n        /* \"#utility.yul\":1210:1217   */\n      0x00\n        /* \"#utility.yul\":1253:1258   */\n      dup2\n        /* \"#utility.yul\":1246:1259   */\n      iszero\n        /* \"#utility.yul\":1239:1260   */\n      iszero\n        /* \"#utility.yul\":1228:1260   */\n      swap1\n      pop\n        /* \"#utility.yul\":1176:1266   */\n      swap2\n      swap1\n      pop\n      jump\t// out\n        /* \"#utility.yul\":1272:1381   */\n    tag_107:\n        /* \"#utility.yul\":1353:1374   */\n      tag_164\n        /* \"#utility.yul\":1368:1373   */\n      dup2\n        /* \"#utility.yul\":1353:1374   */\n      tag_106\n      jump\t// in\n    tag_164:\n        /* \"#utility.yul\":1348:1351   */\n      dup3\n        /* \"#utility.yul\":1341:1375   */\n      mstore\n        /* \"#utility.yul\":1272:1381   */\n      pop\n      pop\n      jump\t// out\n        /* \"#utility.yul\":1387:1597   */\n    tag_21:\n        /* \"#utility.yul\":1474:1478   */\n      0x00\n        /* \"#utility.yul\":1512:1514   */\n      0x20\n        /* \"#utility.yul\":1501:1510   */\n      dup3\n        /* \"#utility.yul\":1497:1515   */\n      add\n        /* \"#utility.yul\":1489:1515   */\n      swap1\n      pop\n        /* \"#utility.yul\":1525:1590   */\n      tag_166\n        /* \"#utility.yul\":1587:1588   */\n      0x00\n        /* \"#utility.yul\":1576:1585   */\n      dup4\n        /* \"#utility.yul\":1572:1589   */\n      add\n        /* \"#utility.yul\":1563:1569   */\n      dup5\n        /* \"#utility.yul\":1525:1590   */\n      tag_107\n      jump\t// in\n    tag_166:\n        /* \"#utility.yul\":1387:1597   */\n      swap3\n      swap2\n      pop\n      pop\n      jump\t// out\n        /* \"#utility.yul\":1603:1680   */\n    tag_108:\n        /* \"#utility.yul\":1640:1647   */\n      0x00\n        /* \"#utility.yul\":1669:1674   */\n      dup2\n        /* \"#utility.yul\":1658:1674   */\n      swap1\n      pop\n        /* \"#utility.yul\":1603:1680   */\n      swap2\n      swap1\n      pop\n      jump\t// out\n        /* \"#utility.yul\":1686:1808   */\n    tag_109:\n        /* \"#utility.yul\":1759:1783   */\n      tag_169\n        /* \"#utility.yul\":1777:1782   */\n      dup2\n        /* \"#utility.yul\":1759:1783   */\n      tag_108\n      jump\t// in\n    tag_169:\n        /* \"#utility.yul\":1752:1757   */\n      dup2\n        /* \"#utility.yul\":1749:1784   */\n      eq\n        /* \"#utility.yul\":1739:1802   */\n      tag_170\n      jumpi\n        /* \"#utility.yul\":1798:1799   */\n      0x00\n        /* \"#utility.yul\":1795:1796   */\n      0x00\n        /* \"#utility.yul\":1788:1800   */\n      revert\n        /* \"#utility.yul\":1739:1802   */\n    tag_170:\n        /* \"#utility.yul\":1686:1808   */\n      pop\n      jump\t// out\n        /* \"#utility.yul\":1814:1953   */\n    tag_110:\n        /* \"#utility.yul\":1860:1865   */\n      0x00\n        /* \"#utility.yul\":1898:1904   */\n      dup2\n        /* \"#utility.yul\":1885:1905   */\n      calldataload\n        /* \"#utility.yul\":1876:1905   */\n      swap1\n      pop\n        /* \"#utility.yul\":1914:1947   */\n      tag_172\n        /* \"#utility.yul\":1941:1946   */\n      dup2\n        /* \"#utility.yul\":1914:1947   */\n      tag_109\n      jump\t// in\n    tag_172:\n        /* \"#utility.yul\":1814:1953   */\n      swap3\n      swap2\n      pop\n      pop\n      jump\t// out\n        /* \"#utility.yul\":1959:2433   */\n    tag_25:\n        /* \"#utility.yul\":2027:2033   */\n      0x00\n        /* \"#utility.yul\":2035:2041   */\n      0x00\n        /* \"#utility.yul\":2084:2086   */\n      0x40\n        /* \"#utility.yul\":2072:2081   */\n      dup4\n        /* \"#utility.yul\":2063:2070   */\n      dup6\n        /* \"#utility.yul\":2059:2082   */\n      sub\n        /* \"#utility.yul\":2055:2087   */\n      slt\n        /* \"#utility.yul\":2052:2171   */\n      iszero\n      tag_174\n      jumpi\n        /* \"#utility.yul\":2090:2169   */\n      tag_175\n      tag_100\n      jump\t// in\n    tag_175:\n        /* \"#utility.yul\":2052:2171   */\n    tag_174:\n        /* \"#utility.yul\":2210:2211   */\n      0x00\n        /* \"#utility.yul\":2235:2288   */\n      tag_176\n        /* \"#utility.yul\":2280:2287   */\n      dup6\n        /* \"#utility.yul\":2271:2277   */\n      dup3\n        /* \"#utility.yul\":2260:2269   */\n      dup7\n        /* \"#utility.yul\":2256:2278   */\n      add\n        /* \"#utility.yul\":2235:2288   */\n      tag_105\n      jump\t// in\n    tag_176:\n        /* \"#utility.yul\":2225:2288   */\n      swap3\n      pop\n        /* \"#utility.yul\":2181:2298   */\n      pop\n        /* \"#utility.yul\":2337:2339   */\n      0x20\n        /* \"#utility.yul\":2363:2416   */\n      tag_177\n        /* \"#utility.yul\":2408:2415   */\n      dup6\n        /* \"#utility.yul\":2399:2405   */\n      dup3\n        /* \"#utility.yul\":2388:2397   */\n      dup7\n        /* \"#utility.yul\":2384:2406   */\n      add\n        /* \"#utility.yul\":2363:2416   */\n      tag_110\n      jump\t// in\n    tag_177:\n        /* \"#utility.yul\":2353:2416   */\n      swap2\n      pop\n        /* \"#utility.yul\":2308:2426   */\n      pop\n        /* \"#utility.yul\":1959:2433   */\n      swap3\n      pop\n      swap3\n      swap1\n      pop\n      jump\t// out\n        /* \"#utility.yul\":2439:2557   */\n    tag_111:\n        /* \"#utility.yul\":2526:2550   */\n      tag_179\n        /* \"#utility.yul\":2544:2549   */\n      dup2\n        /* \"#utility.yul\":2526:2550   */\n      tag_108\n      jump\t// in\n    tag_179:\n        /* \"#utility.yul\":2521:2524   */\n      dup3\n        /* \"#utility.yul\":2514:2551   */\n      mstore\n        /* \"#utility.yul\":2439:2557   */\n      pop\n      pop\n      jump\t// out\n        /* \"#utility.yul\":2563:2785   */\n    tag_32:\n        /* \"#utility.yul\":2656:2660   */\n      0x00\n        /* \"#utility.yul\":2694:2696   */\n      0x20\n        /* \"#utility.yul\":2683:2692   */\n      dup3\n        /* \"#utility.yul\":2679:2697   */\n      add\n        /* \"#utility.yul\":2671:2697   */\n      swap1\n      pop\n        /* \"#utility.yul\":2707:2778   */\n      tag_181\n        /* \"#utility.yul\":2775:2776   */\n      0x00\n        /* \"#utility.yul\":2764:2773   */\n      dup4\n        /* \"#utility.yul\":2760:2777   */\n      add\n        /* \"#utility.yul\":2751:2757   */\n      dup5\n        /* \"#utility.yul\":2707:2778   */\n      tag_111\n      jump\t// in\n    tag_181:\n        /* \"#utility.yul\":2563:2785   */\n      swap3\n      swap2\n      pop\n      pop\n      jump\t// out\n        /* \"#utility.yul\":2791:2895   */\n    tag_112:\n        /* \"#utility.yul\":2836:2843   */\n      0x00\n        /* \"#utility.yul\":2865:2889   */\n      tag_183\n        /* \"#utility.yul\":2883:2888   */\n      dup3\n        /* \"#utility.yul\":2865:2889   */\n      tag_102\n      jump\t// in\n    tag_183:\n        /* \"#utility.yul\":2854:2889   */\n      swap1\n      pop\n        /* \"#utility.yul\":2791:2895   */\n      swap2\n      swap1\n      pop\n      jump\t// out\n        /* \"#utility.yul\":2901:3043   */\n    tag_113:\n        /* \"#utility.yul\":3004:3036   */\n      tag_185\n        /* \"#utility.yul\":3030:3035   */\n      dup2\n        /* \"#utility.yul\":3004:3036   */\n      tag_112\n      jump\t// in\n    tag_185:\n        /* \"#utility.yul\":2999:3002   */\n      dup3\n        /* \"#utility.yul\":2992:3037   */\n      mstore\n        /* \"#utility.yul\":2901:3043   */\n      pop\n      pop\n      jump\t// out\n        /* \"#utility.yul\":3049:3303   */\n    tag_45:\n        /* \"#utility.yul\":3158:3162   */\n      0x00\n        /* \"#utility.yul\":3196:3198   */\n      0x20\n        /* \"#utility.yul\":3185:3194   */\n      dup3\n        /* \"#utility.yul\":3181:3199   */\n      add\n        /* \"#utility.yul\":3173:3199   */\n      swap1\n      pop\n        /* \"#utility.yul\":3209:3296   */\n      tag_187\n        /* \"#utility.yul\":3293:3294   */\n      0x00\n        /* \"#utility.yul\":3282:3291   */\n      dup4\n        /* \"#utility.yul\":3278:3295   */\n      add\n        /* \"#utility.yul\":3269:3275   */\n      dup5\n        /* \"#utility.yul\":3209:3296   */\n      tag_113\n      jump\t// in\n    tag_187:\n        /* \"#utility.yul\":3049:3303   */\n      swap3\n      swap2\n      pop\n      pop\n      jump\t// out\n        /* \"#utility.yul\":3309:3447   */\n    tag_114:\n        /* \"#utility.yul\":3390:3422   */\n      tag_189\n        /* \"#utility.yul\":3416:3421   */\n      dup2\n        /* \"#utility.yul\":3390:3422   */\n      tag_112\n      jump\t// in\n    tag_189:\n        /* \"#utility.yul\":3383:3388   */\n      dup2\n        /* \"#utility.yul\":3380:3423   */\n      eq\n        /* \"#utility.yul\":3370:3441   */\n      tag_190\n      jumpi\n        /* \"#utility.yul\":3437:3438   */\n      0x00\n        /* \"#utility.yul\":3434:3435   */\n      0x00\n        /* \"#utility.yul\":3427:3439   */\n      revert\n        /* \"#utility.yul\":3370:3441   */\n    tag_190:\n        /* \"#utility.yul\":3309:3447   */\n      pop\n      jump\t// out\n        /* \"#utility.yul\":3453:3608   */\n    tag_115:\n        /* \"#utility.yul\":3507:3512   */\n      0x00\n        /* \"#utility.yul\":3545:3551   */\n      dup2\n        /* \"#utility.yul\":3532:3552   */\n      calldataload\n        /* \"#utility.yul\":3523:3552   */\n      swap1\n      pop\n        /* \"#utility.yul\":3561:3602   */\n      tag_192\n        /* \"#utility.yul\":3596:3601   */\n      dup2\n        /* \"#utility.yul\":3561:3602   */\n      tag_114\n      jump\t// in\n    tag_192:\n        /* \"#utility.yul\":3453:3608   */\n      swap3\n      swap2\n      pop\n      pop\n      jump\t// out\n        /* \"#utility.yul\":3614:3959   */\n    tag_49:\n        /* \"#utility.yul\":3681:3687   */\n      0x00\n        /* \"#utility.yul\":3730:3732   */\n      0x20\n        /* \"#utility.yul\":3718:3727   */\n      dup3\n        /* \"#utility.yul\":3709:3716   */\n      dup5\n        /* \"#utility.yul\":3705:3728   */\n      sub\n        /* \"#utility.yul\":3701:3733   */\n      slt\n        /* \"#utility.yul\":3698:3817   */\n      iszero\n      tag_194\n      jumpi\n        /* \"#utility.yul\":3736:3815   */\n      tag_195\n      tag_100\n      jump\t// in\n    tag_195:\n        /* \"#utility.yul\":3698:3817   */\n    tag_194:\n        /* \"#utility.yul\":3856:3857   */\n      0x00\n        /* \"#utility.yul\":3881:3942   */\n      tag_196\n        /* \"#utility.yul\":3934:3941   */\n      dup5\n        /* \"#utility.yul\":3925:3931   */\n      dup3\n        /* \"#utility.yul\":3914:3923   */\n      dup6\n        /* \"#utility.yul\":3910:3932   */\n      add\n        /* \"#utility.yul\":3881:3942   */\n      tag_115\n      jump\t// in\n    tag_196:\n        /* \"#utility.yul\":3871:3942   */\n      swap2\n      pop\n        /* \"#utility.yul\":3827:3952   */\n      pop\n        /* \"#utility.yul\":3614:3959   */\n      swap3\n      swap2\n      pop\n      pop\n      jump\t// out\n        /* \"#utility.yul\":3965:4082   */\n    tag_116:\n        /* \"#utility.yul\":4074:4075   */\n      0x00\n        /* \"#utility.yul\":4071:4072   */\n      0x00\n        /* \"#utility.yul\":4064:4076   */\n      revert\n        /* \"#utility.yul\":4088:4205   */\n    tag_117:\n        /* \"#utility.yul\":4197:4198   */\n      0x00\n        /* \"#utility.yul\":4194:4195   */\n      0x00\n        /* \"#utility.yul\":4187:4199   */\n      revert\n        /* \"#utility.yul\":4211:4313   */\n    tag_118:\n        /* \"#utility.yul\":4252:4258   */\n      0x00\n        /* \"#utility.yul\":4303:4305   */\n      0x1f\n        /* \"#utility.yul\":4299:4306   */\n      not\n        /* \"#utility.yul\":4294:4296   */\n      0x1f\n        /* \"#utility.yul\":4287:4292   */\n      dup4\n        /* \"#utility.yul\":4283:4297   */\n      add\n        /* \"#utility.yul\":4279:4307   */\n      and\n        /* \"#utility.yul\":4269:4307   */\n      swap1\n      pop\n        /* \"#utility.yul\":4211:4313   */\n      swap2\n      swap1\n      pop\n      jump\t// out\n        /* \"#utility.yul\":4319:4499   */\n    tag_119:\n        /* \"#utility.yul\":4367:4444   */\n      0x4e487b7100000000000000000000000000000000000000000000000000000000\n        /* \"#utility.yul\":4364:4365   */\n      0x00\n        /* \"#utility.yul\":4357:4445   */\n      mstore\n        /* \"#utility.yul\":4464:4468   */\n      0x41\n        /* \"#utility.yul\":4461:4462   */\n      0x04\n        /* \"#utility.yul\":4454:4469   */\n      mstore\n        /* \"#utility.yul\":4488:4492   */\n      0x24\n        /* \"#utility.yul\":4485:4486   */\n      0x00\n        /* \"#utility.yul\":4478:4493   */\n      revert\n        /* \"#utility.yul\":4505:4786   */\n    tag_120:\n        /* \"#utility.yul\":4588:4615   */\n      tag_202\n        /* \"#utility.yul\":4610:4614   */\n      dup3\n        /* \"#utility.yul\":4588:4615   */\n      tag_118\n      jump\t// in\n    tag_202:\n        /* \"#utility.yul\":4580:4586   */\n      dup2\n        /* \"#utility.yul\":4576:4616   */\n      add\n        /* \"#utility.yul\":4718:4724   */\n      dup2\n        /* \"#utility.yul\":4706:4716   */\n      dup2\n        /* \"#utility.yul\":4703:4725   */\n      lt\n        /* \"#utility.yul\":4682:4700   */\n      0xffffffffffffffff\n        /* \"#utility.yul\":4670:4680   */\n      dup3\n        /* \"#utility.yul\":4667:4701   */\n      gt\n        /* \"#utility.yul\":4664:4726   */\n      or\n        /* \"#utility.yul\":4661:4749   */\n      iszero\n      tag_203\n      jumpi\n        /* \"#utility.yul\":4729:4747   */\n      tag_204\n      tag_119\n      jump\t// in\n    tag_204:\n        /* \"#utility.yul\":4661:4749   */\n    tag_203:\n        /* \"#utility.yul\":4769:4779   */\n      dup1\n        /* \"#utility.yul\":4765:4767   */\n      0x40\n        /* \"#utility.yul\":4758:4780   */\n      mstore\n        /* \"#utility.yul\":4548:4786   */\n      pop\n        /* \"#utility.yul\":4505:4786   */\n      pop\n      pop\n      jump\t// out\n        /* \"#utility.yul\":4792:4921   */\n    tag_121:\n        /* \"#utility.yul\":4826:4832   */\n      0x00\n        /* \"#utility.yul\":4853:4873   */\n      tag_206\n      tag_99\n      jump\t// in\n    tag_206:\n        /* \"#utility.yul\":4843:4873   */\n      swap1\n      pop\n        /* \"#utility.yul\":4882:4915   */\n      tag_207\n        /* \"#utility.yul\":4910:4914   */\n      dup3\n        /* \"#utility.yul\":4902:4908   */\n      dup3\n        /* \"#utility.yul\":4882:4915   */\n      tag_120\n      jump\t// in\n    tag_207:\n        /* \"#utility.yul\":4792:4921   */\n      swap2\n      swap1\n      pop\n      jump\t// out\n        /* \"#utility.yul\":4927:5234   */\n    tag_122:\n        /* \"#utility.yul\":4988:4992   */\n      0x00\n        /* \"#utility.yul\":5078:5096   */\n      0xffffffffffffffff\n        /* \"#utility.yul\":5070:5076   */\n      dup3\n        /* \"#utility.yul\":5067:5097   */\n      gt\n        /* \"#utility.yul\":5064:5120   */\n      iszero\n      tag_209\n      jumpi\n        /* \"#utility.yul\":5100:5118   */\n      tag_210\n      tag_119\n      jump\t// in\n    tag_210:\n        /* \"#utility.yul\":5064:5120   */\n    tag_209:\n        /* \"#utility.yul\":5138:5167   */\n      tag_211\n        /* \"#utility.yul\":5160:5166   */\n      dup3\n        /* \"#utility.yul\":5138:5167   */\n      tag_118\n      jump\t// in\n    tag_211:\n        /* \"#utility.yul\":5130:5167   */\n      swap1\n      pop\n        /* \"#utility.yul\":5222:5226   */\n      0x20\n        /* \"#utility.yul\":5216:5220   */\n      dup2\n        /* \"#utility.yul\":5212:5227   */\n      add\n        /* \"#utility.yul\":5204:5227   */\n      swap1\n      pop\n        /* \"#utility.yul\":4927:5234   */\n      swap2\n      swap1\n      pop\n      jump\t// out\n        /* \"#utility.yul\":5240:5388   */\n    tag_123:\n        /* \"#utility.yul\":5338:5344   */\n      dup3\n        /* \"#utility.yul\":5333:5336   */\n      dup2\n        /* \"#utility.yul\":5328:5331   */\n      dup4\n        /* \"#utility.yul\":5315:5345   */\n      calldatacopy\n        /* \"#utility.yul\":5379:5380   */\n      0x00\n        /* \"#utility.yul\":5370:5376   */\n      dup4\n        /* \"#utility.yul\":5365:5368   */\n      dup4\n        /* \"#utility.yul\":5361:5377   */\n      add\n        /* \"#utility.yul\":5354:5381   */\n      mstore\n        /* \"#utility.yul\":5240:5388   */\n      pop\n      pop\n      pop\n      jump\t// out\n        /* \"#utility.yul\":5394:5817   */\n    tag_124:\n        /* \"#utility.yul\":5471:5476   */\n      0x00\n        /* \"#utility.yul\":5496:5561   */\n      tag_214\n        /* \"#utility.yul\":5512:5560   */\n      tag_215\n        /* \"#utility.yul\":5553:5559   */\n      dup5\n        /* \"#utility.yul\":5512:5560   */\n      tag_122\n      jump\t// in\n    tag_215:\n        /* \"#utility.yul\":5496:5561   */\n      tag_121\n      jump\t// in\n    tag_214:\n        /* \"#utility.yul\":5487:5561   */\n      swap1\n      pop\n        /* \"#utility.yul\":5584:5590   */\n      dup3\n        /* \"#utility.yul\":5577:5582   */\n      dup2\n        /* \"#utility.yul\":5570:5591   */\n      mstore\n        /* \"#utility.yul\":5622:5626   */\n      0x20\n        /* \"#utility.yul\":5615:5620   */\n      dup2\n        /* \"#utility.yul\":5611:5627   */\n      add\n        /* \"#utility.yul\":5660:5663   */\n      dup5\n        /* \"#utility.yul\":5651:5657   */\n      dup5\n        /* \"#utility.yul\":5646:5649   */\n      dup5\n        /* \"#utility.yul\":5642:5658   */\n      add\n        /* \"#utility.yul\":5639:5664   */\n      gt\n        /* \"#utility.yul\":5636:5748   */\n      iszero\n      tag_216\n      jumpi\n        /* \"#utility.yul\":5667:5746   */\n      tag_217\n      tag_117\n      jump\t// in\n    tag_217:\n        /* \"#utility.yul\":5636:5748   */\n    tag_216:\n        /* \"#utility.yul\":5757:5811   */\n      tag_218\n        /* \"#utility.yul\":5804:5810   */\n      dup5\n        /* \"#utility.yul\":5799:5802   */\n      dup3\n        /* \"#utility.yul\":5794:5797   */\n      dup6\n        /* \"#utility.yul\":5757:5811   */\n      tag_123\n      jump\t// in\n    tag_218:\n        /* \"#utility.yul\":5477:5817   */\n      pop\n        /* \"#utility.yul\":5394:5817   */\n      swap4\n      swap3\n      pop\n      pop\n      pop\n      jump\t// out\n        /* \"#utility.yul\":5836:6174   */\n    tag_125:\n        /* \"#utility.yul\":5891:5896   */\n      0x00\n        /* \"#utility.yul\":5940:5943   */\n      dup3\n        /* \"#utility.yul\":5933:5937   */\n      0x1f\n        /* \"#utility.yul\":5925:5931   */\n      dup4\n        /* \"#utility.yul\":5921:5938   */\n      add\n        /* \"#utility.yul\":5917:5944   */\n      slt\n        /* \"#utility.yul\":5907:6029   */\n      tag_220\n      jumpi\n        /* \"#utility.yul\":5948:6027   */\n      tag_221\n      tag_116\n      jump\t// in\n    tag_221:\n        /* \"#utility.yul\":5907:6029   */\n    tag_220:\n        /* \"#utility.yul\":6065:6071   */\n      dup2\n        /* \"#utility.yul\":6052:6072   */\n      calldataload\n        /* \"#utility.yul\":6090:6168   */\n      tag_222\n        /* \"#utility.yul\":6164:6167   */\n      dup5\n        /* \"#utility.yul\":6156:6162   */\n      dup3\n        /* \"#utility.yul\":6149:6153   */\n      0x20\n        /* \"#utility.yul\":6141:6147   */\n      dup7\n        /* \"#utility.yul\":6137:6154   */\n      add\n        /* \"#utility.yul\":6090:6168   */\n      tag_124\n      jump\t// in\n    tag_222:\n        /* \"#utility.yul\":6081:6168   */\n      swap2\n      pop\n        /* \"#utility.yul\":5897:6174   */\n      pop\n        /* \"#utility.yul\":5836:6174   */\n      swap3\n      swap2\n      pop\n      pop\n      jump\t// out\n        /* \"#utility.yul\":6180:6993   */\n    tag_54:\n        /* \"#utility.yul\":6274:6280   */\n      0x00\n        /* \"#utility.yul\":6282:6288   */\n      0x00\n        /* \"#utility.yul\":6290:6296   */\n      0x00\n        /* \"#utility.yul\":6339:6341   */\n      0x60\n        /* \"#utility.yul\":6327:6336   */\n      dup5\n        /* \"#utility.yul\":6318:6325   */\n      dup7\n        /* \"#utility.yul\":6314:6337   */\n      sub\n        /* \"#utility.yul\":6310:6342   */\n      slt\n        /* \"#utility.yul\":6307:6426   */\n      iszero\n      tag_224\n      jumpi\n        /* \"#utility.yul\":6345:6424   */\n      tag_225\n      tag_100\n      jump\t// in\n    tag_225:\n        /* \"#utility.yul\":6307:6426   */\n    tag_224:\n        /* \"#utility.yul\":6465:6466   */\n      0x00\n        /* \"#utility.yul\":6490:6551   */\n      tag_226\n        /* \"#utility.yul\":6543:6550   */\n      dup7\n        /* \"#utility.yul\":6534:6540   */\n      dup3\n        /* \"#utility.yul\":6523:6532   */\n      dup8\n        /* \"#utility.yul\":6519:6541   */\n      add\n        /* \"#utility.yul\":6490:6551   */\n      tag_115\n      jump\t// in\n    tag_226:\n        /* \"#utility.yul\":6480:6551   */\n      swap4\n      pop\n        /* \"#utility.yul\":6436:6561   */\n      pop\n        /* \"#utility.yul\":6600:6602   */\n      0x20\n        /* \"#utility.yul\":6626:6679   */\n      tag_227\n        /* \"#utility.yul\":6671:6678   */\n      dup7\n        /* \"#utility.yul\":6662:6668   */\n      dup3\n        /* \"#utility.yul\":6651:6660   */\n      dup8\n        /* \"#utility.yul\":6647:6669   */\n      add\n        /* \"#utility.yul\":6626:6679   */\n      tag_110\n      jump\t// in\n    tag_227:\n        /* \"#utility.yul\":6616:6679   */\n      swap3\n      pop\n        /* \"#utility.yul\":6571:6689   */\n      pop\n        /* \"#utility.yul\":6756:6758   */\n      0x40\n        /* \"#utility.yul\":6745:6754   */\n      dup5\n        /* \"#utility.yul\":6741:6759   */\n      add\n        /* \"#utility.yul\":6728:6760   */\n      calldataload\n        /* \"#utility.yul\":6787:6805   */\n      0xffffffffffffffff\n        /* \"#utility.yul\":6779:6785   */\n      dup2\n        /* \"#utility.yul\":6776:6806   */\n      gt\n        /* \"#utility.yul\":6773:6890   */\n      iszero\n      tag_228\n      jumpi\n        /* \"#utility.yul\":6809:6888   */\n      tag_229\n      tag_101\n      jump\t// in\n    tag_229:\n        /* \"#utility.yul\":6773:6890   */\n    tag_228:\n        /* \"#utility.yul\":6914:6976   */\n      tag_230\n        /* \"#utility.yul\":6968:6975   */\n      dup7\n        /* \"#utility.yul\":6959:6965   */\n      dup3\n        /* \"#utility.yul\":6948:6957   */\n      dup8\n        /* \"#utility.yul\":6944:6966   */\n      add\n        /* \"#utility.yul\":6914:6976   */\n      tag_125\n      jump\t// in\n    tag_230:\n        /* \"#utility.yul\":6904:6976   */\n      swap2\n      pop\n        /* \"#utility.yul\":6699:6986   */\n      pop\n        /* \"#utility.yul\":6180:6993   */\n      swap3\n      pop\n      swap3\n      pop\n      swap3\n      jump\t// out\n        /* \"#utility.yul\":6999:7097   */\n    tag_126:\n        /* \"#utility.yul\":7050:7056   */\n      0x00\n        /* \"#utility.yul\":7084:7089   */\n      dup2\n        /* \"#utility.yul\":7078:7090   */\n      mload\n        /* \"#utility.yul\":7068:7090   */\n      swap1\n      pop\n        /* \"#utility.yul\":6999:7097   */\n      swap2\n      swap1\n      pop\n      jump\t// out\n        /* \"#utility.yul\":7103:7271   */\n    tag_127:\n        /* \"#utility.yul\":7186:7197   */\n      0x00\n        /* \"#utility.yul\":7220:7226   */\n      dup3\n        /* \"#utility.yul\":7215:7218   */\n      dup3\n        /* \"#utility.yul\":7208:7227   */\n      mstore\n        /* \"#utility.yul\":7260:7264   */\n      0x20\n        /* \"#utility.yul\":7255:7258   */\n      dup3\n        /* \"#utility.yul\":7251:7265   */\n      add\n        /* \"#utility.yul\":7236:7265   */\n      swap1\n      pop\n        /* \"#utility.yul\":7103:7271   */\n      swap3\n      swap2\n      pop\n      pop\n      jump\t// out\n        /* \"#utility.yul\":7277:7416   */\n    tag_128:\n        /* \"#utility.yul\":7366:7372   */\n      dup3\n        /* \"#utility.yul\":7361:7364   */\n      dup2\n        /* \"#utility.yul\":7356:7359   */\n      dup4\n        /* \"#utility.yul\":7350:7373   */\n      mcopy\n        /* \"#utility.yul\":7407:7408   */\n      0x00\n        /* \"#utility.yul\":7398:7404   */\n      dup4\n        /* \"#utility.yul\":7393:7396   */\n      dup4\n        /* \"#utility.yul\":7389:7405   */\n      add\n        /* \"#utility.yul\":7382:7409   */\n      mstore\n        /* \"#utility.yul\":7277:7416   */\n      pop\n      pop\n      pop\n      jump\t// out\n        /* \"#utility.yul\":7422:7795   */\n    tag_129:\n        /* \"#utility.yul\":7508:7511   */\n      0x00\n        /* \"#utility.yul\":7536:7574   */\n      tag_235\n        /* \"#utility.yul\":7568:7573   */\n      dup3\n        /* \"#utility.yul\":7536:7574   */\n      tag_126\n      jump\t// in\n    tag_235:\n        /* \"#utility.yul\":7590:7660   */\n      tag_236\n        /* \"#utility.yul\":7653:7659   */\n      dup2\n        /* \"#utility.yul\":7648:7651   */\n      dup6\n        /* \"#utility.yul\":7590:7660   */\n      tag_127\n      jump\t// in\n    tag_236:\n        /* \"#utility.yul\":7583:7660   */\n      swap4\n      pop\n        /* \"#utility.yul\":7669:7734   */\n      tag_237\n        /* \"#utility.yul\":7727:7733   */\n      dup2\n        /* \"#utility.yul\":7722:7725   */\n      dup6\n        /* \"#utility.yul\":7715:7719   */\n      0x20\n        /* \"#utility.yul\":7708:7713   */\n      dup7\n        /* \"#utility.yul\":7704:7720   */\n      add\n        /* \"#utility.yul\":7669:7734   */\n      tag_128\n      jump\t// in\n    tag_237:\n        /* \"#utility.yul\":7759:7788   */\n      tag_238\n        /* \"#utility.yul\":7781:7787   */\n      dup2\n        /* \"#utility.yul\":7759:7788   */\n      tag_118\n      jump\t// in\n    tag_238:\n        /* \"#utility.yul\":7754:7757   */\n      dup5\n        /* \"#utility.yul\":7750:7789   */\n      add\n        /* \"#utility.yul\":7743:7789   */\n      swap2\n      pop\n        /* \"#utility.yul\":7512:7795   */\n      pop\n        /* \"#utility.yul\":7422:7795   */\n      swap3\n      swap2\n      pop\n      pop\n      jump\t// out\n        /* \"#utility.yul\":7801:8110   */\n    tag_57:\n        /* \"#utility.yul\":7912:7916   */\n      0x00\n        /* \"#utility.yul\":7950:7952   */\n      0x20\n        /* \"#utility.yul\":7939:7948   */\n      dup3\n        /* \"#utility.yul\":7935:7953   */\n      add\n        /* \"#utility.yul\":7927:7953   */\n      swap1\n      pop\n        /* \"#utility.yul\":7999:8008   */\n      dup2\n        /* \"#utility.yul\":7993:7997   */\n      dup2\n        /* \"#utility.yul\":7989:8009   */\n      sub\n        /* \"#utility.yul\":7985:7986   */\n      0x00\n        /* \"#utility.yul\":7974:7983   */\n      dup4\n        /* \"#utility.yul\":7970:7987   */\n      add\n        /* \"#utility.yul\":7963:8010   */\n      mstore\n        /* \"#utility.yul\":8027:8103   */\n      tag_240\n        /* \"#utility.yul\":8098:8102   */\n      dup2\n        /* \"#utility.yul\":8089:8095   */\n      dup5\n        /* \"#utility.yul\":8027:8103   */\n      tag_129\n      jump\t// in\n    tag_240:\n        /* \"#utility.yul\":8019:8103   */\n      swap1\n      pop\n        /* \"#utility.yul\":7801:8110   */\n      swap3\n      swap2\n      pop\n      pop\n      jump\t// out\n        /* \"#utility.yul\":8116:8285   */\n    tag_130:\n        /* \"#utility.yul\":8200:8211   */\n      0x00\n        /* \"#utility.yul\":8234:8240   */\n      dup3\n        /* \"#utility.yul\":8229:8232   */\n      dup3\n        /* \"#utility.yul\":8222:8241   */\n      mstore\n        /* \"#utility.yul\":8274:8278   */\n      0x20\n        /* \"#utility.yul\":8269:8272   */\n      dup3\n        /* \"#utility.yul\":8265:8279   */\n      add\n        /* \"#utility.yul\":8250:8279   */\n      swap1\n      pop\n        /* \"#utility.yul\":8116:8285   */\n      swap3\n      swap2\n      pop\n      pop\n      jump\t// out\n        /* \"#utility.yul\":8291:8473   */\n    tag_131:\n        /* \"#utility.yul\":8431:8465   */\n      0x596f7520617265206e6f7420746865206f776e65722c2061626f7274696e6721\n        /* \"#utility.yul\":8427:8428   */\n      0x00\n        /* \"#utility.yul\":8419:8425   */\n      dup3\n        /* \"#utility.yul\":8415:8429   */\n      add\n        /* \"#utility.yul\":8408:8466   */\n      mstore\n        /* \"#utility.yul\":8291:8473   */\n      pop\n      jump\t// out\n        /* \"#utility.yul\":8479:8845   */\n    tag_132:\n        /* \"#utility.yul\":8621:8624   */\n      0x00\n        /* \"#utility.yul\":8642:8709   */\n      tag_244\n        /* \"#utility.yul\":8706:8708   */\n      0x20\n        /* \"#utility.yul\":8701:8704   */\n      dup4\n        /* \"#utility.yul\":8642:8709   */\n      tag_130\n      jump\t// in\n    tag_244:\n        /* \"#utility.yul\":8635:8709   */\n      swap2\n      pop\n        /* \"#utility.yul\":8718:8811   */\n      tag_245\n        /* \"#utility.yul\":8807:8810   */\n      dup3\n        /* \"#utility.yul\":8718:8811   */\n      tag_131\n      jump\t// in\n    tag_245:\n        /* \"#utility.yul\":8836:8838   */\n      0x20\n        /* \"#utility.yul\":8831:8834   */\n      dup3\n        /* \"#utility.yul\":8827:8839   */\n      add\n        /* \"#utility.yul\":8820:8839   */\n      swap1\n      pop\n        /* \"#utility.yul\":8479:8845   */\n      swap2\n      swap1\n      pop\n      jump\t// out\n        /* \"#utility.yul\":8851:9270   */\n    tag_66:\n        /* \"#utility.yul\":9017:9021   */\n      0x00\n        /* \"#utility.yul\":9055:9057   */\n      0x20\n        /* \"#utility.yul\":9044:9053   */\n      dup3\n        /* \"#utility.yul\":9040:9058   */\n      add\n        /* \"#utility.yul\":9032:9058   */\n      swap1\n      pop\n        /* \"#utility.yul\":9104:9113   */\n      dup2\n        /* \"#utility.yul\":9098:9102   */\n      dup2\n        /* \"#utility.yul\":9094:9114   */\n      sub\n        /* \"#utility.yul\":9090:9091   */\n      0x00\n        /* \"#utility.yul\":9079:9088   */\n      dup4\n        /* \"#utility.yul\":9075:9092   */\n      add\n        /* \"#utility.yul\":9068:9115   */\n      mstore\n        /* \"#utility.yul\":9132:9263   */\n      tag_247\n        /* \"#utility.yul\":9258:9262   */\n      dup2\n        /* \"#utility.yul\":9132:9263   */\n      tag_132\n      jump\t// in\n    tag_247:\n        /* \"#utility.yul\":9124:9263   */\n      swap1\n      pop\n        /* \"#utility.yul\":8851:9270   */\n      swap2\n      swap1\n      pop\n      jump\t// out\n        /* \"#utility.yul\":9276:9455   */\n    tag_133:\n        /* \"#utility.yul\":9416:9447   */\n      0x596f7520617265206e6f20677561726469616e2c2061626f7274696e67000000\n        /* \"#utility.yul\":9412:9413   */\n      0x00\n        /* \"#utility.yul\":9404:9410   */\n      dup3\n        /* \"#utility.yul\":9400:9414   */\n      add\n        /* \"#utility.yul\":9393:9448   */\n      mstore\n        /* \"#utility.yul\":9276:9455   */\n      pop\n      jump\t// out\n        /* \"#utility.yul\":9461:9827   */\n    tag_134:\n        /* \"#utility.yul\":9603:9606   */\n      0x00\n        /* \"#utility.yul\":9624:9691   */\n      tag_250\n        /* \"#utility.yul\":9688:9690   */\n      0x1d\n        /* \"#utility.yul\":9683:9686   */\n      dup4\n        /* \"#utility.yul\":9624:9691   */\n      tag_130\n      jump\t// in\n    tag_250:\n        /* \"#utility.yul\":9617:9691   */\n      swap2\n      pop\n        /* \"#utility.yul\":9700:9793   */\n      tag_251\n        /* \"#utility.yul\":9789:9792   */\n      dup3\n        /* \"#utility.yul\":9700:9793   */\n      tag_133\n      jump\t// in\n    tag_251:\n        /* \"#utility.yul\":9818:9820   */\n      0x20\n        /* \"#utility.yul\":9813:9816   */\n      dup3\n        /* \"#utility.yul\":9809:9821   */\n      add\n        /* \"#utility.yul\":9802:9821   */\n      swap1\n      pop\n        /* \"#utility.yul\":9461:9827   */\n      swap2\n      swap1\n      pop\n      jump\t// out\n        /* \"#utility.yul\":9833:10252   */\n    tag_73:\n        /* \"#utility.yul\":9999:10003   */\n      0x00\n        /* \"#utility.yul\":10037:10039   */\n      0x20\n        /* \"#utility.yul\":10026:10035   */\n      dup3\n        /* \"#utility.yul\":10022:10040   */\n      add\n        /* \"#utility.yul\":10014:10040   */\n      swap1\n      pop\n        /* \"#utility.yul\":10086:10095   */\n      dup2\n        /* \"#utility.yul\":10080:10084   */\n      dup2\n        /* \"#utility.yul\":10076:10096   */\n      sub\n        /* \"#utility.yul\":10072:10073   */\n      0x00\n        /* \"#utility.yul\":10061:10070   */\n      dup4\n        /* \"#utility.yul\":10057:10074   */\n      add\n        /* \"#utility.yul\":10050:10097   */\n      mstore\n        /* \"#utility.yul\":10114:10245   */\n      tag_253\n        /* \"#utility.yul\":10240:10244   */\n      dup2\n        /* \"#utility.yul\":10114:10245   */\n      tag_134\n      jump\t// in\n    tag_253:\n        /* \"#utility.yul\":10106:10245   */\n      swap1\n      pop\n        /* \"#utility.yul\":9833:10252   */\n      swap2\n      swap1\n      pop\n      jump\t// out\n        /* \"#utility.yul\":10258:10438   */\n    tag_135:\n        /* \"#utility.yul\":10306:10383   */\n      0x4e487b7100000000000000000000000000000000000000000000000000000000\n        /* \"#utility.yul\":10303:10304   */\n      0x00\n        /* \"#utility.yul\":10296:10384   */\n      mstore\n        /* \"#utility.yul\":10403:10407   */\n      0x11\n        /* \"#utility.yul\":10400:10401   */\n      0x04\n        /* \"#utility.yul\":10393:10408   */\n      mstore\n        /* \"#utility.yul\":10427:10431   */\n      0x24\n        /* \"#utility.yul\":10424:10425   */\n      0x00\n        /* \"#utility.yul\":10417:10432   */\n      revert\n        /* \"#utility.yul\":10444:10677   */\n    tag_76:\n        /* \"#utility.yul\":10483:10486   */\n      0x00\n        /* \"#utility.yul\":10506:10530   */\n      tag_256\n        /* \"#utility.yul\":10524:10529   */\n      dup3\n        /* \"#utility.yul\":10506:10530   */\n      tag_108\n      jump\t// in\n    tag_256:\n        /* \"#utility.yul\":10497:10530   */\n      swap2\n      pop\n        /* \"#utility.yul\":10552:10618   */\n      0xffffffffffffffffffffffffffffffffffffffffffffffffffffffffffffffff\n        /* \"#utility.yul\":10545:10550   */\n      dup3\n        /* \"#utility.yul\":10542:10619   */\n      sub\n        /* \"#utility.yul\":10539:10642   */\n      tag_257\n      jumpi\n        /* \"#utility.yul\":10622:10640   */\n      tag_258\n      tag_135\n      jump\t// in\n    tag_258:\n        /* \"#utility.yul\":10539:10642   */\n    tag_257:\n        /* \"#utility.yul\":10669:10670   */\n      0x01\n        /* \"#utility.yul\":10662:10667   */\n      dup3\n        /* \"#utility.yul\":10658:10671   */\n      add\n        /* \"#utility.yul\":10651:10671   */\n      swap1\n      pop\n        /* \"#utility.yul\":10444:10677   */\n      swap2\n      swap1\n      pop\n      jump\t// out\n        /* \"#utility.yul\":10683:10919   */\n    tag_136:\n        /* \"#utility.yul\":10823:10857   */\n      0x43616e27742073656e64206d6f7265207468616e2074686520636f6e74726163\n        /* \"#utility.yul\":10819:10820   */\n      0x00\n        /* \"#utility.yul\":10811:10817   */\n      dup3\n        /* \"#utility.yul\":10807:10821   */\n      add\n        /* \"#utility.yul\":10800:10858   */\n      mstore\n        /* \"#utility.yul\":10892:10911   */\n      0x74206f776e732c2061626f7274696e672e000000000000000000000000000000\n        /* \"#utility.yul\":10887:10889   */\n      0x20\n        /* \"#utility.yul\":10879:10885   */\n      dup3\n        /* \"#utility.yul\":10875:10890   */\n      add\n        /* \"#utility.yul\":10868:10912   */\n      mstore\n        /* \"#utility.yul\":10683:10919   */\n      pop\n      jump\t// out\n        /* \"#utility.yul\":10925:11291   */\n    tag_137:\n        /* \"#utility.yul\":11067:11070   */\n      0x00\n        /* \"#utility.yul\":11088:11155   */\n      tag_261\n        /* \"#utility.yul\":11152:11154   */\n      0x31\n        /* \"#utility.yul\":11147:11150   */\n      dup4\n        /* \"#utility.yul\":11088:11155   */\n      tag_130\n      jump\t// in\n    tag_261:\n        /* \"#utility.yul\":11081:11155   */\n      swap2\n      pop\n        /* \"#utility.yul\":11164:11257   */\n      tag_262\n        /* \"#utility.yul\":11253:11256   */\n      dup3\n        /* \"#utility.yul\":11164:11257   */\n      tag_136\n      jump\t// in\n    tag_262:\n        /* \"#utility.yul\":11282:11284   */\n      0x40\n        /* \"#utility.yul\":11277:11280   */\n      dup3\n        /* \"#utility.yul\":11273:11285   */\n      add\n        /* \"#utility.yul\":11266:11285   */\n      swap1\n      pop\n        /* \"#utility.yul\":10925:11291   */\n      swap2\n      swap1\n      pop\n      jump\t// out\n        /* \"#utility.yul\":11297:11716   */\n    tag_81:\n        /* \"#utility.yul\":11463:11467   */\n      0x00\n        /* \"#utility.yul\":11501:11503   */\n      0x20\n        /* \"#utility.yul\":11490:11499   */\n      dup3\n        /* \"#utility.yul\":11486:11504   */\n      add\n        /* \"#utility.yul\":11478:11504   */\n      swap1\n      pop\n        /* \"#utility.yul\":11550:11559   */\n      dup2\n        /* \"#utility.yul\":11544:11548   */\n      dup2\n        /* \"#utility.yul\":11540:11560   */\n      sub\n        /* \"#utility.yul\":11536:11537   */\n      0x00\n        /* \"#utility.yul\":11525:11534   */\n      dup4\n        /* \"#utility.yul\":11521:11538   */\n      add\n        /* \"#utility.yul\":11514:11561   */\n      mstore\n        /* \"#utility.yul\":11578:11709   */\n      tag_264\n        /* \"#utility.yul\":11704:11708   */\n      dup2\n        /* \"#utility.yul\":11578:11709   */\n      tag_137\n      jump\t// in\n    tag_264:\n        /* \"#utility.yul\":11570:11709   */\n      swap1\n      pop\n        /* \"#utility.yul\":11297:11716   */\n      swap2\n      swap1\n      pop\n      jump\t// out\n        /* \"#utility.yul\":11722:11963   */\n    tag_138:\n        /* \"#utility.yul\":11862:11896   */\n      0x596f7520617265206e6f7420616c6c6f77656420746f2073656e6420616e7920\n        /* \"#utility.yul\":11858:11859   */\n      0x00\n        /* \"#utility.yul\":11850:11856   */\n      dup3\n        /* \"#utility.yul\":11846:11860   */\n      add\n        /* \"#utility.yul\":11839:11897   */\n      mstore\n        /* \"#utility.yul\":11931:11955   */\n      0x7472616e73616374696f6e732c2061626f7274696e6700000000000000000000\n        /* \"#utility.yul\":11926:11928   */\n      0x20\n        /* \"#utility.yul\":11918:11924   */\n      dup3\n        /* \"#utility.yul\":11914:11929   */\n      add\n        /* \"#utility.yul\":11907:11956   */\n      mstore\n        /* \"#utility.yul\":11722:11963   */\n      pop\n      jump\t// out\n        /* \"#utility.yul\":11969:12335   */\n    tag_139:\n        /* \"#utility.yul\":12111:12114   */\n      0x00\n        /* \"#utility.yul\":12132:12199   */\n      tag_267\n        /* \"#utility.yul\":12196:12198   */\n      0x36\n        /* \"#utility.yul\":12191:12194   */\n      dup4\n        /* \"#utility.yul\":12132:12199   */\n      tag_130\n      jump\t// in\n    tag_267:\n        /* \"#utility.yul\":12125:12199   */\n      swap2\n      pop\n        /* \"#utility.yul\":12208:12301   */\n      tag_268\n        /* \"#utility.yul\":12297:12300   */\n      dup3\n        /* \"#utility.yul\":12208:12301   */\n      tag_138\n      jump\t// in\n    tag_268:\n        /* \"#utility.yul\":12326:12328   */\n      0x40\n        /* \"#utility.yul\":12321:12324   */\n      dup3\n        /* \"#utility.yul\":12317:12329   */\n      add\n        /* \"#utility.yul\":12310:12329   */\n      swap1\n      pop\n        /* \"#utility.yul\":11969:12335   */\n      swap2\n      swap1\n      pop\n      jump\t// out\n        /* \"#utility.yul\":12341:12760   */\n    tag_85:\n        /* \"#utility.yul\":12507:12511   */\n      0x00\n        /* \"#utility.yul\":12545:12547   */\n      0x20\n        /* \"#utility.yul\":12534:12543   */\n      dup3\n        /* \"#utility.yul\":12530:12548   */\n      add\n        /* \"#utility.yul\":12522:12548   */\n      swap1\n      pop\n        /* \"#utility.yul\":12594:12603   */\n      dup2\n        /* \"#utility.yul\":12588:12592   */\n      dup2\n        /* \"#utility.yul\":12584:12604   */\n      sub\n        /* \"#utility.yul\":12580:12581   */\n      0x00\n        /* \"#utility.yul\":12569:12578   */\n      dup4\n        /* \"#utility.yul\":12565:12582   */\n      add\n        /* \"#utility.yul\":12558:12605   */\n      mstore\n        /* \"#utility.yul\":12622:12753   */\n      tag_270\n        /* \"#utility.yul\":12748:12752   */\n      dup2\n        /* \"#utility.yul\":12622:12753   */\n      tag_139\n      jump\t// in\n    tag_270:\n        /* \"#utility.yul\":12614:12753   */\n      swap1\n      pop\n        /* \"#utility.yul\":12341:12760   */\n      swap2\n      swap1\n      pop\n      jump\t// out\n        /* \"#utility.yul\":12766:13014   */\n    tag_140:\n        /* \"#utility.yul\":12906:12940   */\n      0x596f752061726520747279696e6720746f2073656e64206d6f7265207468616e\n        /* \"#utility.yul\":12902:12903   */\n      0x00\n        /* \"#utility.yul\":12894:12900   */\n      dup3\n        /* \"#utility.yul\":12890:12904   */\n      add\n        /* \"#utility.yul\":12883:12941   */\n      mstore\n        /* \"#utility.yul\":12975:13006   */\n      0x20796f752061726520616c6c6f77656420746f2c2061626f7274696e67000000\n        /* \"#utility.yul\":12970:12972   */\n      0x20\n        /* \"#utility.yul\":12962:12968   */\n      dup3\n        /* \"#utility.yul\":12958:12973   */\n      add\n        /* \"#utility.yul\":12951:13007   */\n      mstore\n        /* \"#utility.yul\":12766:13014   */\n      pop\n      jump\t// out\n        /* \"#utility.yul\":13020:13386   */\n    tag_141:\n        /* \"#utility.yul\":13162:13165   */\n      0x00\n        /* \"#utility.yul\":13183:13250   */\n      tag_273\n        /* \"#utility.yul\":13247:13249   */\n      0x3d\n        /* \"#utility.yul\":13242:13245   */\n      dup4\n        /* \"#utility.yul\":13183:13250   */\n      tag_130\n      jump\t// in\n    tag_273:\n        /* \"#utility.yul\":13176:13250   */\n      swap2\n      pop\n        /* \"#utility.yul\":13259:13352   */\n      tag_274\n        /* \"#utility.yul\":13348:13351   */\n      dup3\n        /* \"#utility.yul\":13259:13352   */\n      tag_140\n      jump\t// in\n    tag_274:\n        /* \"#utility.yul\":13377:13379   */\n      0x40\n        /* \"#utility.yul\":13372:13375   */\n      dup3\n        /* \"#utility.yul\":13368:13380   */\n      add\n        /* \"#utility.yul\":13361:13380   */\n      swap1\n      pop\n        /* \"#utility.yul\":13020:13386   */\n      swap2\n      swap1\n      pop\n      jump\t// out\n        /* \"#utility.yul\":13392:13811   */\n    tag_88:\n        /* \"#utility.yul\":13558:13562   */\n      0x00\n        /* \"#utility.yul\":13596:13598   */\n      0x20\n        /* \"#utility.yul\":13585:13594   */\n      dup3\n        /* \"#utility.yul\":13581:13599   */\n      add\n        /* \"#utility.yul\":13573:13599   */\n      swap1\n      pop\n        /* \"#utility.yul\":13645:13654   */\n      dup2\n        /* \"#utility.yul\":13639:13643   */\n      dup2\n        /* \"#utility.yul\":13635:13655   */\n      sub\n        /* \"#utility.yul\":13631:13632   */\n      0x00\n        /* \"#utility.yul\":13620:13629   */\n      dup4\n        /* \"#utility.yul\":13616:13633   */\n      add\n        /* \"#utility.yul\":13609:13656   */\n      mstore\n        /* \"#utility.yul\":13673:13804   */\n      tag_276\n        /* \"#utility.yul\":13799:13803   */\n      dup2\n        /* \"#utility.yul\":13673:13804   */\n      tag_141\n      jump\t// in\n    tag_276:\n        /* \"#utility.yul\":13665:13804   */\n      swap1\n      pop\n        /* \"#utility.yul\":13392:13811   */\n      swap2\n      swap1\n      pop\n      jump\t// out\n        /* \"#utility.yul\":13817:14011   */\n    tag_90:\n        /* \"#utility.yul\":13857:13861   */\n      0x00\n        /* \"#utility.yul\":13877:13897   */\n      tag_278\n        /* \"#utility.yul\":13895:13896   */\n      dup3\n        /* \"#utility.yul\":13877:13897   */\n      tag_108\n      jump\t// in\n    tag_278:\n        /* \"#utility.yul\":13872:13897   */\n      swap2\n      pop\n        /* \"#utility.yul\":13911:13931   */\n      tag_279\n        /* \"#utility.yul\":13929:13930   */\n      dup4\n        /* \"#utility.yul\":13911:13931   */\n      tag_108\n      jump\t// in\n    tag_279:\n        /* \"#utility.yul\":13906:13931   */\n      swap3\n      pop\n        /* \"#utility.yul\":13955:13956   */\n      dup3\n        /* \"#utility.yul\":13952:13953   */\n      dup3\n        /* \"#utility.yul\":13948:13957   */\n      sub\n        /* \"#utility.yul\":13940:13957   */\n      swap1\n      pop\n        /* \"#utility.yul\":13979:13980   */\n      dup2\n        /* \"#utility.yul\":13973:13977   */\n      dup2\n        /* \"#utility.yul\":13970:13981   */\n      gt\n        /* \"#utility.yul\":13967:14004   */\n      iszero\n      tag_280\n      jumpi\n        /* \"#utility.yul\":13984:14002   */\n      tag_281\n      tag_135\n      jump\t// in\n    tag_281:\n        /* \"#utility.yul\":13967:14004   */\n    tag_280:\n        /* \"#utility.yul\":13817:14011   */\n      swap3\n      swap2\n      pop\n      pop\n      jump\t// out\n        /* \"#utility.yul\":14017:14164   */\n    tag_142:\n        /* \"#utility.yul\":14118:14129   */\n      0x00\n        /* \"#utility.yul\":14155:14158   */\n      dup2\n        /* \"#utility.yul\":14140:14158   */\n      swap1\n      pop\n        /* \"#utility.yul\":14017:14164   */\n      swap3\n      swap2\n      pop\n      pop\n      jump\t// out\n        /* \"#utility.yul\":14170:14556   */\n    tag_143:\n        /* \"#utility.yul\":14274:14277   */\n      0x00\n        /* \"#utility.yul\":14302:14340   */\n      tag_284\n        /* \"#utility.yul\":14334:14339   */\n      dup3\n        /* \"#utility.yul\":14302:14340   */\n      tag_126\n      jump\t// in\n    tag_284:\n        /* \"#utility.yul\":14356:14444   */\n      tag_285\n        /* \"#utility.yul\":14437:14443   */\n      dup2\n        /* \"#utility.yul\":14432:14435   */\n      dup6\n        /* \"#utility.yul\":14356:14444   */\n      tag_142\n      jump\t// in\n    tag_285:\n        /* \"#utility.yul\":14349:14444   */\n      swap4\n      pop\n        /* \"#utility.yul\":14453:14518   */\n      tag_286\n        /* \"#utility.yul\":14511:14517   */\n      dup2\n        /* \"#utility.yul\":14506:14509   */\n      dup6\n        /* \"#utility.yul\":14499:14503   */\n      0x20\n        /* \"#utility.yul\":14492:14497   */\n      dup7\n        /* \"#utility.yul\":14488:14504   */\n      add\n        /* \"#utility.yul\":14453:14518   */\n      tag_128\n      jump\t// in\n    tag_286:\n        /* \"#utility.yul\":14543:14549   */\n      dup1\n        /* \"#utility.yul\":14538:14541   */\n      dup5\n        /* \"#utility.yul\":14534:14550   */\n      add\n        /* \"#utility.yul\":14527:14550   */\n      swap2\n      pop\n        /* \"#utility.yul\":14278:14556   */\n      pop\n        /* \"#utility.yul\":14170:14556   */\n      swap3\n      swap2\n      pop\n      pop\n      jump\t// out\n        /* \"#utility.yul\":14562:14833   */\n    tag_92:\n        /* \"#utility.yul\":14692:14695   */\n      0x00\n        /* \"#utility.yul\":14714:14807   */\n      tag_288\n        /* \"#utility.yul\":14803:14806   */\n      dup3\n        /* \"#utility.yul\":14794:14800   */\n      dup5\n        /* \"#utility.yul\":14714:14807   */\n      tag_143\n      jump\t// in\n    tag_288:\n        /* \"#utility.yul\":14707:14807   */\n      swap2\n      pop\n        /* \"#utility.yul\":14824:14827   */\n      dup2\n        /* \"#utility.yul\":14817:14827   */\n      swap1\n      pop\n        /* \"#utility.yul\":14562:14833   */\n      swap3\n      swap2\n      pop\n      pop\n      jump\t// out\n        /* \"#utility.yul\":14839:15017   */\n    tag_144:\n        /* \"#utility.yul\":14979:15009   */\n      0x5472616e73616374696f6e206661696c65642c2061626f7274696e6700000000\n        /* \"#utility.yul\":14975:14976   */\n      0x00\n        /* \"#utility.yul\":14967:14973   */\n      dup3\n        /* \"#utility.yul\":14963:14977   */\n      add\n        /* \"#utility.yul\":14956:15010   */\n      mstore\n        /* \"#utility.yul\":14839:15017   */\n      pop\n      jump\t// out\n        /* \"#utility.yul\":15023:15389   */\n    tag_145:\n        /* \"#utility.yul\":15165:15168   */\n      0x00\n        /* \"#utility.yul\":15186:15253   */\n      tag_291\n        /* \"#utility.yul\":15250:15252   */\n      0x1c\n        /* \"#utility.yul\":15245:15248   */\n      dup4\n        /* \"#utility.yul\":15186:15253   */\n      tag_130\n      jump\t// in\n    tag_291:\n        /* \"#utility.yul\":15179:15253   */\n      swap2\n      pop\n        /* \"#utility.yul\":15262:15355   */\n      tag_292\n        /* \"#utility.yul\":15351:15354   */\n      dup3\n        /* \"#utility.yul\":15262:15355   */\n      tag_144\n      jump\t// in\n    tag_292:\n        /* \"#utility.yul\":15380:15382   */\n      0x20\n        /* \"#utility.yul\":15375:15378   */\n      dup3\n        /* \"#utility.yul\":15371:15383   */\n      add\n        /* \"#utility.yul\":15364:15383   */\n      swap1\n      pop\n        /* \"#utility.yul\":15023:15389   */\n      swap2\n      swap1\n      pop\n      jump\t// out\n        /* \"#utility.yul\":15395:15814   */\n    tag_98:\n        /* \"#utility.yul\":15561:15565   */\n      0x00\n        /* \"#utility.yul\":15599:15601   */\n      0x20\n        /* \"#utility.yul\":15588:15597   */\n      dup3\n        /* \"#utility.yul\":15584:15602   */\n      add\n        /* \"#utility.yul\":15576:15602   */\n      swap1\n      pop\n        /* \"#utility.yul\":15648:15657   */\n      dup2\n        /* \"#utility.yul\":15642:15646   */\n      dup2\n        /* \"#utility.yul\":15638:15658   */\n      sub\n        /* \"#utility.yul\":15634:15635   */\n      0x00\n        /* \"#utility.yul\":15623:15632   */\n      dup4\n        /* \"#utility.yul\":15619:15636   */\n      add\n        /* \"#utility.yul\":15612:15659   */\n      mstore\n        /* \"#utility.yul\":15676:15807   */\n      tag_294\n        /* \"#utility.yul\":15802:15806   */\n      dup2\n        /* \"#utility.yul\":15676:15807   */\n      tag_145\n      jump\t// in\n    tag_294:\n        /* \"#utility.yul\":15668:15807   */\n      swap1\n      pop\n        /* \"#utility.yul\":15395:15814   */\n      swap2\n      swap1\n      pop\n      jump\t// out\n\n    auxdata: 0xa264697066735822122014d7f393152dd513727bfcbe6ae3b59a59347cd8aa1dc0a5b7521ea92347682a64736f6c634300081c0033\n}\n",
				"bytecode": {
					"linkReferences": {},
					"object": "6080604052348015600e575f5ffd5b50335f5f6101000a81548173ffffffffffffffffffffffffffffffffffffffff021916908373ffffffffffffffffffffffffffffffffffffffff1602179055506111a48061005b5f395ff3fe608060405260043610610089575f3560e01c806383012be11161005857806383012be11461015c5780638da5cb5b14610186578063b1f8100d146101b0578063be45fd62146101d8578063f29e22361461021457610090565b80630bc605ad14610094578063310ec4a7146100d05780633e5beab9146100f85780637673de531461013457610090565b3661009057005b5f5ffd5b34801561009f575f5ffd5b506100ba60048036038101906100b591906109d8565b610250565b6040516100c79190610a1d565b60405180910390f35b3480156100db575f5ffd5b506100f660048036038101906100f19190610a69565b61026d565b005b348015610103575f5ffd5b5061011e600480360381019061011991906109d8565b610396565b60405161012b9190610ab6565b60405180910390f35b34801561013f575f5ffd5b5061015a600480360381019061015591906109d8565b6103ab565b005b348015610167575f5ffd5b50610170610490565b60405161017d9190610ab6565b60405180910390f35b348015610191575f5ffd5b5061019a610495565b6040516101a79190610aef565b60405180910390f35b3480156101bb575f5ffd5b506101d660048036038101906101d19190610b32565b6104b9565b005b3480156101e3575f5ffd5b506101fe60048036038101906101f99190610c99565b6106a3565b60405161020b9190610d65565b60405180910390f35b34801561021f575f5ffd5b5061023a600480360381019061023591906109d8565b610950565b6040516102479190610a1d565b60405180910390f35b6002602052805f5260405f205f915054906101000a900460ff1681565b5f5f9054906101000a900473ffffffffffffffffffffffffffffffffffffffff1673ffffffffffffffffffffffffffffffffffffffff163373ffffffffffffffffffffffffffffffffffffffff16146102fb576040517f08c379a00000000000000000000000000000000000000000000000000000000081526004016102f290610ddf565b60405180910390fd5b8060015f8473ffffffffffffffffffffffffffffffffffffffff1673ffffffffffffffffffffffffffffffffffffffff1681526020019081526020015f2081905550600160025f8473ffffffffffffffffffffffffffffffffffffffff1673ffffffffffffffffffffffffffffffffffffffff1681526020019081526020015f205f6101000a81548160ff0219169083151502179055505050565b6001602052805f5260405f205f915090505481565b5f5f9054906101000a900473ffffffffffffffffffffffffffffffffffffffff1673ffffffffffffffffffffffffffffffffffffffff163373ffffffffffffffffffffffffffffffffffffffff1614610439576040517f08c379a000000000000000000000000000000000000000000000000000000000815260040161043090610ddf565b60405180910390fd5b5f60025f8373ffffffffffffffffffffffffffffffffffffffff1673ffffffffffffffffffffffffffffffffffffffff1681526020019081526020015f205f6101000a81548160ff02191690831515021790555050565b600381565b5f5f9054906101000a900473ffffffffffffffffffffffffffffffffffffffff1681565b60035f3373ffffffffffffffffffffffffffffffffffffffff1673ffffffffffffffffffffffffffffffffffffffff1681526020019081526020015f205f9054906101000a900460ff16610542576040517f08c379a000000000000000000000000000000000000000000000000000000000815260040161053990610e47565b60405180910390fd5b8073ffffffffffffffffffffffffffffffffffffffff1660045f9054906101000a900473ffffffffffffffffffffffffffffffffffffffff1673ffffffffffffffffffffffffffffffffffffffff16146105de578060045f6101000a81548173ffffffffffffffffffffffffffffffffffffffff021916908373ffffffffffffffffffffffffffffffffffffffff1602179055505f6005819055505b60055f8154809291906105f090610e92565b91905055506003600554106106a05760045f9054906101000a900473ffffffffffffffffffffffffffffffffffffffff165f5f6101000a81548173ffffffffffffffffffffffffffffffffffffffff021916908373ffffffffffffffffffffffffffffffffffffffff1602179055505f60045f6101000a81548173ffffffffffffffffffffffffffffffffffffffff021916908373ffffffffffffffffffffffffffffffffffffffff1602179055505b50565b6060478311156106e8576040517f08c379a00000000000000000000000000000000000000000000000000000000081526004016106df90610f49565b60405180910390fd5b5f5f9054906101000a900473ffffffffffffffffffffffffffffffffffffffff1673ffffffffffffffffffffffffffffffffffffffff163373ffffffffffffffffffffffffffffffffffffffff16146108985760025f3373ffffffffffffffffffffffffffffffffffffffff1673ffffffffffffffffffffffffffffffffffffffff1681526020019081526020015f205f9054906101000a900460ff166107c4576040517f08c379a00000000000000000000000000000000000000000000000000000000081526004016107bb90610fd7565b60405180910390fd5b8260015f3373ffffffffffffffffffffffffffffffffffffffff1673ffffffffffffffffffffffffffffffffffffffff1681526020019081526020015f20541015610844576040517f08c379a000000000000000000000000000000000000000000000000000000000815260040161083b90611065565b60405180910390fd5b8260015f3373ffffffffffffffffffffffffffffffffffffffff1673ffffffffffffffffffffffffffffffffffffffff1681526020019081526020015f205f8282546108909190611083565b925050819055505b5f5f8573ffffffffffffffffffffffffffffffffffffffff1685856040516108c091906110f0565b5f6040518083038185875af1925050503d805f81146108fa576040519150601f19603f3d011682016040523d82523d5f602084013e6108ff565b606091505b509150915081610944576040517f08c379a000000000000000000000000000000000000000000000000000000000815260040161093b90611150565b60405180910390fd5b80925050509392505050565b6003602052805f5260405f205f915054906101000a900460ff1681565b5f604051905090565b5f5ffd5b5f5ffd5b5f73ffffffffffffffffffffffffffffffffffffffff82169050919050565b5f6109a78261097e565b9050919050565b6109b78161099d565b81146109c1575f5ffd5b50565b5f813590506109d2816109ae565b92915050565b5f602082840312156109ed576109ec610976565b5b5f6109fa848285016109c4565b91505092915050565b5f8115159050919050565b610a1781610a03565b82525050565b5f602082019050610a305f830184610a0e565b92915050565b5f819050919050565b610a4881610a36565b8114610a52575f5ffd5b50565b5f81359050610a6381610a3f565b92915050565b5f5f60408385031215610a7f57610a7e610976565b5b5f610a8c858286016109c4565b9250506020610a9d85828601610a55565b9150509250929050565b610ab081610a36565b82525050565b5f602082019050610ac95f830184610aa7565b92915050565b5f610ad98261097e565b9050919050565b610ae981610acf565b82525050565b5f602082019050610b025f830184610ae0565b92915050565b610b1181610acf565b8114610b1b575f5ffd5b50565b5f81359050610b2c81610b08565b92915050565b5f60208284031215610b4757610b46610976565b5b5f610b5484828501610b1e565b91505092915050565b5f5ffd5b5f5ffd5b5f601f19601f8301169050919050565b7f4e487b71000000000000000000000000000000000000000000000000000000005f52604160045260245ffd5b610bab82610b65565b810181811067ffffffffffffffff82111715610bca57610bc9610b75565b5b80604052505050565b5f610bdc61096d565b9050610be88282610ba2565b919050565b5f67ffffffffffffffff821115610c0757610c06610b75565b5b610c1082610b65565b9050602081019050919050565b828183375f83830152505050565b5f610c3d610c3884610bed565b610bd3565b905082815260208101848484011115610c5957610c58610b61565b5b610c64848285610c1d565b509392505050565b5f82601f830112610c8057610c7f610b5d565b5b8135610c90848260208601610c2b565b91505092915050565b5f5f5f60608486031215610cb057610caf610976565b5b5f610cbd86828701610b1e565b9350506020610cce86828701610a55565b925050604084013567ffffffffffffffff811115610cef57610cee61097a565b5b610cfb86828701610c6c565b9150509250925092565b5f81519050919050565b5f82825260208201905092915050565b8281835e5f83830152505050565b5f610d3782610d05565b610d418185610d0f565b9350610d51818560208601610d1f565b610d5a81610b65565b840191505092915050565b5f6020820190508181035f830152610d7d8184610d2d565b905092915050565b5f82825260208201905092915050565b7f596f7520617265206e6f7420746865206f776e65722c2061626f7274696e67215f82015250565b5f610dc9602083610d85565b9150610dd482610d95565b602082019050919050565b5f6020820190508181035f830152610df681610dbd565b9050919050565b7f596f7520617265206e6f20677561726469616e2c2061626f7274696e670000005f82015250565b5f610e31601d83610d85565b9150610e3c82610dfd565b602082019050919050565b5f6020820190508181035f830152610e5e81610e25565b9050919050565b7f4e487b71000000000000000000000000000000000000000000000000000000005f52601160045260245ffd5b5f610e9c82610a36565b91507fffffffffffffffffffffffffffffffffffffffffffffffffffffffffffffffff8203610ece57610ecd610e65565b5b600182019050919050565b7f43616e27742073656e64206d6f7265207468616e2074686520636f6e747261635f8201527f74206f776e732c2061626f7274696e672e000000000000000000000000000000602082015250565b5f610f33603183610d85565b9150610f3e82610ed9565b604082019050919050565b5f6020820190508181035f830152610f6081610f27565b9050919050565b7f596f7520617265206e6f7420616c6c6f77656420746f2073656e6420616e79205f8201527f7472616e73616374696f6e732c2061626f7274696e6700000000000000000000602082015250565b5f610fc1603683610d85565b9150610fcc82610f67565b604082019050919050565b5f6020820190508181035f830152610fee81610fb5565b9050919050565b7f596f752061726520747279696e6720746f2073656e64206d6f7265207468616e5f8201527f20796f752061726520616c6c6f77656420746f2c2061626f7274696e67000000602082015250565b5f61104f603d83610d85565b915061105a82610ff5565b604082019050919050565b5f6020820190508181035f83015261107c81611043565b9050919050565b5f61108d82610a36565b915061109883610a36565b92508282039050818111156110b0576110af610e65565b5b92915050565b5f81905092915050565b5f6110ca82610d05565b6110d481856110b6565b93506110e4818560208601610d1f565b80840191505092915050565b5f6110fb82846110c0565b915081905092915050565b7f5472616e73616374696f6e206661696c65642c2061626f7274696e67000000005f82015250565b5f61113a601c83610d85565b915061114582611106565b602082019050919050565b5f6020820190508181035f8301526111678161112e565b905091905056fea264697066735822122014d7f393152dd513727bfcbe6ae3b59a59347cd8aa1dc0a5b7521ea92347682a64736f6c634300081c0033",
					"opcodes": "PUSH1 0x80 PUSH1 0x40 MSTORE CALLVALUE DUP1 ISZERO PUSH1 0xE JUMPI PUSH0 PUSH0 REVERT JUMPDEST POP CALLER PUSH0 PUSH0 PUSH2 0x100 EXP DUP2 SLOAD DUP2 PUSH20 0xFFFFFFFFFFFFFFFFFFFFFFFFFFFFFFFFFFFFFFFF MUL NOT AND SWAP1 DUP4 PUSH20 0xFFFFFFFFFFFFFFFFFFFFFFFFFFFFFFFFFFFFFFFF AND MUL OR SWAP1 SSTORE POP PUSH2 0x11A4 DUP1 PUSH2 0x5B PUSH0 CODECOPY PUSH0 RETURN INVALID PUSH1 0x80 PUSH1 0x40 MSTORE PUSH1 0x4 CALLDATASIZE LT PUSH2 0x89 JUMPI PUSH0 CALLDATALOAD PUSH1 0xE0 SHR DUP1 PUSH4 0x83012BE1 GT PUSH2 0x58 JUMPI DUP1 PUSH4 0x83012BE1 EQ PUSH2 0x15C JUMPI DUP1 PUSH4 0x8DA5CB5B EQ PUSH2 0x186 JUMPI DUP1 PUSH4 0xB1F8100D EQ PUSH2 0x1B0 JUMPI DUP1 PUSH4 0xBE45FD62 EQ PUSH2 0x1D8 JUMPI DUP1 PUSH4 0xF29E2236 EQ PUSH2 0x214 JUMPI PUSH2 0x90 JUMP JUMPDEST DUP1 PUSH4 0xBC605AD EQ PUSH2 0x94 JUMPI DUP1 PUSH4 0x310EC4A7 EQ PUSH2 0xD0 JUMPI DUP1 PUSH4 0x3E5BEAB9 EQ PUSH2 0xF8 JUMPI DUP1 PUSH4 0x7673DE53 EQ PUSH2 0x134 JUMPI PUSH2 0x90 JUMP JUMPDEST CALLDATASIZE PUSH2 0x90 JUMPI STOP JUMPDEST PUSH0 PUSH0 REVERT JUMPDEST CALLVALUE DUP1 ISZERO PUSH2 0x9F JUMPI PUSH0 PUSH0 REVERT JUMPDEST POP PUSH2 0xBA PUSH1 0x4 DUP1 CALLDATASIZE SUB DUP2 ADD SWAP1 PUSH2 0xB5 SWAP2 SWAP1 PUSH2 0x9D8 JUMP JUMPDEST PUSH2 0x250 JUMP JUMPDEST PUSH1 0x40 MLOAD PUSH2 0xC7 SWAP2 SWAP1 PUSH2 0xA1D JUMP JUMPDEST PUSH1 0x40 MLOAD DUP1 SWAP2 SUB SWAP1 RETURN JUMPDEST CALLVALUE DUP1 ISZERO PUSH2 0xDB JUMPI PUSH0 PUSH0 REVERT JUMPDEST POP PUSH2 0xF6 PUSH1 0x4 DUP1 CALLDATASIZE SUB DUP2 ADD SWAP1 PUSH2 0xF1 SWAP2 SWAP1 PUSH2 0xA69 JUMP JUMPDEST PUSH2 0x26D JUMP JUMPDEST STOP JUMPDEST CALLVALUE DUP1 ISZERO PUSH2 0x103 JUMPI PUSH0 PUSH0 REVERT JUMPDEST POP PUSH2 0x11E PUSH1 0x4 DUP1 CALLDATASIZE SUB DUP2 ADD SWAP1 PUSH2 0x119 SWAP2 SWAP1 PUSH2 0x9D8 JUMP JUMPDEST PUSH2 0x396 JUMP JUMPDEST PUSH1 0x40 MLOAD PUSH2 0x12B SWAP2 SWAP1 PUSH2 0xAB6 JUMP JUMPDEST PUSH1 0x40 MLOAD DUP1 SWAP2 SUB SWAP1 RETURN JUMPDEST CALLVALUE DUP1 ISZERO PUSH2 0x13F JUMPI PUSH0 PUSH0 REVERT JUMPDEST POP PUSH2 0x15A PUSH1 0x4 DUP1 CALLDATASIZE SUB DUP2 ADD SWAP1 PUSH2 0x155 SWAP2 SWAP1 PUSH2 0x9D8 JUMP JUMPDEST PUSH2 0x3AB JUMP JUMPDEST STOP JUMPDEST CALLVALUE DUP1 ISZERO PUSH2 0x167 JUMPI PUSH0 PUSH0 REVERT JUMPDEST POP PUSH2 0x170 PUSH2 0x490 JUMP JUMPDEST PUSH1 0x40 MLOAD PUSH2 0x17D SWAP2 SWAP1 PUSH2 0xAB6 JUMP JUMPDEST PUSH1 0x40 MLOAD DUP1 SWAP2 SUB SWAP1 RETURN JUMPDEST CALLVALUE DUP1 ISZERO PUSH2 0x191 JUMPI PUSH0 PUSH0 REVERT JUMPDEST POP PUSH2 0x19A PUSH2 0x495 JUMP JUMPDEST PUSH1 0x40 MLOAD PUSH2 0x1A7 SWAP2 SWAP1 PUSH2 0xAEF JUMP JUMPDEST PUSH1 0x40 MLOAD DUP1 SWAP2 SUB SWAP1 RETURN JUMPDEST CALLVALUE DUP1 ISZERO PUSH2 0x1BB JUMPI PUSH0 PUSH0 REVERT JUMPDEST POP PUSH2 0x1D6 PUSH1 0x4 DUP1 CALLDATASIZE SUB DUP2 ADD SWAP1 PUSH2 0x1D1 SWAP2 SWAP1 PUSH2 0xB32 JUMP JUMPDEST PUSH2 0x4B9 JUMP JUMPDEST STOP JUMPDEST CALLVALUE DUP1 ISZERO PUSH2 0x1E3 JUMPI PUSH0 PUSH0 REVERT JUMPDEST POP PUSH2 0x1FE PUSH1 0x4 DUP1 CALLDATASIZE SUB DUP2 ADD SWAP1 PUSH2 0x1F9 SWAP2 SWAP1 PUSH2 0xC99 JUMP JUMPDEST PUSH2 0x6A3 JUMP JUMPDEST PUSH1 0x40 MLOAD PUSH2 0x20B SWAP2 SWAP1 PUSH2 0xD65 JUMP JUMPDEST PUSH1 0x40 MLOAD DUP1 SWAP2 SUB SWAP1 RETURN JUMPDEST CALLVALUE DUP1 ISZERO PUSH2 0x21F JUMPI PUSH0 PUSH0 REVERT JUMPDEST POP PUSH2 0x23A PUSH1 0x4 DUP1 CALLDATASIZE SUB DUP2 ADD SWAP1 PUSH2 0x235 SWAP2 SWAP1 PUSH2 0x9D8 JUMP JUMPDEST PUSH2 0x950 JUMP JUMPDEST PUSH1 0x40 MLOAD PUSH2 0x247 SWAP2 SWAP1 PUSH2 0xA1D JUMP JUMPDEST PUSH1 0x40 MLOAD DUP1 SWAP2 SUB SWAP1 RETURN JUMPDEST PUSH1 0x2 PUSH1 0x20 MSTORE DUP1 PUSH0 MSTORE PUSH1 0x40 PUSH0 KECCAK256 PUSH0 SWAP2 POP SLOAD SWAP1 PUSH2 0x100 EXP SWAP1 DIV PUSH1 0xFF AND DUP2 JUMP JUMPDEST PUSH0 PUSH0 SWAP1 SLOAD SWAP1 PUSH2 0x100 EXP SWAP1 DIV PUSH20 0xFFFFFFFFFFFFFFFFFFFFFFFFFFFFFFFFFFFFFFFF AND PUSH20 0xFFFFFFFFFFFFFFFFFFFFFFFFFFFFFFFFFFFFFFFF AND CALLER PUSH20 0xFFFFFFFFFFFFFFFFFFFFFFFFFFFFFFFFFFFFFFFF AND EQ PUSH2 0x2FB JUMPI PUSH1 0x40 MLOAD PUSH32 0x8C379A000000000000000000000000000000000000000000000000000000000 DUP2 MSTORE PUSH1 0x4 ADD PUSH2 0x2F2 SWAP1 PUSH2 0xDDF JUMP JUMPDEST PUSH1 0x40 MLOAD DUP1 SWAP2 SUB SWAP1 REVERT JUMPDEST DUP1 PUSH1 0x1 PUSH0 DUP5 PUSH20 0xFFFFFFFFFFFFFFFFFFFFFFFFFFFFFFFFFFFFFFFF AND PUSH20 0xFFFFFFFFFFFFFFFFFFFFFFFFFFFFFFFFFFFFFFFF AND DUP2 MSTORE PUSH1 0x20 ADD SWAP1 DUP2 MSTORE PUSH1 0x20 ADD PUSH0 KECCAK256 DUP2 SWAP1 SSTORE POP PUSH1 0x1 PUSH1 0x2 PUSH0 DUP5 PUSH20 0xFFFFFFFFFFFFFFFFFFFFFFFFFFFFFFFFFFFFFFFF AND PUSH20 0xFFFFFFFFFFFFFFFFFFFFFFFFFFFFFFFFFFFFFFFF AND DUP2 MSTORE PUSH1 0x20 ADD SWAP1 DUP2 MSTORE PUSH1 0x20 ADD PUSH0 KECCAK256 PUSH0 PUSH2 0x100 EXP DUP2 SLOAD DUP2 PUSH1 0xFF MUL NOT AND SWAP1 DUP4 ISZERO ISZERO MUL OR SWAP1 SSTORE POP POP POP JUMP JUMPDEST PUSH1 0x1 PUSH1 0x20 MSTORE DUP1 PUSH0 MSTORE PUSH1 0x40 PUSH0 KECCAK256 PUSH0 SWAP2 POP SWAP1 POP SLOAD DUP2 JUMP JUMPDEST PUSH0 PUSH0 SWAP1 SLOAD SWAP1 PUSH2 0x100 EXP SWAP1 DIV PUSH20 0xFFFFFFFFFFFFFFFFFFFFFFFFFFFFFFFFFFFFFFFF AND PUSH20 0xFFFFFFFFFFFFFFFFFFFFFFFFFFFFFFFFFFFFFFFF AND CALLER PUSH20 0xFFFFFFFFFFFFFFFFFFFFFFFFFFFFFFFFFFFFFFFF AND EQ PUSH2 0x439 JUMPI PUSH1 0x40 MLOAD PUSH32 0x8C379A000000000000000000000000000000000000000000000000000000000 DUP2 MSTORE PUSH1 0x4 ADD PUSH2 0x430 SWAP1 PUSH2 0xDDF JUMP JUMPDEST PUSH1 0x40 MLOAD DUP1 SWAP2 SUB SWAP1 REVERT JUMPDEST PUSH0 PUSH1 0x2 PUSH0 DUP4 PUSH20 0xFFFFFFFFFFFFFFFFFFFFFFFFFFFFFFFFFFFFFFFF AND PUSH20 0xFFFFFFFFFFFFFFFFFFFFFFFFFFFFFFFFFFFFFFFF AND DUP2 MSTORE PUSH1 0x20 ADD SWAP1 DUP2 MSTORE PUSH1 0x20 ADD PUSH0 KECCAK256 PUSH0 PUSH2 0x100 EXP DUP2 SLOAD DUP2 PUSH1 0xFF MUL NOT AND SWAP1 DUP4 ISZERO ISZERO MUL OR SWAP1 SSTORE POP POP JUMP JUMPDEST PUSH1 0x3 DUP2 JUMP JUMPDEST PUSH0 PUSH0 SWAP1 SLOAD SWAP1 PUSH2 0x100 EXP SWAP1 DIV PUSH20 0xFFFFFFFFFFFFFFFFFFFFFFFFFFFFFFFFFFFFFFFF AND DUP2 JUMP JUMPDEST PUSH1 0x3 PUSH0 CALLER PUSH20 0xFFFFFFFFFFFFFFFFFFFFFFFFFFFFFFFFFFFFFFFF AND PUSH20 0xFFFFFFFFFFFFFFFFFFFFFFFFFFFFFFFFFFFFFFFF AND DUP2 MSTORE PUSH1 0x20 ADD SWAP1 DUP2 MSTORE PUSH1 0x20 ADD PUSH0 KECCAK256 PUSH0 SWAP1 SLOAD SWAP1 PUSH2 0x100 EXP SWAP1 DIV PUSH1 0xFF AND PUSH2 0x542 JUMPI PUSH1 0x40 MLOAD PUSH32 0x8C379A000000000000000000000000000000000000000000000000000000000 DUP2 MSTORE PUSH1 0x4 ADD PUSH2 0x539 SWAP1 PUSH2 0xE47 JUMP JUMPDEST PUSH1 0x40 MLOAD DUP1 SWAP2 SUB SWAP1 REVERT JUMPDEST DUP1 PUSH20 0xFFFFFFFFFFFFFFFFFFFFFFFFFFFFFFFFFFFFFFFF AND PUSH1 0x4 PUSH0 SWAP1 SLOAD SWAP1 PUSH2 0x100 EXP SWAP1 DIV PUSH20 0xFFFFFFFFFFFFFFFFFFFFFFFFFFFFFFFFFFFFFFFF AND PUSH20 0xFFFFFFFFFFFFFFFFFFFFFFFFFFFFFFFFFFFFFFFF AND EQ PUSH2 0x5DE JUMPI DUP1 PUSH1 0x4 PUSH0 PUSH2 0x100 EXP DUP2 SLOAD DUP2 PUSH20 0xFFFFFFFFFFFFFFFFFFFFFFFFFFFFFFFFFFFFFFFF MUL NOT AND SWAP1 DUP4 PUSH20 0xFFFFFFFFFFFFFFFFFFFFFFFFFFFFFFFFFFFFFFFF AND MUL OR SWAP1 SSTORE POP PUSH0 PUSH1 0x5 DUP2 SWAP1 SSTORE POP JUMPDEST PUSH1 0x5 PUSH0 DUP2 SLOAD DUP1 SWAP3 SWAP2 SWAP1 PUSH2 0x5F0 SWAP1 PUSH2 0xE92 JUMP JUMPDEST SWAP2 SWAP1 POP SSTORE POP PUSH1 0x3 PUSH1 0x5 SLOAD LT PUSH2 0x6A0 JUMPI PUSH1 0x4 PUSH0 SWAP1 SLOAD SWAP1 PUSH2 0x100 EXP SWAP1 DIV PUSH20 0xFFFFFFFFFFFFFFFFFFFFFFFFFFFFFFFFFFFFFFFF AND PUSH0 PUSH0 PUSH2 0x100 EXP DUP2 SLOAD DUP2 PUSH20 0xFFFFFFFFFFFFFFFFFFFFFFFFFFFFFFFFFFFFFFFF MUL NOT AND SWAP1 DUP4 PUSH20 0xFFFFFFFFFFFFFFFFFFFFFFFFFFFFFFFFFFFFFFFF AND MUL OR SWAP1 SSTORE POP PUSH0 PUSH1 0x4 PUSH0 PUSH2 0x100 EXP DUP2 SLOAD DUP2 PUSH20 0xFFFFFFFFFFFFFFFFFFFFFFFFFFFFFFFFFFFFFFFF MUL NOT AND SWAP1 DUP4 PUSH20 0xFFFFFFFFFFFFFFFFFFFFFFFFFFFFFFFFFFFFFFFF AND MUL OR SWAP1 SSTORE POP JUMPDEST POP JUMP JUMPDEST PUSH1 0x60 SELFBALANCE DUP4 GT ISZERO PUSH2 0x6E8 JUMPI PUSH1 0x40 MLOAD PUSH32 0x8C379A000000000000000000000000000000000000000000000000000000000 DUP2 MSTORE PUSH1 0x4 ADD PUSH2 0x6DF SWAP1 PUSH2 0xF49 JUMP JUMPDEST PUSH1 0x40 MLOAD DUP1 SWAP2 SUB SWAP1 REVERT JUMPDEST PUSH0 PUSH0 SWAP1 SLOAD SWAP1 PUSH2 0x100 EXP SWAP1 DIV PUSH20 0xFFFFFFFFFFFFFFFFFFFFFFFFFFFFFFFFFFFFFFFF AND PUSH20 0xFFFFFFFFFFFFFFFFFFFFFFFFFFFFFFFFFFFFFFFF AND CALLER PUSH20 0xFFFFFFFFFFFFFFFFFFFFFFFFFFFFFFFFFFFFFFFF AND EQ PUSH2 0x898 JUMPI PUSH1 0x2 PUSH0 CALLER PUSH20 0xFFFFFFFFFFFFFFFFFFFFFFFFFFFFFFFFFFFFFFFF AND PUSH20 0xFFFFFFFFFFFFFFFFFFFFFFFFFFFFFFFFFFFFFFFF AND DUP2 MSTORE PUSH1 0x20 ADD SWAP1 DUP2 MSTORE PUSH1 0x20 ADD PUSH0 KECCAK256 PUSH0 SWAP1 SLOAD SWAP1 PUSH2 0x100 EXP SWAP1 DIV PUSH1 0xFF AND PUSH2 0x7C4 JUMPI PUSH1 0x40 MLOAD PUSH32 0x8C379A000000000000000000000000000000000000000000000000000000000 DUP2 MSTORE PUSH1 0x4 ADD PUSH2 0x7BB SWAP1 PUSH2 0xFD7 JUMP JUMPDEST PUSH1 0x40 MLOAD DUP1 SWAP2 SUB SWAP1 REVERT JUMPDEST DUP3 PUSH1 0x1 PUSH0 CALLER PUSH20 0xFFFFFFFFFFFFFFFFFFFFFFFFFFFFFFFFFFFFFFFF AND PUSH20 0xFFFFFFFFFFFFFFFFFFFFFFFFFFFFFFFFFFFFFFFF AND DUP2 MSTORE PUSH1 0x20 ADD SWAP1 DUP2 MSTORE PUSH1 0x20 ADD PUSH0 KECCAK256 SLOAD LT ISZERO PUSH2 0x844 JUMPI PUSH1 0x40 MLOAD PUSH32 0x8C379A000000000000000000000000000000000000000000000000000000000 DUP2 MSTORE PUSH1 0x4 ADD PUSH2 0x83B SWAP1 PUSH2 0x1065 JUMP JUMPDEST PUSH1 0x40 MLOAD DUP1 SWAP2 SUB SWAP1 REVERT JUMPDEST DUP3 PUSH1 0x1 PUSH0 CALLER PUSH20 0xFFFFFFFFFFFFFFFFFFFFFFFFFFFFFFFFFFFFFFFF AND PUSH20 0xFFFFFFFFFFFFFFFFFFFFFFFFFFFFFFFFFFFFFFFF AND DUP2 MSTORE PUSH1 0x20 ADD SWAP1 DUP2 MSTORE PUSH1 0x20 ADD PUSH0 KECCAK256 PUSH0 DUP3 DUP3 SLOAD PUSH2 0x890 SWAP2 SWAP1 PUSH2 0x1083 JUMP JUMPDEST SWAP3 POP POP DUP2 SWAP1 SSTORE POP JUMPDEST PUSH0 PUSH0 DUP6 PUSH20 0xFFFFFFFFFFFFFFFFFFFFFFFFFFFFFFFFFFFFFFFF AND DUP6 DUP6 PUSH1 0x40 MLOAD PUSH2 0x8C0 SWAP2 SWAP1 PUSH2 0x10F0 JUMP JUMPDEST PUSH0 PUSH1 0x40 MLOAD DUP1 DUP4 SUB DUP2 DUP6 DUP8 GAS CALL SWAP3 POP POP POP RETURNDATASIZE DUP1 PUSH0 DUP2 EQ PUSH2 0x8FA JUMPI PUSH1 0x40 MLOAD SWAP2 POP PUSH1 0x1F NOT PUSH1 0x3F RETURNDATASIZE ADD AND DUP3 ADD PUSH1 0x40 MSTORE RETURNDATASIZE DUP3 MSTORE RETURNDATASIZE PUSH0 PUSH1 0x20 DUP5 ADD RETURNDATACOPY PUSH2 0x8FF JUMP JUMPDEST PUSH1 0x60 SWAP2 POP JUMPDEST POP SWAP2 POP SWAP2 POP DUP2 PUSH2 0x944 JUMPI PUSH1 0x40 MLOAD PUSH32 0x8C379A000000000000000000000000000000000000000000000000000000000 DUP2 MSTORE PUSH1 0x4 ADD PUSH2 0x93B SWAP1 PUSH2 0x1150 JUMP JUMPDEST PUSH1 0x40 MLOAD DUP1 SWAP2 SUB SWAP1 REVERT JUMPDEST DUP1 SWAP3 POP POP POP SWAP4 SWAP3 POP POP POP JUMP JUMPDEST PUSH1 0x3 PUSH1 0x20 MSTORE DUP1 PUSH0 MSTORE PUSH1 0x40 PUSH0 KECCAK256 PUSH0 SWAP2 POP SLOAD SWAP1 PUSH2 0x100 EXP SWAP1 DIV PUSH1 0xFF AND DUP2 JUMP JUMPDEST PUSH0 PUSH1 0x40 MLOAD SWAP1 POP SWAP1 JUMP JUMPDEST PUSH0 PUSH0 REVERT JUMPDEST PUSH0 PUSH0 REVERT JUMPDEST PUSH0 PUSH20 0xFFFFFFFFFFFFFFFFFFFFFFFFFFFFFFFFFFFFFFFF DUP3 AND SWAP1 POP SWAP2 SWAP1 POP JUMP JUMPDEST PUSH0 PUSH2 0x9A7 DUP3 PUSH2 0x97E JUMP JUMPDEST SWAP1 POP SWAP2 SWAP1 POP JUMP JUMPDEST PUSH2 0x9B7 DUP2 PUSH2 0x99D JUMP JUMPDEST DUP2 EQ PUSH2 0x9C1 JUMPI PUSH0 PUSH0 REVERT JUMPDEST POP JUMP JUMPDEST PUSH0 DUP2 CALLDATALOAD SWAP1 POP PUSH2 0x9D2 DUP2 PUSH2 0x9AE JUMP JUMPDEST SWAP3 SWAP2 POP POP JUMP JUMPDEST PUSH0 PUSH1 0x20 DUP3 DUP5 SUB SLT ISZERO PUSH2 0x9ED JUMPI PUSH2 0x9EC PUSH2 0x976 JUMP JUMPDEST JUMPDEST PUSH0 PUSH2 0x9FA DUP5 DUP3 DUP6 ADD PUSH2 0x9C4 JUMP JUMPDEST SWAP2 POP POP SWAP3 SWAP2 POP POP JUMP JUMPDEST PUSH0 DUP2 ISZERO ISZERO SWAP1 POP SWAP2 SWAP1 POP JUMP JUMPDEST PUSH2 0xA17 DUP2 PUSH2 0xA03 JUMP JUMPDEST DUP3 MSTORE POP POP JUMP JUMPDEST PUSH0 PUSH1 0x20 DUP3 ADD SWAP1 POP PUSH2 0xA30 PUSH0 DUP4 ADD DUP5 PUSH2 0xA0E JUMP JUMPDEST SWAP3 SWAP2 POP POP JUMP JUMPDEST PUSH0 DUP2 SWAP1 POP SWAP2 SWAP1 POP JUMP JUMPDEST PUSH2 0xA48 DUP2 PUSH2 0xA36 JUMP JUMPDEST DUP2 EQ PUSH2 0xA52 JUMPI PUSH0 PUSH0 REVERT JUMPDEST POP JUMP JUMPDEST PUSH0 DUP2 CALLDATALOAD SWAP1 POP PUSH2 0xA63 DUP2 PUSH2 0xA3F JUMP JUMPDEST SWAP3 SWAP2 POP POP JUMP JUMPDEST PUSH0 PUSH0 PUSH1 0x40 DUP4 DUP6 SUB SLT ISZERO PUSH2 0xA7F JUMPI PUSH2 0xA7E PUSH2 0x976 JUMP JUMPDEST JUMPDEST PUSH0 PUSH2 0xA8C DUP6 DUP3 DUP7 ADD PUSH2 0x9C4 JUMP JUMPDEST SWAP3 POP POP PUSH1 0x20 PUSH2 0xA9D DUP6 DUP3 DUP7 ADD PUSH2 0xA55 JUMP JUMPDEST SWAP2 POP POP SWAP3 POP SWAP3 SWAP1 POP JUMP JUMPDEST PUSH2 0xAB0 DUP2 PUSH2 0xA36 JUMP JUMPDEST DUP3 MSTORE POP POP JUMP JUMPDEST PUSH0 PUSH1 0x20 DUP3 ADD SWAP1 POP PUSH2 0xAC9 PUSH0 DUP4 ADD DUP5 PUSH2 0xAA7 JUMP JUMPDEST SWAP3 SWAP2 POP POP JUMP JUMPDEST PUSH0 PUSH2 0xAD9 DUP3 PUSH2 0x97E JUMP JUMPDEST SWAP1 POP SWAP2 SWAP1 POP JUMP JUMPDEST PUSH2 0xAE9 DUP2 PUSH2 0xACF JUMP JUMPDEST DUP3 MSTORE POP POP JUMP JUMPDEST PUSH0 PUSH1 0x20 DUP3 ADD SWAP1 POP PUSH2 0xB02 PUSH0 DUP4 ADD DUP5 PUSH2 0xAE0 JUMP JUMPDEST SWAP3 SWAP2 POP POP JUMP JUMPDEST PUSH2 0xB11 DUP2 PUSH2 0xACF JUMP JUMPDEST DUP2 EQ PUSH2 0xB1B JUMPI PUSH0 PUSH0 REVERT JUMPDEST POP JUMP JUMPDEST PUSH0 DUP2 CALLDATALOAD SWAP1 POP PUSH2 0xB2C DUP2 PUSH2 0xB08 JUMP JUMPDEST SWAP3 SWAP2 POP POP JUMP JUMPDEST PUSH0 PUSH1 0x20 DUP3 DUP5 SUB SLT ISZERO PUSH2 0xB47 JUMPI PUSH2 0xB46 PUSH2 0x976 JUMP JUMPDEST JUMPDEST PUSH0 PUSH2 0xB54 DUP5 DUP3 DUP6 ADD PUSH2 0xB1E JUMP JUMPDEST SWAP2 POP POP SWAP3 SWAP2 POP POP JUMP JUMPDEST PUSH0 PUSH0 REVERT JUMPDEST PUSH0 PUSH0 REVERT JUMPDEST PUSH0 PUSH1 0x1F NOT PUSH1 0x1F DUP4 ADD AND SWAP1 POP SWAP2 SWAP1 POP JUMP JUMPDEST PUSH32 0x4E487B7100000000000000000000000000000000000000000000000000000000 PUSH0 MSTORE PUSH1 0x41 PUSH1 0x4 MSTORE PUSH1 0x24 PUSH0 REVERT JUMPDEST PUSH2 0xBAB DUP3 PUSH2 0xB65 JUMP JUMPDEST DUP2 ADD DUP2 DUP2 LT PUSH8 0xFFFFFFFFFFFFFFFF DUP3 GT OR ISZERO PUSH2 0xBCA JUMPI PUSH2 0xBC9 PUSH2 0xB75 JUMP JUMPDEST JUMPDEST DUP1 PUSH1 0x40 MSTORE POP POP POP JUMP JUMPDEST PUSH0 PUSH2 0xBDC PUSH2 0x96D JUMP JUMPDEST SWAP1 POP PUSH2 0xBE8 DUP3 DUP3 PUSH2 0xBA2 JUMP JUMPDEST SWAP2 SWAP1 POP JUMP JUMPDEST PUSH0 PUSH8 0xFFFFFFFFFFFFFFFF DUP3 GT ISZERO PUSH2 0xC07 JUMPI PUSH2 0xC06 PUSH2 0xB75 JUMP JUMPDEST JUMPDEST PUSH2 0xC10 DUP3 PUSH2 0xB65 JUMP JUMPDEST SWAP1 POP PUSH1 0x20 DUP2 ADD SWAP1 POP SWAP2 SWAP1 POP JUMP JUMPDEST DUP3 DUP2 DUP4 CALLDATACOPY PUSH0 DUP4 DUP4 ADD MSTORE POP POP POP JUMP JUMPDEST PUSH0 PUSH2 0xC3D PUSH2 0xC38 DUP5 PUSH2 0xBED JUMP JUMPDEST PUSH2 0xBD3 JUMP JUMPDEST SWAP1 POP DUP3 DUP2 MSTORE PUSH1 0x20 DUP2 ADD DUP5 DUP5 DUP5 ADD GT ISZERO PUSH2 0xC59 JUMPI PUSH2 0xC58 PUSH2 0xB61 JUMP JUMPDEST JUMPDEST PUSH2 0xC64 DUP5 DUP3 DUP6 PUSH2 0xC1D JUMP JUMPDEST POP SWAP4 SWAP3 POP POP POP JUMP JUMPDEST PUSH0 DUP3 PUSH1 0x1F DUP4 ADD SLT PUSH2 0xC80 JUMPI PUSH2 0xC7F PUSH2 0xB5D JUMP JUMPDEST JUMPDEST DUP2 CALLDATALOAD PUSH2 0xC90 DUP5 DUP3 PUSH1 0x20 DUP7 ADD PUSH2 0xC2B JUMP JUMPDEST SWAP2 POP POP SWAP3 SWAP2 POP POP JUMP JUMPDEST PUSH0 PUSH0 PUSH0 PUSH1 0x60 DUP5 DUP7 SUB SLT ISZERO PUSH2 0xCB0 JUMPI PUSH2 0xCAF PUSH2 0x976 JUMP JUMPDEST JUMPDEST PUSH0 PUSH2 0xCBD DUP7 DUP3 DUP8 ADD PUSH2 0xB1E JUMP JUMPDEST SWAP4 POP POP PUSH1 0x20 PUSH2 0xCCE DUP7 DUP3 DUP8 ADD PUSH2 0xA55 JUMP JUMPDEST SWAP3 POP POP PUSH1 0x40 DUP5 ADD CALLDATALOAD PUSH8 0xFFFFFFFFFFFFFFFF DUP2 GT ISZERO PUSH2 0xCEF JUMPI PUSH2 0xCEE PUSH2 0x97A JUMP JUMPDEST JUMPDEST PUSH2 0xCFB DUP7 DUP3 DUP8 ADD PUSH2 0xC6C JUMP JUMPDEST SWAP2 POP POP SWAP3 POP SWAP3 POP SWAP3 JUMP JUMPDEST PUSH0 DUP2 MLOAD SWAP1 POP SWAP2 SWAP1 POP JUMP JUMPDEST PUSH0 DUP3 DUP3 MSTORE PUSH1 0x20 DUP3 ADD SWAP1 POP SWAP3 SWAP2 POP POP JUMP JUMPDEST DUP3 DUP2 DUP4 MCOPY PUSH0 DUP4 DUP4 ADD MSTORE POP POP POP JUMP JUMPDEST PUSH0 PUSH2 0xD37 DUP3 PUSH2 0xD05 JUMP JUMPDEST PUSH2 0xD41 DUP2 DUP6 PUSH2 0xD0F JUMP JUMPDEST SWAP4 POP PUSH2 0xD51 DUP2 DUP6 PUSH1 0x20 DUP7 ADD PUSH2 0xD1F JUMP JUMPDEST PUSH2 0xD5A DUP2 PUSH2 0xB65 JUMP JUMPDEST DUP5 ADD SWAP2 POP POP SWAP3 SWAP2 POP POP JUMP JUMPDEST PUSH0 PUSH1 0x20 DUP3 ADD SWAP1 POP DUP2 DUP2 SUB PUSH0 DUP4 ADD MSTORE PUSH2 0xD7D DUP2 DUP5 PUSH2 0xD2D JUMP JUMPDEST SWAP1 POP SWAP3 SWAP2 POP POP JUMP JUMPDEST PUSH0 DUP3 DUP3 MSTORE PUSH1 0x20 DUP3 ADD SWAP1 POP SWAP3 SWAP2 POP POP JUMP JUMPDEST PUSH32 0x596F7520617265206E6F7420746865206F776E65722C2061626F7274696E6721 PUSH0 DUP3 ADD MSTORE POP JUMP JUMPDEST PUSH0 PUSH2 0xDC9 PUSH1 0x20 DUP4 PUSH2 0xD85 JUMP JUMPDEST SWAP2 POP PUSH2 0xDD4 DUP3 PUSH2 0xD95 JUMP JUMPDEST PUSH1 0x20 DUP3 ADD SWAP1 POP SWAP2 SWAP1 POP JUMP JUMPDEST PUSH0 PUSH1 0x20 DUP3 ADD SWAP1 POP DUP2 DUP2 SUB PUSH0 DUP4 ADD MSTORE PUSH2 0xDF6 DUP2 PUSH2 0xDBD JUMP JUMPDEST SWAP1 POP SWAP2 SWAP1 POP JUMP JUMPDEST PUSH32 0x596F7520617265206E6F20677561726469616E2C2061626F7274696E67000000 PUSH0 DUP3 ADD MSTORE POP JUMP JUMPDEST PUSH0 PUSH2 0xE31 PUSH1 0x1D DUP4 PUSH2 0xD85 JUMP JUMPDEST SWAP2 POP PUSH2 0xE3C DUP3 PUSH2 0xDFD JUMP JUMPDEST PUSH1 0x20 DUP3 ADD SWAP1 POP SWAP2 SWAP1 POP JUMP JUMPDEST PUSH0 PUSH1 0x20 DUP3 ADD SWAP1 POP DUP2 DUP2 SUB PUSH0 DUP4 ADD MSTORE PUSH2 0xE5E DUP2 PUSH2 0xE25 JUMP JUMPDEST SWAP1 POP SWAP2 SWAP1 POP JUMP JUMPDEST PUSH32 0x4E487B7100000000000000000000000000000000000000000000000000000000 PUSH0 MSTORE PUSH1 0x11 PUSH1 0x4 MSTORE PUSH1 0x24 PUSH0 REVERT JUMPDEST PUSH0 PUSH2 0xE9C DUP3 PUSH2 0xA36 JUMP JUMPDEST SWAP2 POP PUSH32 0xFFFFFFFFFFFFFFFFFFFFFFFFFFFFFFFFFFFFFFFFFFFFFFFFFFFFFFFFFFFFFFFF DUP3 SUB PUSH2 0xECE JUMPI PUSH2 0xECD PUSH2 0xE65 JUMP JUMPDEST JUMPDEST PUSH1 0x1 DUP3 ADD SWAP1 POP SWAP2 SWAP1 POP JUMP JUMPDEST PUSH32 0x43616E27742073656E64206D6F7265207468616E2074686520636F6E74726163 PUSH0 DUP3 ADD MSTORE PUSH32 0x74206F776E732C2061626F7274696E672E000000000000000000000000000000 PUSH1 0x20 DUP3 ADD MSTORE POP JUMP JUMPDEST PUSH0 PUSH2 0xF33 PUSH1 0x31 DUP4 PUSH2 0xD85 JUMP JUMPDEST SWAP2 POP PUSH2 0xF3E DUP3 PUSH2 0xED9 JUMP JUMPDEST PUSH1 0x40 DUP3 ADD SWAP1 POP SWAP2 SWAP1 POP JUMP JUMPDEST PUSH0 PUSH1 0x20 DUP3 ADD SWAP1 POP DUP2 DUP2 SUB PUSH0 DUP4 ADD MSTORE PUSH2 0xF60 DUP2 PUSH2 0xF27 JUMP JUMPDEST SWAP1 POP SWAP2 SWAP1 POP JUMP JUMPDEST PUSH32 0x596F7520617265206E6F7420616C6C6F77656420746F2073656E6420616E7920 PUSH0 DUP3 ADD MSTORE PUSH32 0x7472616E73616374696F6E732C2061626F7274696E6700000000000000000000 PUSH1 0x20 DUP3 ADD MSTORE POP JUMP JUMPDEST PUSH0 PUSH2 0xFC1 PUSH1 0x36 DUP4 PUSH2 0xD85 JUMP JUMPDEST SWAP2 POP PUSH2 0xFCC DUP3 PUSH2 0xF67 JUMP JUMPDEST PUSH1 0x40 DUP3 ADD SWAP1 POP SWAP2 SWAP1 POP JUMP JUMPDEST PUSH0 PUSH1 0x20 DUP3 ADD SWAP1 POP DUP2 DUP2 SUB PUSH0 DUP4 ADD MSTORE PUSH2 0xFEE DUP2 PUSH2 0xFB5 JUMP JUMPDEST SWAP1 POP SWAP2 SWAP1 POP JUMP JUMPDEST PUSH32 0x596F752061726520747279696E6720746F2073656E64206D6F7265207468616E PUSH0 DUP3 ADD MSTORE PUSH32 0x20796F752061726520616C6C6F77656420746F2C2061626F7274696E67000000 PUSH1 0x20 DUP3 ADD MSTORE POP JUMP JUMPDEST PUSH0 PUSH2 0x104F PUSH1 0x3D DUP4 PUSH2 0xD85 JUMP JUMPDEST SWAP2 POP PUSH2 0x105A DUP3 PUSH2 0xFF5 JUMP JUMPDEST PUSH1 0x40 DUP3 ADD SWAP1 POP SWAP2 SWAP1 POP JUMP JUMPDEST PUSH0 PUSH1 0x20 DUP3 ADD SWAP1 POP DUP2 DUP2 SUB PUSH0 DUP4 ADD MSTORE PUSH2 0x107C DUP2 PUSH2 0x1043 JUMP JUMPDEST SWAP1 POP SWAP2 SWAP1 POP JUMP JUMPDEST PUSH0 PUSH2 0x108D DUP3 PUSH2 0xA36 JUMP JUMPDEST SWAP2 POP PUSH2 0x1098 DUP4 PUSH2 0xA36 JUMP JUMPDEST SWAP3 POP DUP3 DUP3 SUB SWAP1 POP DUP2 DUP2 GT ISZERO PUSH2 0x10B0 JUMPI PUSH2 0x10AF PUSH2 0xE65 JUMP JUMPDEST JUMPDEST SWAP3 SWAP2 POP POP JUMP JUMPDEST PUSH0 DUP2 SWAP1 POP SWAP3 SWAP2 POP POP JUMP JUMPDEST PUSH0 PUSH2 0x10CA DUP3 PUSH2 0xD05 JUMP JUMPDEST PUSH2 0x10D4 DUP2 DUP6 PUSH2 0x10B6 JUMP JUMPDEST SWAP4 POP PUSH2 0x10E4 DUP2 DUP6 PUSH1 0x20 DUP7 ADD PUSH2 0xD1F JUMP JUMPDEST DUP1 DUP5 ADD SWAP2 POP POP SWAP3 SWAP2 POP POP JUMP JUMPDEST PUSH0 PUSH2 0x10FB DUP3 DUP5 PUSH2 0x10C0 JUMP JUMPDEST SWAP2 POP DUP2 SWAP1 POP SWAP3 SWAP2 POP POP JUMP JUMPDEST PUSH32 0x5472616E73616374696F6E206661696C65642C2061626F7274696E6700000000 PUSH0 DUP3 ADD MSTORE POP JUMP JUMPDEST PUSH0 PUSH2 0x113A PUSH1 0x1C DUP4 PUSH2 0xD85 JUMP JUMPDEST SWAP2 POP PUSH2 0x1145 DUP3 PUSH2 0x1106 JUMP JUMPDEST PUSH1 0x20 DUP3 ADD SWAP1 POP SWAP2 SWAP1 POP JUMP JUMPDEST PUSH0 PUSH1 0x20 DUP3 ADD SWAP1 POP DUP2 DUP2 SUB PUSH0 DUP4 ADD MSTORE PUSH2 0x1167 DUP2 PUSH2 0x112E JUMP JUMPDEST SWAP1 POP SWAP2 SWAP1 POP JUMP INVALID LOG2 PUSH5 0x6970667358 0x22 SLT KECCAK256 EQ 0xD7 RETURN SWAP4 ISZERO 0x2D 0xD5 SGT PUSH19 0x7BFCBE6AE3B59A59347CD8AA1DC0A5B7521EA9 0x23 SELFBALANCE PUSH9 0x2A64736F6C63430008 SHR STOP CALLER "
				},
				"gasEstimates": {
					"creation": {
						"codeDepositCost": "903200",
						"executionCost": "25204",
						"totalCost": "928404"
					},
					"external": {
						"allowance(address)": "2847",
						"confirmationsFromGuardiansForReset()": "325",
						"denySending(address)": "27037",
						"guardian(address)": "2921",
						"isAllowedToSend(address)": "2834",
						"owner()": "2529",
						"proposeNewOwner(address)": "60658",
						"setAllowance(address,uint256)": "49366",
						"transfer(address,uint256,bytes)": "infinite"
					}
				},
				"methodIdentifiers": {
					"allowance(address)": "3e5beab9",
					"confirmationsFromGuardiansForReset()": "83012be1",
					"denySending(address)": "7673de53",
					"guardian(address)": "f29e2236",
					"isAllowedToSend(address)": "0bc605ad",
					"owner()": "8da5cb5b",
					"proposeNewOwner(address)": "b1f8100d",
					"setAllowance(address,uint256)": "310ec4a7",
					"transfer(address,uint256,bytes)": "be45fd62"
				}
			},
			"storageLayout": {
				"storage": [
					{
						"astId": 20,
						"contract": "Solidity/contracts/Project - Smart Wallet/SmartContractWallet.sol:SmartContractWallet",
						"label": "owner",
						"offset": 0,
						"slot": "0",
						"type": "t_address_payable"
					},
					{
						"astId": 24,
						"contract": "Solidity/contracts/Project - Smart Wallet/SmartContractWallet.sol:SmartContractWallet",
						"label": "allowance",
						"offset": 0,
						"slot": "1",
						"type": "t_mapping(t_address,t_uint256)"
					},
					{
						"astId": 28,
						"contract": "Solidity/contracts/Project - Smart Wallet/SmartContractWallet.sol:SmartContractWallet",
						"label": "isAllowedToSend",
						"offset": 0,
						"slot": "2",
						"type": "t_mapping(t_address,t_bool)"
					},
					{
						"astId": 32,
						"contract": "Solidity/contracts/Project - Smart Wallet/SmartContractWallet.sol:SmartContractWallet",
						"label": "guardian",
						"offset": 0,
						"slot": "3",
						"type": "t_mapping(t_address,t_bool)"
					},
					{
						"astId": 34,
						"contract": "Solidity/contracts/Project - Smart Wallet/SmartContractWallet.sol:SmartContractWallet",
						"label": "nextOwner",
						"offset": 0,
						"slot": "4",
						"type": "t_address_payable"
					},
					{
						"astId": 36,
						"contract": "Solidity/contracts/Project - Smart Wallet/SmartContractWallet.sol:SmartContractWallet",
						"label": "guardiansResetCount",
						"offset": 0,
						"slot": "5",
						"type": "t_uint256"
					}
				],
				"types": {
					"t_address": {
						"encoding": "inplace",
						"label": "address",
						"numberOfBytes": "20"
					},
					"t_address_payable": {
						"encoding": "inplace",
						"label": "address payable",
						"numberOfBytes": "20"
					},
					"t_bool": {
						"encoding": "inplace",
						"label": "bool",
						"numberOfBytes": "1"
					},
					"t_mapping(t_address,t_bool)": {
						"encoding": "mapping",
						"key": "t_address",
						"label": "mapping(address => bool)",
						"numberOfBytes": "32",
						"value": "t_bool"
					},
					"t_mapping(t_address,t_uint256)": {
						"encoding": "mapping",
						"key": "t_address",
						"label": "mapping(address => uint256)",
						"numberOfBytes": "32",
						"value": "t_uint256"
					},
					"t_uint256": {
						"encoding": "inplace",
						"label": "uint256",
						"numberOfBytes": "32"
					}
				}
			},
			"userdoc": {
				"kind": "user",
				"methods": {},
				"version": 1
			}
		}
	}
}