{
	"data": {
		"bytecode": {
			"linkReferences": {},
			"object": "60806040526040518060400160405280600b81526020017f48656c6c6f20576f726c640000000000000000000000000000000000000000008152505f908161004791906102db565b506040518060400160405280600c81526020017f48656c6c6f2057c3b6726c6400000000000000000000000000000000000000008152506001908161008c9190610402565b50348015610098575f5ffd5b506104d1565b5f81519050919050565b7f4e487b71000000000000000000000000000000000000000000000000000000005f52604160045260245ffd5b7f4e487b71000000000000000000000000000000000000000000000000000000005f52602260045260245ffd5b5f600282049050600182168061011957607f821691505b60208210810361012c5761012b6100d5565b5b50919050565b5f819050815f5260205f209050919050565b5f6020601f8301049050919050565b5f82821b905092915050565b5f6008830261018e7fffffffffffffffffffffffffffffffffffffffffffffffffffffffffffffffff82610153565b6101988683610153565b95508019841693508086168417925050509392505050565b5f819050919050565b5f819050919050565b5f6101dc6101d76101d2846101b0565b6101b9565b6101b0565b9050919050565b5f819050919050565b6101f5836101c2565b610209610201826101e3565b84845461015f565b825550505050565b5f5f905090565b610220610211565b61022b8184846101ec565b505050565b5b8181101561024e576102435f82610218565b600181019050610231565b5050565b601f8211156102935761026481610132565b61026d84610144565b8101602085101561027c578190505b61029061028885610144565b830182610230565b50505b505050565b5f82821c905092915050565b5f6102b35f1984600802610298565b1980831691505092915050565b5f6102cb83836102a4565b9150826002028217905092915050565b6102e48261009e565b67ffffffffffffffff8111156102fd576102fc6100a8565b5b6103078254610102565b610312828285610252565b5f60209050601f831160018114610343575f8415610331578287015190505b61033b85826102c0565b8655506103a2565b601f19841661035186610132565b5f5b8281101561037857848901518255600182019150602085019450602081019050610353565b868310156103955784890151610391601f8916826102a4565b8355505b6001600288020188555050505b505050505050565b5f819050815f5260205f209050919050565b601f8211156103fd576103ce816103aa565b6103d784610144565b810160208510156103e6578190505b6103fa6103f285610144565b830182610230565b50505b505050565b61040b8261009e565b67ffffffffffffffff811115610424576104236100a8565b5b61042e8254610102565b6104398282856103bc565b5f60209050601f83116001811461046a575f8415610458578287015190505b61046285826102c0565b8655506104c9565b601f198416610478866103aa565b5f5b8281101561049f5784890151825560018201915060208501945060208101905061047a565b868310156104bc57848901516104b8601f8916826102a4565b8355505b6001600288020188555050505b505050505050565b610966806104de5f395ff3fe608060405234801561000f575f5ffd5b5060043610610055575f3560e01c806307da3eae14610059578063492bfa18146100775780635ce2535314610095578063712f4602146100c557806382180568146100e3575b5f5ffd5b6100616100ff565b60405161006e91906102ac565b60405180910390f35b61007f610114565b60405161008c9190610335565b60405180910390f35b6100af60048036038101906100aa9190610492565b61019f565b6040516100bc91906104f3565b60405180910390f35b6100cd6101f6565b6040516100da919061055e565b60405180910390f35b6100fd60048036038101906100f89190610492565b610282565b005b5f6001805461010d906105ab565b9050905090565b5f8054610120906105ab565b80601f016020809104026020016040519081016040528092919081815260200182805461014c906105ab565b80156101975780601f1061016e57610100808354040283529160200191610197565b820191905f5260205f20905b81548152906001019060200180831161017a57829003601f168201915b505050505081565b5f816040516020016101b19190610615565b604051602081830303815290604052805190602001205f6040516020016101d891906106bd565b60405160208183030381529060405280519060200120149050919050565b60018054610203906105ab565b80601f016020809104026020016040519081016040528092919081815260200182805461022f906105ab565b801561027a5780601f106102515761010080835404028352916020019161027a565b820191905f5260205f20905b81548152906001019060200180831161025d57829003601f168201915b505050505081565b805f90816102909190610861565b5050565b5f819050919050565b6102a681610294565b82525050565b5f6020820190506102bf5f83018461029d565b92915050565b5f81519050919050565b5f82825260208201905092915050565b8281835e5f83830152505050565b5f601f19601f8301169050919050565b5f610307826102c5565b61031181856102cf565b93506103218185602086016102df565b61032a816102ed565b840191505092915050565b5f6020820190508181035f83015261034d81846102fd565b905092915050565b5f604051905090565b5f5ffd5b5f5ffd5b5f5ffd5b5f5ffd5b7f4e487b71000000000000000000000000000000000000000000000000000000005f52604160045260245ffd5b6103a4826102ed565b810181811067ffffffffffffffff821117156103c3576103c261036e565b5b80604052505050565b5f6103d5610355565b90506103e1828261039b565b919050565b5f67ffffffffffffffff821115610400576103ff61036e565b5b610409826102ed565b9050602081019050919050565b828183375f83830152505050565b5f610436610431846103e6565b6103cc565b9050828152602081018484840111156104525761045161036a565b5b61045d848285610416565b509392505050565b5f82601f83011261047957610478610366565b5b8135610489848260208601610424565b91505092915050565b5f602082840312156104a7576104a661035e565b5b5f82013567ffffffffffffffff8111156104c4576104c3610362565b5b6104d084828501610465565b91505092915050565b5f8115159050919050565b6104ed816104d9565b82525050565b5f6020820190506105065f8301846104e4565b92915050565b5f81519050919050565b5f82825260208201905092915050565b5f6105308261050c565b61053a8185610516565b935061054a8185602086016102df565b610553816102ed565b840191505092915050565b5f6020820190508181035f8301526105768184610526565b905092915050565b7f4e487b71000000000000000000000000000000000000000000000000000000005f52602260045260245ffd5b5f60028204905060018216806105c257607f821691505b6020821081036105d5576105d461057e565b5b50919050565b5f81905092915050565b5f6105ef826102c5565b6105f981856105db565b93506106098185602086016102df565b80840191505092915050565b5f61062082846105e5565b915081905092915050565b5f819050815f5260205f209050919050565b5f8154610649816105ab565b61065381866105db565b9450600182165f811461066d5760018114610682576106b4565b60ff19831686528115158202860193506106b4565b61068b8561062b565b5f5b838110156106ac5781548189015260018201915060208101905061068d565b838801955050505b50505092915050565b5f6106c8828461063d565b915081905092915050565b5f6020601f8301049050919050565b5f82821b905092915050565b5f6008830261071d7fffffffffffffffffffffffffffffffffffffffffffffffffffffffffffffffff826106e2565b61072786836106e2565b95508019841693508086168417925050509392505050565b5f819050919050565b5f61076261075d61075884610294565b61073f565b610294565b9050919050565b5f819050919050565b61077b83610748565b61078f61078782610769565b8484546106ee565b825550505050565b5f5f905090565b6107a6610797565b6107b1818484610772565b505050565b5b818110156107d4576107c95f8261079e565b6001810190506107b7565b5050565b601f821115610819576107ea8161062b565b6107f3846106d3565b81016020851015610802578190505b61081661080e856106d3565b8301826107b6565b50505b505050565b5f82821c905092915050565b5f6108395f198460080261081e565b1980831691505092915050565b5f610851838361082a565b9150826002028217905092915050565b61086a826102c5565b67ffffffffffffffff8111156108835761088261036e565b5b61088d82546105ab565b6108988282856107d8565b5f60209050601f8311600181146108c9575f84156108b7578287015190505b6108c18582610846565b865550610928565b601f1984166108d78661062b565b5f5b828110156108fe578489015182556001820191506020850194506020810190506108d9565b8683101561091b5784890151610917601f89168261082a565b8355505b6001600288020188555050505b50505050505056fea2646970667358221220f29e525e7093ee0046e9ba454fc313eb5c24895d662230a871e210ef92c1f1fb64736f6c634300081c0033",
			"opcodes": "PUSH1 0x80 PUSH1 0x40 MSTORE PUSH1 0x40 MLOAD DUP1 PUSH1 0x40 ADD PUSH1 0x40 MSTORE DUP1 PUSH1 0xB DUP2 MSTORE PUSH1 0x20 ADD PUSH32 0x48656C6C6F20576F726C64000000000000000000000000000000000000000000 DUP2 MSTORE POP PUSH0 SWAP1 DUP2 PUSH2 0x47 SWAP2 SWAP1 PUSH2 0x2DB JUMP JUMPDEST POP PUSH1 0x40 MLOAD DUP1 PUSH1 0x40 ADD PUSH1 0x40 MSTORE DUP1 PUSH1 0xC DUP2 MSTORE PUSH1 0x20 ADD PUSH32 0x48656C6C6F2057C3B6726C640000000000000000000000000000000000000000 DUP2 MSTORE POP PUSH1 0x1 SWAP1 DUP2 PUSH2 0x8C SWAP2 SWAP1 PUSH2 0x402 JUMP JUMPDEST POP CALLVALUE DUP1 ISZERO PUSH2 0x98 JUMPI PUSH0 PUSH0 REVERT JUMPDEST POP PUSH2 0x4D1 JUMP JUMPDEST PUSH0 DUP2 MLOAD SWAP1 POP SWAP2 SWAP1 POP JUMP JUMPDEST PUSH32 0x4E487B7100000000000000000000000000000000000000000000000000000000 PUSH0 MSTORE PUSH1 0x41 PUSH1 0x4 MSTORE PUSH1 0x24 PUSH0 REVERT JUMPDEST PUSH32 0x4E487B7100000000000000000000000000000000000000000000000000000000 PUSH0 MSTORE PUSH1 0x22 PUSH1 0x4 MSTORE PUSH1 0x24 PUSH0 REVERT JUMPDEST PUSH0 PUSH1 0x2 DUP3 DIV SWAP1 POP PUSH1 0x1 DUP3 AND DUP1 PUSH2 0x119 JUMPI PUSH1 0x7F DUP3 AND SWAP2 POP JUMPDEST PUSH1 0x20 DUP3 LT DUP2 SUB PUSH2 0x12C JUMPI PUSH2 0x12B PUSH2 0xD5 JUMP JUMPDEST JUMPDEST POP SWAP2 SWAP1 POP JUMP JUMPDEST PUSH0 DUP2 SWAP1 POP DUP2 PUSH0 MSTORE PUSH1 0x20 PUSH0 KECCAK256 SWAP1 POP SWAP2 SWAP1 POP JUMP JUMPDEST PUSH0 PUSH1 0x20 PUSH1 0x1F DUP4 ADD DIV SWAP1 POP SWAP2 SWAP1 POP JUMP JUMPDEST PUSH0 DUP3 DUP3 SHL SWAP1 POP SWAP3 SWAP2 POP POP JUMP JUMPDEST PUSH0 PUSH1 0x8 DUP4 MUL PUSH2 0x18E PUSH32 0xFFFFFFFFFFFFFFFFFFFFFFFFFFFFFFFFFFFFFFFFFFFFFFFFFFFFFFFFFFFFFFFF DUP3 PUSH2 0x153 JUMP JUMPDEST PUSH2 0x198 DUP7 DUP4 PUSH2 0x153 JUMP JUMPDEST SWAP6 POP DUP1 NOT DUP5 AND SWAP4 POP DUP1 DUP7 AND DUP5 OR SWAP3 POP POP POP SWAP4 SWAP3 POP POP POP JUMP JUMPDEST PUSH0 DUP2 SWAP1 POP SWAP2 SWAP1 POP JUMP JUMPDEST PUSH0 DUP2 SWAP1 POP SWAP2 SWAP1 POP JUMP JUMPDEST PUSH0 PUSH2 0x1DC PUSH2 0x1D7 PUSH2 0x1D2 DUP5 PUSH2 0x1B0 JUMP JUMPDEST PUSH2 0x1B9 JUMP JUMPDEST PUSH2 0x1B0 JUMP JUMPDEST SWAP1 POP SWAP2 SWAP1 POP JUMP JUMPDEST PUSH0 DUP2 SWAP1 POP SWAP2 SWAP1 POP JUMP JUMPDEST PUSH2 0x1F5 DUP4 PUSH2 0x1C2 JUMP JUMPDEST PUSH2 0x209 PUSH2 0x201 DUP3 PUSH2 0x1E3 JUMP JUMPDEST DUP5 DUP5 SLOAD PUSH2 0x15F JUMP JUMPDEST DUP3 SSTORE POP POP POP POP JUMP JUMPDEST PUSH0 PUSH0 SWAP1 POP SWAP1 JUMP JUMPDEST PUSH2 0x220 PUSH2 0x211 JUMP JUMPDEST PUSH2 0x22B DUP2 DUP5 DUP5 PUSH2 0x1EC JUMP JUMPDEST POP POP POP JUMP JUMPDEST JUMPDEST DUP2 DUP2 LT ISZERO PUSH2 0x24E JUMPI PUSH2 0x243 PUSH0 DUP3 PUSH2 0x218 JUMP JUMPDEST PUSH1 0x1 DUP2 ADD SWAP1 POP PUSH2 0x231 JUMP JUMPDEST POP POP JUMP JUMPDEST PUSH1 0x1F DUP3 GT ISZERO PUSH2 0x293 JUMPI PUSH2 0x264 DUP2 PUSH2 0x132 JUMP JUMPDEST PUSH2 0x26D DUP5 PUSH2 0x144 JUMP JUMPDEST DUP2 ADD PUSH1 0x20 DUP6 LT ISZERO PUSH2 0x27C JUMPI DUP2 SWAP1 POP JUMPDEST PUSH2 0x290 PUSH2 0x288 DUP6 PUSH2 0x144 JUMP JUMPDEST DUP4 ADD DUP3 PUSH2 0x230 JUMP JUMPDEST POP POP JUMPDEST POP POP POP JUMP JUMPDEST PUSH0 DUP3 DUP3 SHR SWAP1 POP SWAP3 SWAP2 POP POP JUMP JUMPDEST PUSH0 PUSH2 0x2B3 PUSH0 NOT DUP5 PUSH1 0x8 MUL PUSH2 0x298 JUMP JUMPDEST NOT DUP1 DUP4 AND SWAP2 POP POP SWAP3 SWAP2 POP POP JUMP JUMPDEST PUSH0 PUSH2 0x2CB DUP4 DUP4 PUSH2 0x2A4 JUMP JUMPDEST SWAP2 POP DUP3 PUSH1 0x2 MUL DUP3 OR SWAP1 POP SWAP3 SWAP2 POP POP JUMP JUMPDEST PUSH2 0x2E4 DUP3 PUSH2 0x9E JUMP JUMPDEST PUSH8 0xFFFFFFFFFFFFFFFF DUP2 GT ISZERO PUSH2 0x2FD JUMPI PUSH2 0x2FC PUSH2 0xA8 JUMP JUMPDEST JUMPDEST PUSH2 0x307 DUP3 SLOAD PUSH2 0x102 JUMP JUMPDEST PUSH2 0x312 DUP3 DUP3 DUP6 PUSH2 0x252 JUMP JUMPDEST PUSH0 PUSH1 0x20 SWAP1 POP PUSH1 0x1F DUP4 GT PUSH1 0x1 DUP2 EQ PUSH2 0x343 JUMPI PUSH0 DUP5 ISZERO PUSH2 0x331 JUMPI DUP3 DUP8 ADD MLOAD SWAP1 POP JUMPDEST PUSH2 0x33B DUP6 DUP3 PUSH2 0x2C0 JUMP JUMPDEST DUP7 SSTORE POP PUSH2 0x3A2 JUMP JUMPDEST PUSH1 0x1F NOT DUP5 AND PUSH2 0x351 DUP7 PUSH2 0x132 JUMP JUMPDEST PUSH0 JUMPDEST DUP3 DUP2 LT ISZERO PUSH2 0x378 JUMPI DUP5 DUP10 ADD MLOAD DUP3 SSTORE PUSH1 0x1 DUP3 ADD SWAP2 POP PUSH1 0x20 DUP6 ADD SWAP5 POP PUSH1 0x20 DUP2 ADD SWAP1 POP PUSH2 0x353 JUMP JUMPDEST DUP7 DUP4 LT ISZERO PUSH2 0x395 JUMPI DUP5 DUP10 ADD MLOAD PUSH2 0x391 PUSH1 0x1F DUP10 AND DUP3 PUSH2 0x2A4 JUMP JUMPDEST DUP4 SSTORE POP JUMPDEST PUSH1 0x1 PUSH1 0x2 DUP9 MUL ADD DUP9 SSTORE POP POP POP JUMPDEST POP POP POP POP POP POP JUMP JUMPDEST PUSH0 DUP2 SWAP1 POP DUP2 PUSH0 MSTORE PUSH1 0x20 PUSH0 KECCAK256 SWAP1 POP SWAP2 SWAP1 POP JUMP JUMPDEST PUSH1 0x1F DUP3 GT ISZERO PUSH2 0x3FD JUMPI PUSH2 0x3CE DUP2 PUSH2 0x3AA JUMP JUMPDEST PUSH2 0x3D7 DUP5 PUSH2 0x144 JUMP JUMPDEST DUP2 ADD PUSH1 0x20 DUP6 LT ISZERO PUSH2 0x3E6 JUMPI DUP2 SWAP1 POP JUMPDEST PUSH2 0x3FA PUSH2 0x3F2 DUP6 PUSH2 0x144 JUMP JUMPDEST DUP4 ADD DUP3 PUSH2 0x230 JUMP JUMPDEST POP POP JUMPDEST POP POP POP JUMP JUMPDEST PUSH2 0x40B DUP3 PUSH2 0x9E JUMP JUMPDEST PUSH8 0xFFFFFFFFFFFFFFFF DUP2 GT ISZERO PUSH2 0x424 JUMPI PUSH2 0x423 PUSH2 0xA8 JUMP JUMPDEST JUMPDEST PUSH2 0x42E DUP3 SLOAD PUSH2 0x102 JUMP JUMPDEST PUSH2 0x439 DUP3 DUP3 DUP6 PUSH2 0x3BC JUMP JUMPDEST PUSH0 PUSH1 0x20 SWAP1 POP PUSH1 0x1F DUP4 GT PUSH1 0x1 DUP2 EQ PUSH2 0x46A JUMPI PUSH0 DUP5 ISZERO PUSH2 0x458 JUMPI DUP3 DUP8 ADD MLOAD SWAP1 POP JUMPDEST PUSH2 0x462 DUP6 DUP3 PUSH2 0x2C0 JUMP JUMPDEST DUP7 SSTORE POP PUSH2 0x4C9 JUMP JUMPDEST PUSH1 0x1F NOT DUP5 AND PUSH2 0x478 DUP7 PUSH2 0x3AA JUMP JUMPDEST PUSH0 JUMPDEST DUP3 DUP2 LT ISZERO PUSH2 0x49F JUMPI DUP5 DUP10 ADD MLOAD DUP3 SSTORE PUSH1 0x1 DUP3 ADD SWAP2 POP PUSH1 0x20 DUP6 ADD SWAP5 POP PUSH1 0x20 DUP2 ADD SWAP1 POP PUSH2 0x47A JUMP JUMPDEST DUP7 DUP4 LT ISZERO PUSH2 0x4BC JUMPI DUP5 DUP10 ADD MLOAD PUSH2 0x4B8 PUSH1 0x1F DUP10 AND DUP3 PUSH2 0x2A4 JUMP JUMPDEST DUP4 SSTORE POP JUMPDEST PUSH1 0x1 PUSH1 0x2 DUP9 MUL ADD DUP9 SSTORE POP POP POP JUMPDEST POP POP POP POP POP POP JUMP JUMPDEST PUSH2 0x966 DUP1 PUSH2 0x4DE PUSH0 CODECOPY PUSH0 RETURN INVALID PUSH1 0x80 PUSH1 0x40 MSTORE CALLVALUE DUP1 ISZERO PUSH2 0xF JUMPI PUSH0 PUSH0 REVERT JUMPDEST POP PUSH1 0x4 CALLDATASIZE LT PUSH2 0x55 JUMPI PUSH0 CALLDATALOAD PUSH1 0xE0 SHR DUP1 PUSH4 0x7DA3EAE EQ PUSH2 0x59 JUMPI DUP1 PUSH4 0x492BFA18 EQ PUSH2 0x77 JUMPI DUP1 PUSH4 0x5CE25353 EQ PUSH2 0x95 JUMPI DUP1 PUSH4 0x712F4602 EQ PUSH2 0xC5 JUMPI DUP1 PUSH4 0x82180568 EQ PUSH2 0xE3 JUMPI JUMPDEST PUSH0 PUSH0 REVERT JUMPDEST PUSH2 0x61 PUSH2 0xFF JUMP JUMPDEST PUSH1 0x40 MLOAD PUSH2 0x6E SWAP2 SWAP1 PUSH2 0x2AC JUMP JUMPDEST PUSH1 0x40 MLOAD DUP1 SWAP2 SUB SWAP1 RETURN JUMPDEST PUSH2 0x7F PUSH2 0x114 JUMP JUMPDEST PUSH1 0x40 MLOAD PUSH2 0x8C SWAP2 SWAP1 PUSH2 0x335 JUMP JUMPDEST PUSH1 0x40 MLOAD DUP1 SWAP2 SUB SWAP1 RETURN JUMPDEST PUSH2 0xAF PUSH1 0x4 DUP1 CALLDATASIZE SUB DUP2 ADD SWAP1 PUSH2 0xAA SWAP2 SWAP1 PUSH2 0x492 JUMP JUMPDEST PUSH2 0x19F JUMP JUMPDEST PUSH1 0x40 MLOAD PUSH2 0xBC SWAP2 SWAP1 PUSH2 0x4F3 JUMP JUMPDEST PUSH1 0x40 MLOAD DUP1 SWAP2 SUB SWAP1 RETURN JUMPDEST PUSH2 0xCD PUSH2 0x1F6 JUMP JUMPDEST PUSH1 0x40 MLOAD PUSH2 0xDA SWAP2 SWAP1 PUSH2 0x55E JUMP JUMPDEST PUSH1 0x40 MLOAD DUP1 SWAP2 SUB SWAP1 RETURN JUMPDEST PUSH2 0xFD PUSH1 0x4 DUP1 CALLDATASIZE SUB DUP2 ADD SWAP1 PUSH2 0xF8 SWAP2 SWAP1 PUSH2 0x492 JUMP JUMPDEST PUSH2 0x282 JUMP JUMPDEST STOP JUMPDEST PUSH0 PUSH1 0x1 DUP1 SLOAD PUSH2 0x10D SWAP1 PUSH2 0x5AB JUMP JUMPDEST SWAP1 POP SWAP1 POP SWAP1 JUMP JUMPDEST PUSH0 DUP1 SLOAD PUSH2 0x120 SWAP1 PUSH2 0x5AB JUMP JUMPDEST DUP1 PUSH1 0x1F ADD PUSH1 0x20 DUP1 SWAP2 DIV MUL PUSH1 0x20 ADD PUSH1 0x40 MLOAD SWAP1 DUP2 ADD PUSH1 0x40 MSTORE DUP1 SWAP3 SWAP2 SWAP1 DUP2 DUP2 MSTORE PUSH1 0x20 ADD DUP3 DUP1 SLOAD PUSH2 0x14C SWAP1 PUSH2 0x5AB JUMP JUMPDEST DUP1 ISZERO PUSH2 0x197 JUMPI DUP1 PUSH1 0x1F LT PUSH2 0x16E JUMPI PUSH2 0x100 DUP1 DUP4 SLOAD DIV MUL DUP4 MSTORE SWAP2 PUSH1 0x20 ADD SWAP2 PUSH2 0x197 JUMP JUMPDEST DUP3 ADD SWAP2 SWAP1 PUSH0 MSTORE PUSH1 0x20 PUSH0 KECCAK256 SWAP1 JUMPDEST DUP2 SLOAD DUP2 MSTORE SWAP1 PUSH1 0x1 ADD SWAP1 PUSH1 0x20 ADD DUP1 DUP4 GT PUSH2 0x17A JUMPI DUP3 SWAP1 SUB PUSH1 0x1F AND DUP3 ADD SWAP2 JUMPDEST POP POP POP POP POP DUP2 JUMP JUMPDEST PUSH0 DUP2 PUSH1 0x40 MLOAD PUSH1 0x20 ADD PUSH2 0x1B1 SWAP2 SWAP1 PUSH2 0x615 JUMP JUMPDEST PUSH1 0x40 MLOAD PUSH1 0x20 DUP2 DUP4 SUB SUB DUP2 MSTORE SWAP1 PUSH1 0x40 MSTORE DUP1 MLOAD SWAP1 PUSH1 0x20 ADD KECCAK256 PUSH0 PUSH1 0x40 MLOAD PUSH1 0x20 ADD PUSH2 0x1D8 SWAP2 SWAP1 PUSH2 0x6BD JUMP JUMPDEST PUSH1 0x40 MLOAD PUSH1 0x20 DUP2 DUP4 SUB SUB DUP2 MSTORE SWAP1 PUSH1 0x40 MSTORE DUP1 MLOAD SWAP1 PUSH1 0x20 ADD KECCAK256 EQ SWAP1 POP SWAP2 SWAP1 POP JUMP JUMPDEST PUSH1 0x1 DUP1 SLOAD PUSH2 0x203 SWAP1 PUSH2 0x5AB JUMP JUMPDEST DUP1 PUSH1 0x1F ADD PUSH1 0x20 DUP1 SWAP2 DIV MUL PUSH1 0x20 ADD PUSH1 0x40 MLOAD SWAP1 DUP2 ADD PUSH1 0x40 MSTORE DUP1 SWAP3 SWAP2 SWAP1 DUP2 DUP2 MSTORE PUSH1 0x20 ADD DUP3 DUP1 SLOAD PUSH2 0x22F SWAP1 PUSH2 0x5AB JUMP JUMPDEST DUP1 ISZERO PUSH2 0x27A JUMPI DUP1 PUSH1 0x1F LT PUSH2 0x251 JUMPI PUSH2 0x100 DUP1 DUP4 SLOAD DIV MUL DUP4 MSTORE SWAP2 PUSH1 0x20 ADD SWAP2 PUSH2 0x27A JUMP JUMPDEST DUP3 ADD SWAP2 SWAP1 PUSH0 MSTORE PUSH1 0x20 PUSH0 KECCAK256 SWAP1 JUMPDEST DUP2 SLOAD DUP2 MSTORE SWAP1 PUSH1 0x1 ADD SWAP1 PUSH1 0x20 ADD DUP1 DUP4 GT PUSH2 0x25D JUMPI DUP3 SWAP1 SUB PUSH1 0x1F AND DUP3 ADD SWAP2 JUMPDEST POP POP POP POP POP DUP2 JUMP JUMPDEST DUP1 PUSH0 SWAP1 DUP2 PUSH2 0x290 SWAP2 SWAP1 PUSH2 0x861 JUMP JUMPDEST POP POP JUMP JUMPDEST PUSH0 DUP2 SWAP1 POP SWAP2 SWAP1 POP JUMP JUMPDEST PUSH2 0x2A6 DUP2 PUSH2 0x294 JUMP JUMPDEST DUP3 MSTORE POP POP JUMP JUMPDEST PUSH0 PUSH1 0x20 DUP3 ADD SWAP1 POP PUSH2 0x2BF PUSH0 DUP4 ADD DUP5 PUSH2 0x29D JUMP JUMPDEST SWAP3 SWAP2 POP POP JUMP JUMPDEST PUSH0 DUP2 MLOAD SWAP1 POP SWAP2 SWAP1 POP JUMP JUMPDEST PUSH0 DUP3 DUP3 MSTORE PUSH1 0x20 DUP3 ADD SWAP1 POP SWAP3 SWAP2 POP POP JUMP JUMPDEST DUP3 DUP2 DUP4 MCOPY PUSH0 DUP4 DUP4 ADD MSTORE POP POP POP JUMP JUMPDEST PUSH0 PUSH1 0x1F NOT PUSH1 0x1F DUP4 ADD AND SWAP1 POP SWAP2 SWAP1 POP JUMP JUMPDEST PUSH0 PUSH2 0x307 DUP3 PUSH2 0x2C5 JUMP JUMPDEST PUSH2 0x311 DUP2 DUP6 PUSH2 0x2CF JUMP JUMPDEST SWAP4 POP PUSH2 0x321 DUP2 DUP6 PUSH1 0x20 DUP7 ADD PUSH2 0x2DF JUMP JUMPDEST PUSH2 0x32A DUP2 PUSH2 0x2ED JUMP JUMPDEST DUP5 ADD SWAP2 POP POP SWAP3 SWAP2 POP POP JUMP JUMPDEST PUSH0 PUSH1 0x20 DUP3 ADD SWAP1 POP DUP2 DUP2 SUB PUSH0 DUP4 ADD MSTORE PUSH2 0x34D DUP2 DUP5 PUSH2 0x2FD JUMP JUMPDEST SWAP1 POP SWAP3 SWAP2 POP POP JUMP JUMPDEST PUSH0 PUSH1 0x40 MLOAD SWAP1 POP SWAP1 JUMP JUMPDEST PUSH0 PUSH0 REVERT JUMPDEST PUSH0 PUSH0 REVERT JUMPDEST PUSH0 PUSH0 REVERT JUMPDEST PUSH0 PUSH0 REVERT JUMPDEST PUSH32 0x4E487B7100000000000000000000000000000000000000000000000000000000 PUSH0 MSTORE PUSH1 0x41 PUSH1 0x4 MSTORE PUSH1 0x24 PUSH0 REVERT JUMPDEST PUSH2 0x3A4 DUP3 PUSH2 0x2ED JUMP JUMPDEST DUP2 ADD DUP2 DUP2 LT PUSH8 0xFFFFFFFFFFFFFFFF DUP3 GT OR ISZERO PUSH2 0x3C3 JUMPI PUSH2 0x3C2 PUSH2 0x36E JUMP JUMPDEST JUMPDEST DUP1 PUSH1 0x40 MSTORE POP POP POP JUMP JUMPDEST PUSH0 PUSH2 0x3D5 PUSH2 0x355 JUMP JUMPDEST SWAP1 POP PUSH2 0x3E1 DUP3 DUP3 PUSH2 0x39B JUMP JUMPDEST SWAP2 SWAP1 POP JUMP JUMPDEST PUSH0 PUSH8 0xFFFFFFFFFFFFFFFF DUP3 GT ISZERO PUSH2 0x400 JUMPI PUSH2 0x3FF PUSH2 0x36E JUMP JUMPDEST JUMPDEST PUSH2 0x409 DUP3 PUSH2 0x2ED JUMP JUMPDEST SWAP1 POP PUSH1 0x20 DUP2 ADD SWAP1 POP SWAP2 SWAP1 POP JUMP JUMPDEST DUP3 DUP2 DUP4 CALLDATACOPY PUSH0 DUP4 DUP4 ADD MSTORE POP POP POP JUMP JUMPDEST PUSH0 PUSH2 0x436 PUSH2 0x431 DUP5 PUSH2 0x3E6 JUMP JUMPDEST PUSH2 0x3CC JUMP JUMPDEST SWAP1 POP DUP3 DUP2 MSTORE PUSH1 0x20 DUP2 ADD DUP5 DUP5 DUP5 ADD GT ISZERO PUSH2 0x452 JUMPI PUSH2 0x451 PUSH2 0x36A JUMP JUMPDEST JUMPDEST PUSH2 0x45D DUP5 DUP3 DUP6 PUSH2 0x416 JUMP JUMPDEST POP SWAP4 SWAP3 POP POP POP JUMP JUMPDEST PUSH0 DUP3 PUSH1 0x1F DUP4 ADD SLT PUSH2 0x479 JUMPI PUSH2 0x478 PUSH2 0x366 JUMP JUMPDEST JUMPDEST DUP2 CALLDATALOAD PUSH2 0x489 DUP5 DUP3 PUSH1 0x20 DUP7 ADD PUSH2 0x424 JUMP JUMPDEST SWAP2 POP POP SWAP3 SWAP2 POP POP JUMP JUMPDEST PUSH0 PUSH1 0x20 DUP3 DUP5 SUB SLT ISZERO PUSH2 0x4A7 JUMPI PUSH2 0x4A6 PUSH2 0x35E JUMP JUMPDEST JUMPDEST PUSH0 DUP3 ADD CALLDATALOAD PUSH8 0xFFFFFFFFFFFFFFFF DUP2 GT ISZERO PUSH2 0x4C4 JUMPI PUSH2 0x4C3 PUSH2 0x362 JUMP JUMPDEST JUMPDEST PUSH2 0x4D0 DUP5 DUP3 DUP6 ADD PUSH2 0x465 JUMP JUMPDEST SWAP2 POP POP SWAP3 SWAP2 POP POP JUMP JUMPDEST PUSH0 DUP2 ISZERO ISZERO SWAP1 POP SWAP2 SWAP1 POP JUMP JUMPDEST PUSH2 0x4ED DUP2 PUSH2 0x4D9 JUMP JUMPDEST DUP3 MSTORE POP POP JUMP JUMPDEST PUSH0 PUSH1 0x20 DUP3 ADD SWAP1 POP PUSH2 0x506 PUSH0 DUP4 ADD DUP5 PUSH2 0x4E4 JUMP JUMPDEST SWAP3 SWAP2 POP POP JUMP JUMPDEST PUSH0 DUP2 MLOAD SWAP1 POP SWAP2 SWAP1 POP JUMP JUMPDEST PUSH0 DUP3 DUP3 MSTORE PUSH1 0x20 DUP3 ADD SWAP1 POP SWAP3 SWAP2 POP POP JUMP JUMPDEST PUSH0 PUSH2 0x530 DUP3 PUSH2 0x50C JUMP JUMPDEST PUSH2 0x53A DUP2 DUP6 PUSH2 0x516 JUMP JUMPDEST SWAP4 POP PUSH2 0x54A DUP2 DUP6 PUSH1 0x20 DUP7 ADD PUSH2 0x2DF JUMP JUMPDEST PUSH2 0x553 DUP2 PUSH2 0x2ED JUMP JUMPDEST DUP5 ADD SWAP2 POP POP SWAP3 SWAP2 POP POP JUMP JUMPDEST PUSH0 PUSH1 0x20 DUP3 ADD SWAP1 POP DUP2 DUP2 SUB PUSH0 DUP4 ADD MSTORE PUSH2 0x576 DUP2 DUP5 PUSH2 0x526 JUMP JUMPDEST SWAP1 POP SWAP3 SWAP2 POP POP JUMP JUMPDEST PUSH32 0x4E487B7100000000000000000000000000000000000000000000000000000000 PUSH0 MSTORE PUSH1 0x22 PUSH1 0x4 MSTORE PUSH1 0x24 PUSH0 REVERT JUMPDEST PUSH0 PUSH1 0x2 DUP3 DIV SWAP1 POP PUSH1 0x1 DUP3 AND DUP1 PUSH2 0x5C2 JUMPI PUSH1 0x7F DUP3 AND SWAP2 POP JUMPDEST PUSH1 0x20 DUP3 LT DUP2 SUB PUSH2 0x5D5 JUMPI PUSH2 0x5D4 PUSH2 0x57E JUMP JUMPDEST JUMPDEST POP SWAP2 SWAP1 POP JUMP JUMPDEST PUSH0 DUP2 SWAP1 POP SWAP3 SWAP2 POP POP JUMP JUMPDEST PUSH0 PUSH2 0x5EF DUP3 PUSH2 0x2C5 JUMP JUMPDEST PUSH2 0x5F9 DUP2 DUP6 PUSH2 0x5DB JUMP JUMPDEST SWAP4 POP PUSH2 0x609 DUP2 DUP6 PUSH1 0x20 DUP7 ADD PUSH2 0x2DF JUMP JUMPDEST DUP1 DUP5 ADD SWAP2 POP POP SWAP3 SWAP2 POP POP JUMP JUMPDEST PUSH0 PUSH2 0x620 DUP3 DUP5 PUSH2 0x5E5 JUMP JUMPDEST SWAP2 POP DUP2 SWAP1 POP SWAP3 SWAP2 POP POP JUMP JUMPDEST PUSH0 DUP2 SWAP1 POP DUP2 PUSH0 MSTORE PUSH1 0x20 PUSH0 KECCAK256 SWAP1 POP SWAP2 SWAP1 POP JUMP JUMPDEST PUSH0 DUP2 SLOAD PUSH2 0x649 DUP2 PUSH2 0x5AB JUMP JUMPDEST PUSH2 0x653 DUP2 DUP7 PUSH2 0x5DB JUMP JUMPDEST SWAP5 POP PUSH1 0x1 DUP3 AND PUSH0 DUP2 EQ PUSH2 0x66D JUMPI PUSH1 0x1 DUP2 EQ PUSH2 0x682 JUMPI PUSH2 0x6B4 JUMP JUMPDEST PUSH1 0xFF NOT DUP4 AND DUP7 MSTORE DUP2 ISZERO ISZERO DUP3 MUL DUP7 ADD SWAP4 POP PUSH2 0x6B4 JUMP JUMPDEST PUSH2 0x68B DUP6 PUSH2 0x62B JUMP JUMPDEST PUSH0 JUMPDEST DUP4 DUP2 LT ISZERO PUSH2 0x6AC JUMPI DUP2 SLOAD DUP2 DUP10 ADD MSTORE PUSH1 0x1 DUP3 ADD SWAP2 POP PUSH1 0x20 DUP2 ADD SWAP1 POP PUSH2 0x68D JUMP JUMPDEST DUP4 DUP9 ADD SWAP6 POP POP POP JUMPDEST POP POP POP SWAP3 SWAP2 POP POP JUMP JUMPDEST PUSH0 PUSH2 0x6C8 DUP3 DUP5 PUSH2 0x63D JUMP JUMPDEST SWAP2 POP DUP2 SWAP1 POP SWAP3 SWAP2 POP POP JUMP JUMPDEST PUSH0 PUSH1 0x20 PUSH1 0x1F DUP4 ADD DIV SWAP1 POP SWAP2 SWAP1 POP JUMP JUMPDEST PUSH0 DUP3 DUP3 SHL SWAP1 POP SWAP3 SWAP2 POP POP JUMP JUMPDEST PUSH0 PUSH1 0x8 DUP4 MUL PUSH2 0x71D PUSH32 0xFFFFFFFFFFFFFFFFFFFFFFFFFFFFFFFFFFFFFFFFFFFFFFFFFFFFFFFFFFFFFFFF DUP3 PUSH2 0x6E2 JUMP JUMPDEST PUSH2 0x727 DUP7 DUP4 PUSH2 0x6E2 JUMP JUMPDEST SWAP6 POP DUP1 NOT DUP5 AND SWAP4 POP DUP1 DUP7 AND DUP5 OR SWAP3 POP POP POP SWAP4 SWAP3 POP POP POP JUMP JUMPDEST PUSH0 DUP2 SWAP1 POP SWAP2 SWAP1 POP JUMP JUMPDEST PUSH0 PUSH2 0x762 PUSH2 0x75D PUSH2 0x758 DUP5 PUSH2 0x294 JUMP JUMPDEST PUSH2 0x73F JUMP JUMPDEST PUSH2 0x294 JUMP JUMPDEST SWAP1 POP SWAP2 SWAP1 POP JUMP JUMPDEST PUSH0 DUP2 SWAP1 POP SWAP2 SWAP1 POP JUMP JUMPDEST PUSH2 0x77B DUP4 PUSH2 0x748 JUMP JUMPDEST PUSH2 0x78F PUSH2 0x787 DUP3 PUSH2 0x769 JUMP JUMPDEST DUP5 DUP5 SLOAD PUSH2 0x6EE JUMP JUMPDEST DUP3 SSTORE POP POP POP POP JUMP JUMPDEST PUSH0 PUSH0 SWAP1 POP SWAP1 JUMP JUMPDEST PUSH2 0x7A6 PUSH2 0x797 JUMP JUMPDEST PUSH2 0x7B1 DUP2 DUP5 DUP5 PUSH2 0x772 JUMP JUMPDEST POP POP POP JUMP JUMPDEST JUMPDEST DUP2 DUP2 LT ISZERO PUSH2 0x7D4 JUMPI PUSH2 0x7C9 PUSH0 DUP3 PUSH2 0x79E JUMP JUMPDEST PUSH1 0x1 DUP2 ADD SWAP1 POP PUSH2 0x7B7 JUMP JUMPDEST POP POP JUMP JUMPDEST PUSH1 0x1F DUP3 GT ISZERO PUSH2 0x819 JUMPI PUSH2 0x7EA DUP2 PUSH2 0x62B JUMP JUMPDEST PUSH2 0x7F3 DUP5 PUSH2 0x6D3 JUMP JUMPDEST DUP2 ADD PUSH1 0x20 DUP6 LT ISZERO PUSH2 0x802 JUMPI DUP2 SWAP1 POP JUMPDEST PUSH2 0x816 PUSH2 0x80E DUP6 PUSH2 0x6D3 JUMP JUMPDEST DUP4 ADD DUP3 PUSH2 0x7B6 JUMP JUMPDEST POP POP JUMPDEST POP POP POP JUMP JUMPDEST PUSH0 DUP3 DUP3 SHR SWAP1 POP SWAP3 SWAP2 POP POP JUMP JUMPDEST PUSH0 PUSH2 0x839 PUSH0 NOT DUP5 PUSH1 0x8 MUL PUSH2 0x81E JUMP JUMPDEST NOT DUP1 DUP4 AND SWAP2 POP POP SWAP3 SWAP2 POP POP JUMP JUMPDEST PUSH0 PUSH2 0x851 DUP4 DUP4 PUSH2 0x82A JUMP JUMPDEST SWAP2 POP DUP3 PUSH1 0x2 MUL DUP3 OR SWAP1 POP SWAP3 SWAP2 POP POP JUMP JUMPDEST PUSH2 0x86A DUP3 PUSH2 0x2C5 JUMP JUMPDEST PUSH8 0xFFFFFFFFFFFFFFFF DUP2 GT ISZERO PUSH2 0x883 JUMPI PUSH2 0x882 PUSH2 0x36E JUMP JUMPDEST JUMPDEST PUSH2 0x88D DUP3 SLOAD PUSH2 0x5AB JUMP JUMPDEST PUSH2 0x898 DUP3 DUP3 DUP6 PUSH2 0x7D8 JUMP JUMPDEST PUSH0 PUSH1 0x20 SWAP1 POP PUSH1 0x1F DUP4 GT PUSH1 0x1 DUP2 EQ PUSH2 0x8C9 JUMPI PUSH0 DUP5 ISZERO PUSH2 0x8B7 JUMPI DUP3 DUP8 ADD MLOAD SWAP1 POP JUMPDEST PUSH2 0x8C1 DUP6 DUP3 PUSH2 0x846 JUMP JUMPDEST DUP7 SSTORE POP PUSH2 0x928 JUMP JUMPDEST PUSH1 0x1F NOT DUP5 AND PUSH2 0x8D7 DUP7 PUSH2 0x62B JUMP JUMPDEST PUSH0 JUMPDEST DUP3 DUP2 LT ISZERO PUSH2 0x8FE JUMPI DUP5 DUP10 ADD MLOAD DUP3 SSTORE PUSH1 0x1 DUP3 ADD SWAP2 POP PUSH1 0x20 DUP6 ADD SWAP5 POP PUSH1 0x20 DUP2 ADD SWAP1 POP PUSH2 0x8D9 JUMP JUMPDEST DUP7 DUP4 LT ISZERO PUSH2 0x91B JUMPI DUP5 DUP10 ADD MLOAD PUSH2 0x917 PUSH1 0x1F DUP10 AND DUP3 PUSH2 0x82A JUMP JUMPDEST DUP4 SSTORE POP JUMPDEST PUSH1 0x1 PUSH1 0x2 DUP9 MUL ADD DUP9 SSTORE POP POP POP JUMPDEST POP POP POP POP POP POP JUMP INVALID LOG2 PUSH5 0x6970667358 0x22 SLT KECCAK256 CALLCODE SWAP15 MSTORE MCOPY PUSH17 0x93EE0046E9BA454FC313EB5C24895D6622 ADDRESS 0xA8 PUSH18 0xE210EF92C1F1FB64736F6C634300081C0033 "
		},
		"gasEstimates": {
			"creation": {
				"codeDepositCost": "481200",
				"executionCost": "infinite",
				"totalCost": "infinite"
			},
			"external": {
				"compareTwoStrings(string)": "infinite",
				"getBytesLength()": "2542",
				"myBytes()": "infinite",
				"myString()": "infinite",
				"setMyString(string)": "infinite"
			}
		},
		"methodIdentifiers": {
			"compareTwoStrings(string)": "5ce25353",
			"getBytesLength()": "07da3eae",
			"myBytes()": "712f4602",
			"myString()": "492bfa18",
			"setMyString(string)": "82180568"
		}
	},
	"abi": [
		{
			"inputs": [
				{
					"internalType": "string",
					"name": "_myString",
					"type": "string"
				}
			],
			"name": "compareTwoStrings",
			"outputs": [
				{
					"internalType": "bool",
					"name": "",
					"type": "bool"
				}
			],
			"stateMutability": "view",
			"type": "function"
		},
		{
			"inputs": [],
			"name": "getBytesLength",
			"outputs": [
				{
					"internalType": "uint256",
					"name": "",
					"type": "uint256"
				}
			],
			"stateMutability": "view",
			"type": "function"
		},
		{
			"inputs": [],
			"name": "myBytes",
			"outputs": [
				{
					"internalType": "bytes",
					"name": "",
					"type": "bytes"
				}
			],
			"stateMutability": "view",
			"type": "function"
		},
		{
			"inputs": [],
			"name": "myString",
			"outputs": [
				{
					"internalType": "string",
					"name": "",
					"type": "string"
				}
			],
			"stateMutability": "view",
			"type": "function"
		},
		{
			"inputs": [
				{
					"internalType": "string",
					"name": "_myString",
					"type": "string"
				}
			],
			"name": "setMyString",
			"outputs": [],
			"stateMutability": "nonpayable",
			"type": "function"
		}
	]
}